:1000000004308A00F52C0000FF00030E8301A100DC
:100010000A08A0008A010408A2007708A300780853
:10002000A4007908A5007A08A60003170D08031399
:10003000A70003170F080313A80003170C080313E6
:10004000A90003170E080313AA00831383128B1E43
:100050002B280B1952288C308400001C31280C18D6
:100060005528220884002308F7002408F8002508F2
:10007000F9002608FA00270803178D000313280843
:1000800003178F000313290803178C0003132A0892
:1000900003178E00031320088A00210E8300FF0E31
:1000A0007F0E09008A110A1264288A110A12602838
:1000B0000A108A100A11820728340F3401340634DA
:1000C0000C108A110A1231280B118A110A123128D8
:1000D0000C10A034EE34E3346137E4372E172E10C1
:1000E00000008C24C62654102D10D332F234613611
:1000F00000008C2AF33A6139E937A0216132E139F5
:10010000743961326F008C2444106937E3376D38DD
:10011000613A693B653600010D05D4326E3A6510CF
:10012000EE37F630ED326E3A65000C10C23A743A92
:100130006F373A10253200000D05D03BBA12E41299
:10014000E412E4126410533ABA126410253200002B
:100150008C2444104537E3376E3AF230E437BA1254
:1001600064000C1049222027A022EE316F37743929
:1001700061326F000C10D5396539A032F230F3329C
:10018000641000006A308400831300080319D52826
:100190000630F800F701F70BCB28F80BCA287B30A4
:1001A000F700F70BD128800BC82808007118DA284F
:1001B0000812DB28081683160812F118E3288312A8
:1001C0008812E528831683128816831688127119FF
:1001D000ED2883120813EF2883168312081783165D
:1001E0000813F119F72883128813F928831683124C
:1001F000881783168813891083128914831689102F
:100200008312891008008316091183120911EE0860
:10021000031D0C2909110D29091583160911A63092
:10022000F700F70B112900008910831289106F0E57
:10023000F0000F30F0057008F100D6206F080F397C
:10024000F000F100D620080083160812831208126D
:1002500083168812831288128316081383120813D8
:1002600083168813831288138316091183120911C8
:1002700083168910831289100F30EA00C2200130E2
:10028000D4005408033C031C4D290330F100D62050
:100290000530EA00C220D40A41290230F100D620FC
:1002A000D4015408033C031C5E2954085820D5008F
:1002B000EE015508EF000321D40A51298A110A12D0
:1002C0000E2D69080C3A03196F29063A031977298C
:1002D000073A03197729053A03198D299229EE0166
:1002E0000130EF0003210230EA00C22097290130DB
:1002F000EA000230EB006B0B7E2981294030EC00D4
:100300008229EC0101306A02EC076C088038ED00AC
:10031000EE016D08EF0003219729EE011030EF0088
:10032000032197290130EE006908EF00032108003E
:100330000B08E3008B13831603178C170C140000B3
:10034000000083120313E31B8B1703170C087F397C
:100350000319EC290313E30003170D080313E4004A
:1003600003170F080313E5006308E900612164081F
:1003700003178D000313650803178F0003130B0881
:10038000E6008B13831603178C170C140000000073
:1003900083120313E61B8B1703170C0D0E0D7F3909
:1003A0000319EC290313E30003170D080313E400FA
:1003B00003170F080313E5006308E90061216408CF
:1003C00003178D000313650803178F008D0A0319A7
:1003D0008F0A031398290317031308000830F80045
:1003E0000430F700F70BF2298711CD114D08831661
:1003F00087000330F700F70BFB298312E60D071285
:10040000031C082A4D164D08831687000C2A8312F8
:100410004D124D088316870000008312CD154D083C
:10042000831687008312871D132AF80BF0290430E6
:10043000F700F70B192A8711CD114D088316870095
:10044000000083124D164D08831687000330F70015
:10045000F70B282A0330F700F70B2C2A8312CD154F
:100460004D08831687008312871D342AF801033054
:10047000F700F70B392A071A78148711CD114D08A8
:1004800083168700831207124D124D0883168700CA
:10049000831208004D164D08831687000430F700BC
:1004A000F70B502A8312CD154D08831687000330B1
:1004B000F700F70B592A831207124D124D088316C5
:1004C00087000430F700F70B632A83128711CD11E0
:1004D0004D0883168700A0308312E600EE217808CD
:1004E0006510781865144D124D08831687000000BA
:1004F0008312CD154D08831687008312871D7E2A2F
:100500000430F700F70B822A852A00004D164D08AB
:10051000831687000430F700F70B8C2A0030831213
:10052000651C0130F80008004A22F8080319942AD3
:100530004D164D08831687000430F700F70B9E2AEE
:100540008312CD154D08831687000330F700F70B93
:10055000A72A831207124D124D0883168700043014
:10056000F700F70BB12A83128711CD114D088316BE
:100570008700A0308312E600EE216308E600EE213A
:100580004D164D08831687000430F700F70BC62A76
:100590008312CD154D08831687000330F700F70B43
:1005A000CF2A8312871DD22A07124D124D088316B7
:1005B00087000430F700F70BDB2A83128711CD1177
:1005C0004D0883168700A1308312E600EE21F70163
:1005D0000830E6007708E7004D164D0883168700BF
:1005E0000330F700F70BF22A8312CD154D0883165E
:1005F00087008312871DFA2A071A0314071E0310A7
:10060000F80D0430F700F70B032BCD114D088316BE
:10061000870083128711E60BEC2A4D164D088316CE
:1006200087000330F700F70B132B831207126708BC
:1006300003191F2B4D124D088316870083120000EB
:10064000CD154D08831687008312871D252B043096
:10065000F700F70B292B8711CD114D088316870062
:100660000330F700F70B322B831207124D124D089F
:100670008316870078088312E4004D124D08831614
:10068000870000008312CD154D0883168700831262
:10069000871D482B0430F700F70B4C2B4F2B000025
:1006A0004D164D08831687000430F700F70B562BC4
:1006B00083126408F80008006A08F8016902031848
:1006C000642B6908F700702BF7010830EB00E90D87
:1006D000F70D6A0877020318F700F80DEB0B672B8C
:1006E00008004A22F8080319712B4D164D0883168D
:1006F00087000430F700F70B7B2B8312CD154D08D4
:10070000831687000330F700F70B842B8312071240
:100710004D124D08831687000430F700F70B8E2B1F
:1007200083128711CD114D0883168700A0308312E4
:10073000E600EE216008E600EE216108E600EE2109
:100740004D124D088316870000008312CD154D0809
:10075000831687008312871DAB2B0430F700F70B3D
:10076000AF2BB22B00004D164D08831687000430C6
:10077000F700F70BB92B831208005408E000E201E0
:100780006208E30094227808FF3C0319962C620863
:10079000E30094227808E10060086102031D932CB5
:1007A000A83003178D0000308F0003100F300313A3
:1007B000E3000B08E4008B13831603178C170C144B
:1007C0000000000083120313E41B8B170318102C86
:1007D00003170C087F390313E40003170D080313F4
:1007E000E50003170F080313E6006408E900612120
:1007F000650803178D000313660803178F000313A2
:100800000B08E7008B13831603178C170C140000DA
:10081000000083120313E71B8B17E30B102C2F2C04
:1008200003170C0D0E0D7F390313E40003170D0899
:100830000313E50003170F080313E6006408E9003B
:100840006121650803178D000313660803178F00E5
:100850008D0A03198F0A03100313E30BD92B6108C8
:10086000E3001830E4002030641E3030E5006308F7
:10087000F700E31F432CF709F70A7708E3002D3050
:10088000E500E41764146308E9006430EA005C23BF
:100890007708E30030307807E6006308E9000A30A3
:1008A000EA005C2330307707E80030307807E70053
:1008B0006508F700303066020319622CE414E41B6B
:1008C0006415762C6508E6002030E50030306702BC
:1008D00003196E2C6414E41BE414762C031D6414B9
:1008E000031D762C6608E7002030E60064197D2C95
:1008F000E418802C6418832C862C6508E90061219B
:100900006608E90061216708E90061216808E900DB
:1009100061210430E300FA30EA00C220E30B8B2CA3
:100920006208F8009F2C0730E207C02BB130031794
:100930008D0000308F0003139821FF30F800540819
:10094000D900550884008313561883170008DA006D
:100950000130550784008313561883170008DB0005
:100960000230550784008313561883170008DC00F3
:100970000330550784008313561883170008DD00E1
:100980005708DE005808DF00E0015908E100712334
:100990000130E0005A08E10071230230E0005B08FA
:1009A000E10071230330E0005C08E10071230430B2
:1009B000E0005D08E10071230530E0005E08E10021
:1009C00071230630E0005F08E100712379300317DE
:1009D0008D0000308F00031398210430E000FA30BE
:1009E000EA00C220E00BEF2C080003081F39830047
:1009F000AE01AF01BD01BE01FF30CD0083161F1453
:100A00009F141F159F1107309C0083130108C039E4
:100A100007388100B5308312900024295230F70046
:100A2000F70B102D132D0000683003178D000030D8
:100A30008F00031398210430D400FA30EA00C2205A
:100A4000D40B1D2D713003178D0000308F00031360
:100A500098213230EA00C22083168811831288154B
:100A6000BD010130D0000230D1000330D20004308B
:100A7000D3009130D400D6015030D5000130D700DA
:100A8000D800BD239130D400D6015030D5000130BC
:100A9000D700D801BD238D30D400D6015030D50009
:100AA0000130D700D800BD233230EA00C220043024
:100AB000D400FA30EA00C220D40B592D5E2D630019
:02400E00323F3F
:00000001FF
;PIC16F877A
;CRC=1A83  CREATED="15-nov-21 21:32"
