:1000000005308A00322D0000FF00030E8301A1009D
:100010000A08A0008A010408A2007708A300780853
:10002000A4007908A5007A08A60003170D08031399
:10003000A70003170F080313A80003170C080313E6
:10004000A90003170E080313AA00831383128B1E43
:100050002B280B1952288C308400001C31280C18D6
:100060005528220884002308F7002408F8002508F2
:10007000F9002608FA00270803178D000313280843
:1000800003178F000313290803178C0003132A0892
:1000900003178E00031320088A00210E8300FF0E31
:1000A0007F0E09008A110A1264288A110A12602838
:1000B0000A108A100A11820728340F3401340634DA
:1000C0000C108A110A1231280B118A110A123128D8
:1000D0000C10A034EE34E3346137E4372E172E10C1
:1000E00000008C24C62654102D10D332F234613611
:1000F00000008C2AF33A6139E937A0216132E139F5
:10010000743961326F008C2444106937E3376D38DD
:10011000613A693B653600010D05D4326E3A6510CF
:10012000EE37F630ED326E3A65000C10C23A743A92
:100130006F373A10253200000D05D03BBA12E41299
:10014000E412E4126410533ABA126410253200002B
:100150008C2444104537E3376E3AF230E437BA1254
:1001600064000C1049222027A022EE316F37743929
:1001700061326F000C10D5396539A032F230F3329C
:10018000641000008C206432F232F3393A102532C8
:1001900000006B308400831300080319DC2806304C
:1001A000F800F701F70BD228F80BD1287B30F700C5
:1001B000F70BD828800BCF2808007218E128081206
:1001C000E228081683160812F218EA288312881209
:1001D000EC28831683128816831688127219F42865
:1001E00083120813F6288316831208178316081340
:1001F000F219FE28831288130029831683128817A8
:100200008316881389108312891483168910831228
:10021000891008008316091183120911EF08031DC4
:10022000132909111429091583160911A630F7009D
:10023000F70B18290000891083128910700EF10045
:100240000F30F1057108F200DD2070080F39F10060
:10025000F200DD20080083160812831208128316AC
:1002600088128312881283160813831208138316C8
:1002700088138312881383160911831209118316B8
:100280008910831289100F30EB00C9200130D4008F
:100290005408033C031C54290330F200DD200530D0
:1002A000EB00C920D40A48290230F200DD20D40135
:1002B0005408033C031C652954085820D500EF015D
:1002C0005508F0000A21D40A58298A110A124B2D28
:1002D0006A080C3A03197629063A03197E29073A67
:1002E00003197E29053A031994299929EF01013050
:1002F000F0000A210230EB00C9209E290130EB00FA
:100300000230EC006C0B852988294030ED008929EA
:10031000ED0101306B02ED076D088038EE00EF0152
:100320006E08F0000A219E29EF011030F0000A212A
:100330009E290130EF006A08F0000A2108000B082E
:10034000E4008B13831603178C170C1400000000B5
:1003500083120313E41B8B1703170C087F3903194F
:10036000F3290313E40003170D080313E500031733
:100370000F080313E6006408EA0068216508031704
:100380008D000313660803178F0003130B08E700A3
:100390008B13831603178C170C14000000008312B4
:1003A0000313E71B8B1703170C0D0E0D7F39031971
:1003B000F3290313E40003170D080313E5000317E3
:1003C0000F080313E6006408EA00682165080317B4
:1003D0008D000313660803178F008D0A03198F0A17
:1003E00003139F290317031308000830F800043093
:1003F000F700F70BF9298711CD114D0883168700F7
:100400000330F700F70B022A8312E70D0712031CD3
:100410000F2A4D164D0883168700132A83124D129A
:100420004D088316870000008312CD154D088316F2
:1004300087008312871D1A2AF80BF7290430F7006A
:10044000F70B202A8711CD114D0883168700000075
:1004500083124D164D08831687000330F700F70B03
:100460002F2A0330F700F70B332A8312CD154D08DE
:10047000831687008312871D3B2AF8010330F7009B
:10048000F70B402A071A78148711CD114D088316EF
:100490008700831207124D124D08831687008312BE
:1004A00008004D164D08831687000430F700F70B3F
:1004B000572A8312CD154D08831687000330F700A5
:1004C000F70B602A831207124D124D08831687001E
:1004D0000430F700F70B6A2A83128711CD114D08FB
:1004E00083168700A0308312E700F5217808661094
:1004F000781866144D124D08831687000000831289
:10050000CD154D08831687008312871D852A043078
:10051000F700F70B892A8C2A00004D164D08831628
:1005200087000430F700F70B932A00308312661C13
:100530000130F80008005122F80803199B2A4D16D3
:100540004D08831687000430F700F70BA52A8312A5
:10055000CD154D08831687000330F700F70BAE2A40
:10056000831207124D124D08831687000430F700DE
:10057000F70BB82A83128711CD114D088316870017
:10058000A0308312E700F5216408E700F5214D163D
:100590004D08831687000430F700F70BCD2A83122D
:1005A000CD154D08831687000330F700F70BD62AC8
:1005B0008312871DD92A07124D124D088316870012
:1005C0000430F700F70BE22A83128711CD114D0892
:1005D00083168700A1308312E700F521F701083068
:1005E000E7007708E8004D164D08831687000330B2
:1005F000F700F70BF92A8312CD154D0883168700F3
:100600008312871D012B071A0314071E0310F80D10
:100610000430F700F70B0A2BCD114D088316870025
:1006200083128711E70BF32A4D164D0883168700B6
:100630000330F700F70B1A2B83120712680803190F
:10064000262B4D124D088316870083120000CD150E
:100650004D08831687008312871D2C2B0430F7006A
:10066000F70B302B8711CD114D088316870003300F
:10067000F700F70B392B831207124D124D08831622
:10068000870078088312E5004D124D088316870015
:1006900000008312CD154D08831687008312871D35
:1006A0004F2B0430F700F70B532B562B00004D1641
:1006B0004D08831687000430F700F70B5D2B83127B
:1006C0006508F80008000B08E5008B138316031774
:1006D0008C170C140000000083120313E51B8B170A
:1006E00003189A2B03170C087F390313E50003172F
:1006F0000D080313E60003170F080313E70065084E
:10070000EA006821660803178D00031367080317C2
:100710008F0003130B08E8008B13831603178C1745
:100720000C140000000083120313E81B8B17E40B6A
:100730009A2BB92B03170C0D0E0D7F390313E5000F
:1007400003170D080313E60003170F080313E70050
:100750006508EA006821660803178D00031367081F
:1007600003178F008D0A03198F0A03100313E40B7C
:10077000632B08006B08F8016A020318C22B6A0891
:10078000F700CE2BF7010830EC00EA0DF70D6B08EF
:1007900077020318F700F80DEC0BC52B080020308A
:1007A000651E3030E6006408F700E41FDF2BF70910
:1007B000F70A7708E4002D30E600E51765146408B1
:1007C000EA006430EB00BA237708E40030307807A1
:1007D000E7006408EA000A30EB00BA2330307707FC
:1007E000E90030307807E8006608F700303067022B
:1007F0000319FE2BE514E51B6515122C6608E700AE
:100800002030E6003030680203190A2C6514E51B1D
:10081000E514122C031D6514031D122C6708E80053
:100820002030E7006519192CE5181C2C65181F2CC1
:10083000222C6608EA0068216708EA006821680837
:10084000EA0068216908EA00682108005122F808D6
:100850000319262C4D164D08831687000430F70027
:10086000F70B302C8312CD154D088316870003300B
:10087000F700F70B392C831207124D124D0883161F
:1008800087000430F700F70B432C83128711CD113A
:100890004D0883168700A0308312E700F521620817
:1008A000E700F5216308E700F5214D124D08831696
:1008B000870000008312CD154D0883168700831230
:1008C000871D602C0430F700F70B642C672C0000A8
:1008D0004D164D08831687000430F700F70B6E2C79
:1008E000831208005408E100E3016308E4009B223E
:1008F0007808FF3C0319A12C6308E4009B227808C8
:10090000E20061086202031D9E2CA83003178D00CF
:1009100000308F0003100F300313E40063236208DC
:10092000E4001830E500CF230430E400FA30EB0097
:10093000C920E40B962C6308F800AA2C0730E307C3
:10094000752CB13003178D0000308F0003139F21E9
:10095000FF30F800E1016108E4009B227808FF3CC9
:100960000319B52C0730E107AB2CC23003178D00FB
:1009700000308F0003100A300313E4006323610882
:10098000E4001830E500CF230430E300FA30EB0038
:10099000C920E30BC62C6108F8007808D900540878
:1009A000DA00550884008313561883170008DB000B
:1009B0000130550784008313561883170008DC00A4
:1009C0000230550784008313561883170008DD0092
:1009D0000330550784008313561883170008DE0080
:1009E0005708DF005808E0005908E2005A08E30001
:1009F000262401305907E100E2005B08E3002624C9
:100A000002305907E100E2005C08E30026240330CD
:100A10005907E100E2005D08E3002624043059078D
:100A2000E100E2005E08E300262405305907E100FA
:100A3000E2005F08E300262406305907E100E200E7
:100A40006008E3002624793003178D0000308F0002
:100A500003139F210430E100FA30EB00C920E10BC1
:100A60002C2D080003081F398300AE01AF01BD0122
:100A7000BE01FF30CD0083161F149F141F159F1158
:100A800007309C0083130108C03907388100B53056
:100A9000831290002B295230F700F70B4D2D502D6B
:100AA0000000683003178D0000308F0003139F2172
:100AB0000430D400FA30EB00C920D40B5A2D713029
:100AC00003178D0000308F0003139F213230EB009D
:100AD000C9208316881183128815BD010130D0000A
:100AE0000230D1000330D2000430D3000C30D400E7
:100AF000D6015030D5000130D700D80072240E3016
:100B0000D400D6015030D500D7010130D80072246E
:100B10000530D400D6015030D5000130D700D800C0
:100B200072240730D400D6015030D5000130D700F0
:100B3000D80172243230EB00C9200430D400FA30DE
:0C0B4000EB00C920D40B9F2DA42D6300F6
:02400E00323F3F
:00000001FF
;PIC16F877A
;CRC=1FE9  CREATED="16-Nov-21 08:53"
