:1000000005308A00FA2D0000FF00030E8301A100D5
:100010000A08A0008A010408A2007708A300780853
:10002000A4007908A5007A08A60003170D08031399
:10003000A70003170F080313A80003170C080313E6
:10004000A90003170E080313AA00831383128B1E43
:100050002B280B1952288C308400001C31280C18D6
:100060005528220884002308F7002408F8002508F2
:10007000F9002608FA00270803178D000313280843
:1000800003178F000313290803178C0003132A0892
:1000900003178E00031320088A00210E8300FF0E31
:1000A0007F0E09008A110A1264288A110A12602838
:1000B0000A108A100A11820728340F3401340634DA
:1000C0000C108A110A1231280B118A110A123128D8
:1000D0000C10A034EE34E3346137E4372E172E10C1
:1000E00000008C24C62654102D10D332F234613611
:1000F00000008C2AF33A6139E937A0216132E139F5
:10010000743961326F008C2444106937E3376D38DD
:10011000613A693B653600010D05D4326E3A6510CF
:10012000EE37F630ED326E3A65000C10C23A743A92
:100130006F373A10253200000D05D03BBA12E41299
:10014000E412E4126410533ABA126410253200002B
:100150008C2444104537E3376E3AF230E437BA1254
:1001600064000C1049222027A022EE316F37743929
:1001700061326F000C10D5396539A032F230F3329C
:10018000641000008C206432F232F3393A102532C8
:1001900000008C24441DA53A2C10453CE939F4326A
:1001A00000018C24441DA53A2C104E10453CE93921
:1001B000F43200005D308400831300080319ED2839
:1001C0000630F800F701F70BE328F80BE2287B3044
:1001D000F700F70BE928800BE02808006418F228E4
:1001E0000812F3280816831608128312E418FA2856
:1001F0008812FB2888168316881283126419022934
:10020000081303290817831608138312E4190A290F
:1002100088130B2988178316881389108312891471
:10022000831689108312891008008316091183121E
:100230000911E108031D1E2909111F29091583163B
:100240000911A630F700F70B23290000891083124B
:100250008910620EE3000F30E3056308E400EE202E
:1002600062080F39E300E400EE200800831608124C
:1002700083120812831688128312881283160813B9
:1002800083120813831688138312881383160911A7
:100290008312091183168910831289100F30DD0033
:1002A000DA200130C6004608033C031C5F290330F6
:1002B000E400EE200530DD00DA20C60A53290230C2
:1002C000E400EE20C6014608033C031C70294608E2
:1002D0005820C700E1014708E2001521C60A63293A
:1002E0008A110A12162E5C080C3A03198129063A63
:1002F00003198929073A03198929053A03199F29FE
:10030000A429E1010130E20015210230DD00DA20EC
:10031000A9290130DD000230DE005E0B902993290F
:100320004030DF009429DF0101305D02DF075F0804
:100330008038E000E1016008E2001521A929E1010F
:100340001030E2001521A9290130E1005C08E2002B
:10035000152108000B08D6008B13831603178C1782
:100360000C140000000083120313D61B8B17031715
:100370000C087F390319FE290313D60003170D0853
:100380000313D70003170F080313D8005608DC0027
:100390007321570803178D000313580803178F00A4
:1003A00003130B08D9008B13831603178C170C1437
:1003B0000000000083120313D91B8B1703170C0DC9
:1003C0000E0D7F390319FE290313D60003170D08FC
:1003D0000313D70003170F080313D8005608DC00D7
:1003E0007321570803178D000313580803178F0054
:1003F0008D0A03198F0A0313AA2903170313080090
:100400000830F8000430F700F70B042A8711BF11F9
:100410003F08831687000330F700F70B0D2A83127D
:10042000D90D0712031C1A2A3F163F0883168700AE
:100430001E2A83123F123F08831687000000831292
:10044000BF153F08831687008312871D252AF80BE6
:10045000022A0430F700F70B2B2A8711BF113F083F
:1004600083168700000083123F163F08831687001B
:100470000330F700F70B3A2A0330F700F70B3E2A58
:100480008312BF153F08831687008312871D462AF3
:10049000F8010330F700F70B4B2A071A781487117D
:1004A000BF113F0883168700831207123F123F08CF
:1004B00083168700831208003F163F0883168700C3
:1004C0000430F700F70B622A8312BF153F0883162A
:1004D00087000330F700F70B6B2A831207123F12D5
:1004E0003F08831687000430F700F70B752A831244
:1004F0008711BF113F0883168700A0308312D900EF
:10050000002278085810781858143F123F088316B4
:10051000870000008312BF153F08831687008312EF
:10052000871D902A0430F700F70B942A972A0000C1
:100530003F163F08831687000430F700F70B9E2A0A
:1005400000308312581C0130F80008005C22F808C3
:100550000319A62A3F163F08831687000430F700C8
:10056000F70BB02A8312BF153F08831687000330AC
:10057000F700F70BB92A831207123F123F088316C0
:1005800087000430F700F70BC32A83128711BF11CD
:100590003F0883168700A0308312D9000022560836
:1005A000D90000223F163F08831687000430F70069
:1005B000F70BD82A8312BF153F0883168700033034
:1005C000F700F70BE12A8312871DE42A07123F1276
:1005D0003F08831687000430F700F70BED2A8312DB
:1005E0008711BF113F0883168700A1308312D900FD
:1005F0000022F7010830D9007708DA003F163F08DB
:10060000831687000330F700F70B042B8312BF1506
:100610003F08831687008312871D0C2B071A0314CB
:10062000071E0310F80D0430F700F70B152BBF1150
:100630003F088316870083128711D90BFE2A3F16C5
:100640003F08831687000330F700F70B252B831232
:1006500007125A080319312B3F123F0883168700EF
:1006600083120000BF153F08831687008312871D81
:10067000372B0430F700F70B3B2B8711BF113F08D6
:10068000831687000330F700F70B442B8312071201
:100690003F123F088316870078088312D7003F1265
:1006A0003F088316870000008312BF153F0883169A
:1006B00087008312871D5A2B0430F700F70B5E2B3F
:1006C000612B00003F163F08831687000430F700B7
:1006D000F70B682B83125708F80008005C22F80813
:1006E00003196E2B3F163F08831687000430F7006E
:1006F000F70B782B8312BF153F0883168700033052
:10070000F700F70B812B831207123F123F08831665
:1007100087000430F700F70B8B2B83128711BF1172
:100720003F0883168700A0308312D90000225408A6
:10073000D90000225508D90000223F123F08831635
:10074000870000008312BF153F08831687008312BD
:10075000871DA82B0430F700F70BAC2BAF2B000044
:100760003F163F08831687000430F700F70BB62BBF
:1007700083120800C6014608D600A6227808FF3C6E
:100780000319E32B4608C700C8014808063C031CB0
:10079000D22B48084707C900D400FF30D5006E238C
:1007A000C80AC52BBA3003178D0000308F00031321
:1007B000AA210230C900FA30DD00DA20C90BDB2B98
:1007C0000730C607BB2B8A110A12392E0B08D70037
:1007D0008B13831603178C170C1400000000831270
:1007E0000313D71B8B1703181D2C03170C087F3915
:1007F0000313D70003170D080313D80003170F08BE
:100800000313D9005708DC007321580803178D0023
:100810000313590803178F0003130B08DA008B1317
:10082000831603178C170C140000000083120313A7
:10083000DA1B8B17D60B1D2C3C2C03170C0D0E0D41
:100840007F390313D70003170D080313D8000317CC
:100850000F080313D9005708DC0073215808031749
:100860008D000313590803178F008D0A03198F0A8F
:1008700003100313D60BE62B08005D08F8015C0299
:100880000318452C5C08F700512CF7010830DE00F6
:10089000DC0DF70D5D0877020318F700F80DDE0B8D
:1008A000482C08002030571E3030D8005608F7007A
:1008B000D61F622CF709F70A7708D6002D30D8002A
:1008C000D71757145608DC006430DD003D24770844
:1008D000D60030307807D9005608DC000A30DD0039
:1008E0003D2430307707DB0030307807DA005808D5
:1008F000F700303059020319812CD714D71B571534
:10090000952C5808D9002030D80030305A020319ED
:100910008D2C5714D71BD714952C031D5714031D6A
:10092000952C5908DA002030D90057199C2CD7187B
:100930009F2C5718A22CA52C5808DC0073215908AD
:10094000DC0073215A08DC0073215B08DC00732192
:100950000800D3015308D600A6227808FF3C0319EB
:10096000B42C0730D307AA2CC23003178D000030F7
:100970008F0003100A300313D600E6235308D60075
:100980001830D70052240430D500FA30DD00DA20C8
:10099000D50BC52C5308F80008004608D300D50134
:1009A0005508D600A6227808FF3C0319FC2C5508F0
:1009B000D600A6227808D40053085402031DF92C4F
:1009C000A83003178D0000308F0003100F30031381
:1009D000D600E6235408D6001830D700522404303D
:1009E000D600FA30DD00DA20D60BF12C5508F800DD
:1009F000052D0730D507D02CB13003178D000030FE
:100A00008F000313AA21FF30F800A9247808CB0037
:100A10004608CC0047088400831348188317000851
:100A2000CD0001304707840083134818831700085E
:100A3000CE0002304707840083134818831700084C
:100A4000CF0003304707840083134818831700083A
:100A5000D0004908D1004A08D2004B08D4004C0805
:100A6000D5006E2301304B07D300D4004D08D500CC
:100A70006E2302304B07D300D4004E08D5006E23FE
:100A800003304B07D300D4004F08D5006E23043049
:100A90004B07D300D4005008D5006E2305304B0718
:100AA000D300D4005108D5006E2306304B07D30085
:100AB000D4005208D5006E23793003178D00003022
:100AC0008F000313AA210230D300FA30DD00DA20B0
:100AD000D30B652D080078084908DC006430DD0080
:100AE0003D247708C90078083030031D7E2DCA1CCC
:100AF000852DCA19852D4A1A2030812DCA114A1216
:100B00004A14F8077808DC0073214908DC000A3031
:100B1000DD003D247708C90078083030031D962D8C
:100B2000CA199A2D4A1C9A2D4A1A2030F8077808BB
:100B3000DC0073213030C9074908DC00732108004C
:100B4000C7014708D600A6227808FF3C0319D72D15
:100B50004708D600A6227808C80046084802031DA8
:100B6000D42DC93003178D0000308F0003100430DE
:100B70000313D600E6234808C9001B30CA006B25C2
:100B8000CC3003178D0000308F00031008300313A2
:100B9000D600E6230430C900FA30DD00DA20C90BA4
:100BA000CC2D0030F800F92D0730C707A12DD1302A
:100BB00003178D0000308F00031004300313D6009C
:100BC000E6234808C9001B30CA006B25D430031740
:100BD0008D0000308F0003100A300313D600E62387
:100BE0000430C900FA30DD00DA20C90BF22DFF30E5
:100BF000F800080003081F398300AE01AF01BD01F2
:100C0000BE01FF30BF0083161F149F141F159F11D4
:100C100007309C0083138312C10183160108C03979
:100C200007388100B5308312900036295230F70022
:100C3000F70B182E1B2E0000683003178D000030B4
:100C40008F000313AA210430C600FA30DD00DA2039
:100C5000C60B252E713003178D0000308F00031353
:100C6000AA213230DD00DA2083168811831288151C
:100C7000BA2BBD010130C2000230C3000330C400F2
:100C80000430C5000C30C600C8014230C700013036
:100C9000C900CA00CD240E30C600C8014230C700CA
:100CA000C9010130CA00CD240530C600C801423058
:100CB000C7000130C900CA00CD240730C600C801F2
:100CC0004230C7000130C900CA01CD24FE30C60041
:100CD000C8014230C7000130C900CA00CD24A92490
:100CE000FE30C600A025C830C600A0253230DD0089
:100CF000DA200430C600FA30DD00DA20C60B7B2E85
:040D0000802E6300DE
:02400E00323F3F
:00000001FF
;PIC16F877A
;CRC=3339  CREATED="16-Nov-21 09:29"
