:1000000006308A006C2E0000FF00030E8301A10061
:100010000A08A0008A010408A2007708A300780853
:10002000A4007908A5007A08A60003170D08031399
:10003000A70003170F080313A80003170C080313E6
:10004000A90003170E080313AA00831383128B1E43
:100050002B280B1952288C308400001C31280C18D6
:100060005528220884002308F7002408F8002508F2
:10007000F9002608FA00270803178D000313280843
:1000800003178F000313290803178C0003132A0892
:1000900003178E00031320088A00210E8300FF0E31
:1000A0007F0E09008A110A12F32C8A110A120C2BF6
:1000B0000A108A100A11820728340F3401340634DA
:1000C0006830840083130008031973280630F80091
:1000D000F701F70B6928F80B68287B30F700F70B5E
:1000E0006F28800B662808000830F8000430F700FD
:1000F000F70B78288711BE113E088316870003305E
:10010000F700F70B81288312E60D0712031C8E28D7
:100110003E163E0883168700922883123E123E0840
:100120008316870000008312BE153E0883168700E1
:100130008312871D9928F80B76280430F700F70BF7
:100140009F288711BE113E08831687000000831286
:100150003E163E08831687000330F700F70BAE28E3
:100160000330F700F70BB2288312BE153E08831642
:1001700087008312871DBA28F8010330F700F70BB8
:10018000BF28071A78148711BE113E08831687000E
:10019000831207123E123E0883168700831208005E
:1001A0003E163E08831687000430F700F70BD6286A
:1001B0008312BE153E08831687000330F700F70B45
:1001C000DF28831207123E123E0883168700043090
:1001D000F700F70BE92883128711BE113E0883163A
:1001E0008700A0308312E600742078086510781824
:1001F00065143E123E088316870000008312BE1568
:100200003E08831687008312871D04290430F700F7
:10021000F70B08290B2900003E163E0883168700BD
:100220000430F700F70B122900308312651C0130EF
:10023000F800F8080319D0283E163E0883168700F8
:100240000430F700F70B22298312BE153E088316EF
:1002500087000330F700F70B2B29831207123E1299
:100260003E08831687000430F700F70B3529831208
:100270008711BE113E0883168700A0308312E60066
:1002800074206308E60074203E163E08831687003B
:100290000430F700F70B4A298312BE153E08831677
:1002A00087000330F700F70B53298312871D562967
:1002B00007123E123E08831687000430F700F70B42
:1002C0005F2983128711BE113E0883168700A13073
:1002D0008312E6007420F7010830E6007708E70093
:1002E0003E163E08831687000330F700F70B762989
:1002F0008312BE153E08831687008312871D7E2950
:10030000071A0314071E0310F80D0430F700F70B4B
:100310008729BE113E088316870083128711E60BDA
:1003200070293E163E08831687000330F700F70B4E
:1003300097298312071267080319A3293E123E0862
:100340008316870083120000BE153E0883168700BF
:100350008312871DA9290430F700F70BAD298711F7
:10036000BE113E08831687000330F700F70BB6294D
:10037000831207123E123E08831687007808831204
:10038000E4003E123E088316870000008312BE156B
:100390003E08831687008312871DCC290430F7009E
:1003A000F70BD029D32900003E163E08831687009C
:1003B0000430F700F70BDA2983126408F80008000C
:1003C0006F18E4290812E52908168316081283120B
:1003D000EF18EC298812ED298816831688128312EB
:1003E0006F19F4290813F5290817831608138312C7
:1003F000EF19FC298813FD298817831688138910A3
:1004000083128914831689108312891008008316B9
:10041000091183120911EC08031D102A0911112A70
:10042000091583160911A630F700F70B152A0000ED
:100430008910831289106D0EEE000F30EE056E08E4
:10044000EF00E0216D080F39EE00EF00E021080019
:1004500067080C3A0319362A063A03193E2A073A66
:1004600003193E2A053A0319542A592AEC0101308E
:10047000ED0007220230E80060205E2A0130E8002B
:100480000230E900690B452A482A4030EA00492A2F
:10049000EA0101306802EA076A088038EB00EC01E3
:1004A0006B08ED0007225E2AEC011030ED000722F8
:1004B0005E2A0130EC006708ED00072208000B08F7
:1004C000E4008B13831603178C170C140000000034
:1004D00083120313E41B8B170318962A03170C08C7
:1004E0007F390313E40003170D080313E500031716
:1004F0000F080313E6006408E700282265080317C5
:100500008D000313660803178F0003130B08E70021
:100510008B13831603178C170C1400000000831232
:100520000313E71B8B17E30B962AB52A03170C0D51
:100530000E0D7F390313E40003170D080313E500C4
:1005400003170F080313E6006408E7002822650874
:1005500003178D000313660803178F008D0A031914
:100560008F0A03100313E30B5F2A08000B08E30054
:100570008B13831603178C170C14000000008312D2
:100580000313E31B8B1703170C087F3903190A2B7E
:100590000313E30003170D080313E40003170F0808
:1005A0000313E5006308E7002822640803178D00A1
:1005B0000313650803178F0003130B08E6008B1362
:1005C000831603178C170C1400000000831203130A
:1005D000E61B8B1703170C0D0E0D7F3903190A2B21
:1005E0000313E30003170D080313E40003170F08B8
:1005F0000313E5006308E7002822640803178D0051
:100600000313650803178F008D0A03198F0A03135C
:10061000B62A031703130800DC30E300E401E50108
:1006200063086402031C172BE308031D2C2CE50848
:10063000031D2C2C831606108312061083168610B9
:1006400083128614831606118312061583168611EB
:10065000831286151430E800602083160814831274
:100660000818392B831608148312081C322B3130DA
:10067000E5008316881483128818452B8316881486
:100680008312881C3E2B3430E50083160815831234
:100690000819512B831608158312081D4A2B373071
:1006A000E50083168815831288195D2B831688153B
:1006B0008312881D562B2A30E500831606108312FC
:1006C0000614831686108312861083160611831271
:1006D000061583168611831286151430E8006020F3
:1006E00083160814831208187C2B831608148312AF
:1006F000081C752B3230E500831688148312881885
:10070000882B831688148312881C812B3530E500D2
:100710008316081583120819942B83160815831263
:10072000081D8D2B3830E500831688158312881933
:10073000A02B831688158312881D992B3030E50075
:1007400083160610831206148316861083128614ED
:1007500083160611831206118316861183128615DD
:100760001430E80060208316081483120818BF2B89
:10077000831608148312081CB82B3330E500831647
:10078000881483128818CB2B831688148312881C34
:10079000C42B3630E5008316081583120819D72BB1
:1007A000831608158312081DD02B3930E5008316F7
:1007B000881583128819E32B831688158312881DE8
:1007C000DC2B2330E50083160610831206148316F3
:1007D000861083128614831606118312061583165B
:1007E0008611831286111430E800602083160814E5
:1007F00083120818022C831608148312081CFB2B82
:100800004130E50083168814831288180E2C831655
:1008100088148312881C072C4230E50083160815C3
:10082000831208191A2C831608158312081D132C1D
:100830004330E5008316881583128819262C831609
:1008400088158312881D1F2C4430E5000530E80010
:1008500060200530E407102BE508031D312CFF3024
:10086000E5006508F8007808E100610F382CE62CF7
:10087000E3016108E4003E163E0883168700043059
:10088000F700F70B412C8312BE153E088316870034
:100890000330F700F70B4A2C831207123E123E0872
:1008A000831687000430F700F70B542C831287114E
:1008B000BE113E0883168700A0308312E600742024
:1008C00078086510781865143E123E088316870074
:1008D00000008312BE153E08831687008312871D11
:1008E0006F2C0430F700F70B732C762C00003E16AB
:1008F0003E08831687000430F700F70B7D2C00308C
:100900008312651C0130F800F80803193B2C3E16D1
:100910003E08831687000430F700F70B8D2C8312F6
:10092000BE153E08831687000330F700F70B962CA0
:10093000831207123E123E08831687000430F70028
:10094000F70BA02C83128711BE113E088316870077
:10095000A0308312E60074206308E6007420640867
:10096000E60074203E123E088316870000008312C2
:10097000BE153E08831687008312871DBD2C0430E8
:10098000F700F70BC12CC42C00003E163E0883165E
:1009900087000430F700F70BCB2C32308312E800CD
:1009A0006020E301D0207808E2003230E8006020C7
:1009B000773003178D0005308F0003100A300313C2
:1009C000E3005F226208E7002822ED2C7E30031747
:1009D0008D0005308F000313B6226108F8000C105B
:1009E0008A110A1231280B118A110A1231280C10AF
:1009F000A034EE34E3346137E4372E172E100000B4
:100A00008C24C62654102D10D332F23461360001E6
:100A10000C21EC37E335DF29693D651DA53A00005F
:100A20008C34641DA53AA53A00008C2AF33A61394A
:100A3000E937A0216132E139743961326F008C24C9
:100A400044106937E3376D38613A693B6536000118
:100A50000D05D4326E3A6510EE37F630ED326E3A4F
:100A600065000C10C23A743A6F373A102532001004
:100A70000D05D03BBA12E412E412E4126410533AAA
:100A8000BA126410253200008C2444104537E33735
:100A90006E3AF230E437BA12F51275000C104922A2
:100AA0002027A022EE316F37743961326F000C10AD
:100AB000D5396539A032F230F332641000008C2051
:100AC0006432F232F3393A10253200008C24441D8E
:100AD000A53A2C10453CE939F43200018C24441D20
:100AE000A53A2C104E10453CE939F43200000C10A8
:100AF000C23A743A6F373A10A53100010C10201039
:100B0000D422432641224F1020000C3AE536F02F24
:100B1000733A613AF5393A10A53A00018C20E4366F
:100B20006937A022EE316F37743961326F00BE151C
:100B30003E088316870083123E163E088316870000
:100B400083128A110A128F2E83160812831208123A
:100B500083168812831288128316081383120813CF
:100B600083168813831288138316091183120911BF
:100B70008316891083128910AB018B1BAB178B1363
:100B80000F30E8006020AB1B8B170130CF004F08FF
:100B9000033C031CDF2DAB018B1BAB178B13033006
:100BA000EF00E021AB1B8B17AB018B1BAB178B133B
:100BB0000530E8006020AB1B8B17CF0AC72DAB01B7
:100BC0008B1BAB178B130230EF00E021AB1B8B1795
:100BD000CF014F08033C031CFC2D4F085820D000C8
:100BE000AB018B1BAB178B13EC015008ED000722F8
:100BF000AB1B8B17CF0AE92D8A110A12902E7808A9
:100C00005408D6006430D7005708F801560203187C
:100C10000C2E5608F700182EF7010830D800D60D14
:100C2000F70D570877020318F700F80DD80B0F2EB1
:100C30007708D40078083030031D252ED51C322EBD
:100C4000D519322E551A2030282ED511551255148B
:100C5000F807AB018B1BAB178B137808E700282232
:100C6000AB1B8B175408D6000A30D7005708F80181
:100C7000560203183E2E5608F7004A2EF701083098
:100C8000D800D60DF70D570877020318F700F80DB6
:100C9000D80B412E7708D40078083030031D562E2B
:100CA000D519602E551C602E551A2030F807AB015F
:100CB0008B1BAB178B137808E7002822AB1B8B1715
:100CC0003030D407AB018B1BAB178B135408E700F4
:100CD0002822AB1B8B17080003081F398300AD01C6
:100CE000AE01BC01BD01FF30BE0083161F149F146E
:100CF0001F159F1107309C0083138312BF01C00191
:100D0000C101C201C301C401C501C90183160108A3
:100D1000C03907388100B53083129000972DA42D7B
:100D20005230F700F70B922E952E0000F730031784
:100D30008D0004308F000313AB018B1BAB178B139B
:100D4000B622AB1B8B170230CF00AB018B1BAB174E
:100D50008B13FA30E8006020AB1B8B17CF0BA52E4E
:100D6000003003178D0005308F000313AB018B1B80
:100D7000AB178B13B622AB1B8B17AB018B1BAB17BF
:100D80008B133230E8006020AB1B8B170730CA0092
:100D9000083003178D0005308F0003100313AB01DB
:100DA0008B1BAB178B130C30E3005F22AB1B8B1735
:100DB0004A08D4001B30D500FF250230CF00AB011C
:100DC0008B1BAB178B13FA30E8006020AB1B8B1723
:100DD000CF0BDF2ECF01D101BF01AB018B1BAB17B6
:100DE0008B134F08E300D020AB1B8B177808FF3C18
:100DF0000319672F06304F07D400AB018B1BAB17CD
:100E00008B135408E300D020AB1B8B177808D0005D
:100E1000853003178D0005308F0003100313AB01DD
:100E20008B1BAB178B130E30E3005F22AB1B8B17B2
:100E30005008D4001B30D500FF250430D400AB018E
:100E40008B1BAB178B13FA30E8006020AB1B8B17A2
:100E5000D40B1F2F5008033C031D642F8E30031743
:100E60008D0005308F000313AB018B1BAB178B1369
:100E7000B622AB1B8B170430D400AB018B1BAB1716
:100E80008B13FA30E8006020AB1B8B17D40B3D2F7F
:100E9000D2015208013C031C642F52084F07D400B2
:100EA000AB018B1BAB178B135408E300D020AB1B9B
:100EB0008B177808D3003F30510784008313530801
:100EC0008000D10AD20A492F0730CF07ED2E3F30DC
:100ED000F8000030F9007908CC007808CB00CE018A
:100EE000CD01CE08031DBB2F4D08013C031CBB2FB9
:100EF0004B084D07840083134C1883170008CF005C
:100F000001304D07D0004E08D1000318D10A4B081C
:100F10005007840083134C1883170008D200103048
:100F200003178D0005308F0003100313AB018B1BDB
:100F3000AB178B130430E3005F22AB1B8B174F08FA
:100F4000D4001B30D500FF255208D4001B30D5003B
:100F5000FF250430CF00AB018B1BAB178B13FA308E
:100F6000E8006020AB1B8B17CF0BAB2F0230CD07F7
:100F70000318CE0A712FAB018B1BAB178B133230CA
:100F8000E8006020AB1B8B170430CF00AB018B1B3C
:100F9000AB178B13FA30E8006020AB1B8B17CF0B1D
:060FA000C62FD12F6300F3
:02400E00323F3F
:00000001FF
;PIC16F877A
;CRC=B20F  CREATED="17-Nov-21 19:46"
