:1000000006308A00002E0000FF00030E8301A100CD
:100010000A08A0008A010408A2007708A300780853
:10002000A4007908A5007A08A60003170D08031399
:10003000A70003170F080313A80003170C080313E6
:10004000A90003170E080313AA00831383128B1E43
:100050002B280B1952288C308400001C31280C18D6
:100060005528220884002308F7002408F8002508F2
:10007000F9002608FA00270803178D000313280843
:1000800003178F000313290803178C0003132A0892
:1000900003178E00031320088A00210E8300FF0E31
:1000A0007F0E09008A110A1264288A110A12602838
:1000B0000A108A100A11820728340F3401340634DA
:1000C0000C108A110A1231280B118A110A123128D8
:1000D0000C10A034EE34E3346137E4372E172E10C1
:1000E00000008C24C62654102D10D332F234613611
:1000F00000010C1041326439E53973104922A01E09
:10010000A01264000C10C23A743A6F373A102532CC
:1001100000010D05D03BBA12E412E412E41264109F
:10012000533ABA126410253200008C24441045372B
:10013000E3376E3AF230E437BA1264000C10492209
:100140002027A022EE316F37743961326F000C1016
:10015000D5396539A032F230F332641000010C2237
:1001600061326F1DA01264008A062037653CF42FAF
:100170006236EF316B1DA01264000C37653CF42F22
:100180006236EF316B1DA01264000C10D539653951
:10019000A032F230F332641000005C30840083132C
:1001A00000080319E0280630F800F701F70BD628FD
:1001B000F80BD5287B30F700F70BDC28800BD32811
:1001C00008006318E5280812E628081683160812A6
:1001D0008312E318ED288812EE28881683168812F9
:1001E00083126319F5280813F628081783160813D5
:1001F0008312E319FD288813FE28881783168813B5
:1002000089108312891483168910831289100800BB
:100210008316091183120911E008031D1129091120
:100220001229091583160911A630F700F70B1629B4
:100230000000891083128910610EE2000F30E20580
:100240006208E300E12061080F39E200E300E120E9
:10025000080083160812831208128316881283126C
:1002600088128316081383120813831688138312C7
:1002700088138316091183120911831689108312BA
:1002800089100F30DC00CD200130D0005008033C35
:10029000031C52290330E300E1200530DC00CD20AF
:1002A000D00A46290230E300E120D0015008033C87
:1002B000031C632950085820D100E0015108E100D7
:1002C0000821D00A56298A110A12192E5B080C3A05
:1002D00003197429063A03197C29073A03197C2962
:1002E000053A031992299729E0010130E10008211C
:1002F0000230DC00CD209C290130DC000230DD0022
:100300005D0B832986294030DE008729DE0101301C
:100310005C02DE075E088038DF00E0015F08E10074
:1003200008219C29E0011030E10008219C290130BE
:10033000E0005B08E100082108000B08D5008B13E2
:10034000831603178C170C1400000000831203138C
:10035000D51B8B1703170C087F390319F1290313D9
:10036000D50003170D080313D60003170F08031356
:10037000D7005508DB006621560803178D000313CC
:10038000570803178F0003130B08D8008B1383162D
:1003900003178C170C140000000083120313D81BE2
:1003A0008B1703170C0D0E0D7F390319F129031359
:1003B000D50003170D080313D60003170F08031306
:1003C000D7005508DB006621560803178D0003137C
:1003D000570803178F008D0A03198F0A03139D29ED
:1003E0000317031308000830F8000430F700F70B78
:1003F000F7298711CD114D08831687000330F700C8
:10040000F70B002A8312DB0D0712031C0D2A4D1671
:100410004D0883168700112A83124D124D0883164A
:10042000870000008312CD154D08831687008312C4
:10043000871D182AF80BF5290430F700F70B1E2A40
:100440008711CD114D0883168700000083124D16C9
:100450004D08831687000330F700F70B2D2A033071
:10046000F700F70B312A8312CD154D08831687004C
:100470008312871D392AF8010330F700F70B3E2A53
:10048000071A78148711CD114D088316870083123F
:1004900007124D124D0883168700831208004D166F
:1004A0004D08831687000430F700F70B552A831296
:1004B000CD154D08831687000330F700F70B5E2A31
:1004C000831207124D124D08831687000430F7007F
:1004D000F70B682A83128711CD114D088316870008
:1004E000A0308312DB00F32178085A1078185A14D0
:1004F0004D124D088316870000008312CD154D085C
:10050000831687008312871D832A0430F700F70BB8
:10051000872A8A2A00004D164D088316870004306A
:10052000F700F70B912A003083125A1C0130F800B3
:1005300008004F22F8080319992A4D164D08831612
:1005400087000430F700F70BA32A8312CD154D085E
:10055000831687000330F700F70BAC2A83120712CB
:100560004D124D08831687000430F700F70BB62AAA
:1005700083128711CD114D0883168700A030831296
:10058000DB00F3215808DB00F3215908DB00F321DD
:100590004D124D088316870000008312CD154D08BB
:1005A000831687008312871DD32A0430F700F70BC8
:1005B000D72ADA2A00004D164D088316870004302A
:1005C000F700F70BE12A831208000530B30006306C
:1005D000B400B5000730B600B7000130B800B9006C
:1005E0003308BF003408C0003508C1003608C20017
:1005F0003708C3003808C4003908C500D8013F08CF
:10060000D90099220130D8004008D900992202303F
:10061000D8004108D90099220330D8004208D900F7
:1006200099220430D8004308D90099220530D80017
:100630004408D90099220630D8004508D9009922EB
:100640000630B3000130B4000230B5000330B6000C
:100650000430B7000130B800B9003308BF003408D7
:10066000C0003508C1003608C2003708C30038088A
:10067000C4003908C5000730D8003F08D9009922C6
:100680000830D8004008D90099220930D800410824
:10069000D90099220A30D8004208D90099220B309B
:1006A000D8004308D90099220C30D8004408D9005A
:1006B00099220D30D8004508D90099220730B3009F
:1006C0000630B4000530B5000430B6000330B70082
:1006D0000230B8000130B9003308BF003408C00050
:1006E0003508C1003608C2003708C3003808C40006
:1006F0003908C5000E30D8003F08D90099220F30C4
:10070000D8004008D90099221030D8004108D900FB
:1007100099221130D8004208D90099221230D8000D
:100720004308D90099221330D8004408D9009922EF
:100730001430D8004508D90099228A110A123D2E9A
:100740004F22F8080319A02B4D164D088316870079
:100750000430F700F70BAA2B8312CD154D08831632
:1007600087000330F700F70BB32B831207124D12EB
:100770004D08831687000430F700F70BBD2B83125A
:100780008711CD114D0883168700A0308312DB003E
:10079000F3215608DB00F3214D164D088316870020
:1007A0000430F700F70BD22B8312CD154D088316BA
:1007B00087000330F700F70BDB2B8312871DDE2B3E
:1007C00007124D124D08831687000430F700F70B0F
:1007D000E72B83128711CD114D0883168700A130B6
:1007E0008312DB00F321F7010830D9007708DA0023
:1007F0004D164D08831687000330F700F70BFE2BCC
:100800008312CD154D08831687008312871D062C91
:10081000071A0314071E0310F80D0430F700F70B36
:100820000F2CCD114D088316870083128711D90B29
:10083000F82B4D164D08831687000330F700F70B91
:100840001F2C831207125A0803192B2C4D124D0826
:100850008316870083120000CD154D08831687008C
:100860008312871D312C0430F700F70B352C8711CC
:10087000CD114D08831687000330F700F70B3E2C8F
:10088000831207124D124D088316870078088312D1
:10089000D7004D124D088316870000008312CD1536
:1008A0004D08831687008312871D542C0430F700EF
:1008B000F70B582C5B2C00004D164D088316870053
:1008C0000430F700F70B622C83125708F800080079
:1008D0000B08D6008B13831603178C170C1400001B
:1008E000000083120313D61B8B1703189F2C0317CA
:1008F0000C087F390313D60003170D080313D70024
:1009000003170F080313D8005608DB0066215708A9
:1009100003178D000313580803178F0003130B08E8
:10092000D9008B13831603178C170C1400000000DA
:1009300083120313D91B8B17D50B9F2CBE2C0317C7
:100940000C0D0E0D7F390313D60003170D0803138A
:10095000D70003170F080313D8005608DB006621E1
:10096000570803178D000313580803178F008D0ACB
:1009700003198F0A03100313D50B682C08005C08B9
:10098000F8015B020318C72C5B08F700D32CF701B2
:100990000830DD00DB0DF70D5C0877020318F70067
:1009A000F80DDD0BCA2C08002030561E3030D70061
:1009B0005508F700D51FE42CF709F70A7708D5008A
:1009C0002D30D700D61756145508DB006430DC00F4
:1009D000BF247708D50030307807D8005508DB00F1
:1009E0000A30DC00BF2430307707DA003030780777
:1009F000D9005708F700303058020319032DD614D8
:100A0000D61B5615172D5708D8002030D700303088
:100A1000590203190F2D5614D61BD614172D031D7A
:100A20005614031D172D5808D9002030D800561928
:100A30001E2DD618212D5618242D272D5708DB00E2
:100A400066215808DB0066215908DB0066215A0838
:100A5000DB0066210800D2015208D600A0237808E6
:100A6000FF3C0319582D5208D600A0237808D10066
:100A700050085102031D552D953003178D0000308D
:100A80008F0003100F300313D50068245108D500E0
:100A90001830D600D4240430D300FA30DC00CD2046
:100AA000D30B4D2D5208F800612D0730D2072C2DA5
:100AB0009E3003178D0000308F0003139D21FF30FF
:100AC000F8008A110A12402ED6015608063C031C73
:100AD000722D56085507D700D800FF30D90099224B
:100AE000D60A652D08005008D20007305007D30001
:100AF0005308D600A0237808FF3C031D932D52080D
:100B0000D5006425A73003178D0000308F00031334
:100B10009D210830D500FA30DC00CD20D50B8B2D7F
:100B20000130F800FD2D5308D600A0237808FF3CC3
:100B30000319D22DD4015408063C031CCD2D5408B2
:100B40005307D500D600A0237808D100AF30031793
:100B50008D0000308F00031007300313D500682488
:100B60005108D5001830D600D424B43003178D00B6
:100B700000308F0003100F300313D5006824530892
:100B8000D5001830D600D42454085207D500D80018
:100B90005108D9009922D40A9B2D5308D20007305E
:100BA000D307932D0730D302BD3003178D000030DB
:100BB0008F0003100D300313D50068245308D500AF
:100BC0001830D600D4240430D500FA30DC00CD2013
:100BD000D50BE52D5308D5006425C53003178D00CE
:100BE00000308F0003139D210830D500FA30DC005F
:100BF000CD20D50BF62D0130F8008A110A12542EA3
:100C000003081F398300AE01AF01BD01BE01FF30F3
:100C1000CD0083161F149F141F159F1107309C00D1
:100C200083130108C03907388100B5308312900062
:100C300029295230F700F70B1B2E1E2E00006830BA
:100C400003178D0000308F0003139D210430D00066
:100C5000FA30DC00CD20D00B282E713003178D0028
:100C600000308F0003139D213230DC00CD2083162D
:100C7000881183128815BD01E52A0630D0002B2D7E
:100C80007808AD00793003178D0000308F00031015
:100C90000F300313D50068242D08D5001830D60076
:100CA000D4242D08D000732D3230DC00CD20043048
:100CB000D000FA30DC00CD20D00B592E5E2E630020
:02400E00323F3F
:00000001FF
;PIC16F877A
;CRC=CB62  CREATED="15-nov-21 19:37"
