:100000000D308A00E42D0000FF00030E8301A100E3
:100010000A08A0008A010408A2007708A300780853
:10002000A4007908A5007A08A60003170D08031399
:10003000A70003170F080313A80003170C080313E6
:10004000A90003170E080313AA00831383128B1E43
:100050002B280B1952288C308400001C31280C18D6
:100060005528220884002308F7002408F8002508F2
:10007000F9002608FA00270803178D000313280843
:1000800003178F000313290803178C0003132A0892
:1000900003178E00031320088A00210E8300FF0E31
:1000A0007F0E09008A110A123A298A110A1236298A
:1000B0000A108A100A11820728340F3401340634DA
:1000C0000D0569325B185D1DA53A00008C2AF33AD4
:1000D0006139E937A0216132E139743961326F0049
:1000E0008C2444106937E3376D38613A693B6536D3
:1000F00000010D05D4326E3A6510EE37F630ED3260
:100100006E3A65000C10C23A743A6F373A102532D5
:1001100000100D05D03BBA12E412E412E412641090
:10012000533ABA126410253200008C24441045372B
:10013000E3376E3AF230E437BA12F51275000C105C
:1001400049222027A022EE316F37743961326F00C7
:100150000C10D5396539A032F230F332641000004A
:100160008C206432F232F3393A10253200008C24AC
:10017000441DA53A2C10453CE939F43200018C2489
:10018000441DA53A2C104E10453CE939F4320000CC
:100190000C104F38F4346F373A10A53100010C229F
:1001A000E933693A65106F10492200010C2A793849
:1001B0006532A024441DA53100018C34641DA012B9
:1001C000F51275000C22E933693A65106110F332BB
:1001D0006E3461000C2A793865322028E139731DAC
:1001E000A53100010C28C1295314B4143A10A53AC2
:1001F000A53AA53AA53A00018C29F430F43A7314D3
:1002000030163116B3143A000C2A79386532A02919
:10021000F430F43A731DA53100018C29D420D42A7E
:10022000531DA01275000C102010D4224326412229
:100230004F1020008C20E4366937A022EE316F3752
:10024000743961326F000C106132ED34EE395B1895
:100250005D1DA01264008C34643FBA12F512750063
:100260000C286139F334EE33BA1273000C108A1182
:100270000A1231280B118A110A1231280C10A034ED
:10028000EE34E3346137E4372E172E100000BD152D
:100290003D088316870083123D163D0883168700AC
:1002A00083128A150A12112EB130840083130008BC
:1002B000031967290630F800F701F70B5D29F80BE1
:1002C0005C297B30F700F70B6329800B5A29080063
:1002D000831638186F298312081271298316831226
:1002E000081683160812B8187929831288127B29F8
:1002F000831683128816831688123819832983126D
:100300000813852983168312081783160813B81952
:100310008D29831288138F298316831288178316D9
:100320008813891083128914831689108312891007
:10033000080083160911831209118316B508031DDD
:10034000A52983120911A72983168312091583167B
:100350000911A630F700F70BAB29000089108312B2
:1003600089108316360EB7000F30B7053708B8006E
:1003700083126821831636080F39B700B80083123C
:100380006821080083160812831208128316881247
:100390008312881283160813831208138316881396
:1003A0008312881383160911831209118316891089
:1003B000831289100F308316B1008312542101304B
:1003C000D5005508033C031CF12903308316B800FF
:1003D0008312682105308316B10083125421D50A97
:1003E000E12902308316B80083126821D50155082F
:1003F000033C031C082A55085820D6008316B50173
:10040000831256088316B60083129921D50AF7295C
:100410008A150A121A2E831630080C3A8312031911
:100420001B2A063A0319272A073A0319272A053AED
:1004300003193F2A462A8316B5010130B6008312FC
:10044000992102308316B100831254214D2A0130C4
:100450008316B1000230B200320B2F2A322A40300C
:10046000B300332AB30101303102B30733088038B7
:10047000B400B5013408B600831299214D2A8316C1
:10048000B5011030B600831299214D2A0130831630
:10049000B5003008B6008312992108000B088316B6
:1004A000AC0083128B13831603178C170C140000F7
:1004B00000000313AC1F5F2A83128B17831683126D
:1004C00003170C087F390319C02A83160313AC00E5
:1004D000831203170D0883160313AD00831203174D
:1004E0000F0883160313AE002C08B00083120B22F2
:1004F00083162D08831203178D00831603132E080D
:10050000831203178F0003130B088316AF008312A7
:100510008B13831603178C170C14000000000313B1
:10052000AF1F952A83128B178316831203170C0DA6
:100530000E0D7F390319C02A83160313AC008312F2
:1005400003170D0883160313AD00831203170F085A
:1005500083160313AE002C08B00083120B228316FF
:100560002D08831203178D00831603132E088312A0
:1005700003178F008D0A03198F0A03134E2A0317DE
:10058000031308000830F8000430F700F70BC62A00
:100590008711BD113D08831687000330F700F70B64
:1005A000CF2AB00D83120712031CDC2A3D163D082A
:1005B00083168700E02A83123D123D0883168700C8
:1005C00000008312BD153D08831687008312871D26
:1005D000E72AF80BC42A0430F700F70BED2A87113D
:1005E000BD113D0883168700000083123D163D08AB
:1005F000831687000330F700F70BFC2A0330F7005F
:10060000F70B002B8312BD153D088316870083125C
:10061000871D082BF8010330F700F70B0D2B071A85
:1006200078148711BD113D088316870083120712C5
:100630003D123D0883168700831208003D163D08D1
:10064000831687000430F700F70B242B8312BD15A7
:100650003D08831687000330F700F70B2D2B83121C
:1006600007123D123D08831687000430F700F70B90
:10067000372B83128711BD113D0883168700A030E8
:10068000B0008312C222780883162F1078182F1416
:1006900083123D123D088316870000008312BD15AA
:1006A0003D08831687008312871D542B0430F70002
:1006B000F70B582B5B2B00003D163D088316870077
:1006C0000430F700F70B622B00302F1C0130F800CC
:1006D000831208001E23F80803196A2B3D163D08F3
:1006E000831687000430F700F70B742B8312BD15B7
:1006F0003D08831687000330F700F70B7D2B83122C
:1007000007123D123D08831687000430F700F70BEF
:10071000872B83128711BD113D0883168700A030F7
:10072000B0008312C22283162D08B0008312C222A9
:100730003D163D08831687000430F700F70B9E2B0B
:100740008312BD153D08831687000330F700F70BB1
:10075000A72B8312871DAA2B07123D123D08831673
:1007600087000430F700F70BB32B83128711BD11FC
:100770003D0883168700A130B0008312C222F70122
:1007800008308316B0007708B10083123D163D088B
:10079000831687000330F700F70BCC2B8312BD15AF
:1007A0003D08831687008312871DD42B071A031474
:1007B000071E0310F80D0430F700F70BDD2BBD11F9
:1007C0003D0883168700831287118316B00BC52B53
:1007D00083123D163D08831687000330F700F70BA0
:1007E000EF2B83120712831631080319FC2B831297
:1007F0003D123D088316870000008312BD153D0899
:10080000831687008312871D032C0430F700F70B33
:10081000072C8711BD113D08831687000330F700B0
:10082000F70B102C831207123D123D088316870028
:100830007808AE0083123D123D0883168700000041
:100840008312BD153D08831687008312871D262C51
:100850000430F700F70B2A2C2D2C00003D163D0824
:10086000831687000430F700F70B342C2E08F800AD
:10087000831208001E23F80803193A2C3D163D0880
:10088000831687000430F700F70B442C8312BD1544
:100890003D08831687000330F700F70B4D2C8312B9
:1008A00007123D123D08831687000430F700F70B4E
:1008B000572C83128711BD113D0883168700A03085
:1008C000B0008312C22283162808B0008312C2220D
:1008D00083162908B0008312C2223D123D088316F8
:1008E000870000008312BD153D0883168700831220
:1008F000871D782C0430F700F70B7C2C7F2C000030
:100900003D163D08831687000430F700F70B862C50
:1009100083120800D50155088316AD0083126A239F
:100920007808FF3C0319B92C5508D600D7015708A1
:10093000063C031CA62C57085607D8008316A800AF
:10094000FF30A90083123A24D70A972CA830031746
:100950008D0000308F0003134E220230D800FA3091
:100960008316B10083125421D80BAF2C0730D50762
:100970008B2C8A150A12372EDC30F400F501F601B3
:1009800074087502031CC72CF408031DE62DF60835
:10099000031DE62D8316061083120610831686109B
:1009A0008312861483160611831206158316861188
:1009B0008312861514308316B100831254218316D6
:1009C000081483120818EB2C831608148312081CD1
:1009D000E42C3130F6008316881483128818F72C23
:1009E000831688148312881CF02C3430F60083168A
:1009F000081583120819032D831608158312081D84
:100A0000FC2C3730F60083168815831288190F2DB9
:100A1000831688158312881D082D2A30F600831648
:100A2000061083120614831686108312861083160E
:100A3000061183120615831686118312861514304B
:100A40008316B100831254218316081483120818E8
:100A5000302D831608148312081C292D3230F6001D
:100A600083168814831288183C2D831688148312E9
:100A7000881C352D3530F6008316081583120819A9
:100A8000482D831608158312081D412D3830F600B5
:100A90008316881583128819542D8316881583129E
:100AA000881D4D2D3030F600831606108312061473
:100AB000831686108312861483160611831206117C
:100AC000831686118312861514308316B1008312A3
:100AD00054218316081483120818752D83160814E0
:100AE0008312081C6E2D3330F6008316881483128F
:100AF0008818812D831688148312881C7A2D36302D
:100B0000F60083160815831208198D2D8316081513
:100B10008312081D862D3930F6008316881583123E
:100B20008819992D831688158312881D922D2330DC
:100B3000F60083160610831206148316861083129D
:100B400086148316061183120615831686118312E6
:100B5000861114308316B1008312542183160814B1
:100B600083120818BA2D831608148312081CB32D9B
:100B70004130F6008316881483128818C62D831618
:100B800088148312881CBF2D4230F6008316081586
:100B900083120819D22D831608158312081DCB2D38
:100BA0004330F6008316881583128819DE2D8316CC
:100BB00088158312881DD72D4430F6000530831622
:100BC000B100831254210530F507C02CF608031D2F
:100BD000EB2DFF30F6007608F8007808F200720F6F
:100BE000F22DF32DFA2D133003178D0001308F00F5
:100BF00003134E227208F80008000B088316AD009C
:100C000083128B13831603178C170C14000000003B
:100C10000313AD1F0E2E83128B1783160318472E56
:100C2000831203170C087F3983160313AD00831258
:100C300003170D0883160313AE00831203170F0862
:100C400083160313AF002D08B00083120B22831606
:100C50002E08831203178D00831603132F088312A7
:100C600003178F0003130B088316B00083128B1336
:100C7000831603178C170C14000000000313B01F19
:100C8000442E83128B178316AC0B472E752E8312BE
:100C900003170C0D0E0D7F3983160313AD0083125D
:100CA00003170D0883160313AE00831203170F08F2
:100CB00083160313AF002D08B00083120B22831696
:100CC0002E08831203178D00831603132F08831237
:100CD00003178F008D0A03198F0A0310831603135D
:100CE000AC0B732E752E8312FD2D83120800831614
:100CF0005608D9005508DB005408DA00D808031D4F
:100D0000852E5708003C03189D2E5B08FA005A08F0
:100D1000840083137A18831759080002031D952E47
:100D20005A08F8005B08F900A02EDA0A0319DB0A5A
:100D300057080319D803D7037E2E0030F800F900B6
:100D4000831208007308F5007208F40030300317AE
:100D50008D0001308F000310093083160313AC009F
:100D60008312FD2574088400831375188317800887
:100D70000319D32E8316A2010408A1002210831B9D
:100D800022140008B00083120B228316210884006D
:100D9000831322188317840A031DD12E8312850A18
:100DA00083168312B72E04308316A000FA30B100E8
:100DB000831254218316A00BD62EF6017508A200CB
:100DC0007408A100A4017B30A3000A30A5008A1595
:100DD000831200208A117908FE007808FD007B0844
:100DE0007402031DF72E7C08750203198D2F0A303B
:100DF0008316B00083120B22103084007E08831605
:100E0000A2007D08A100A9010408A8002910831BE5
:100E10002914220EF038A400A407E23EA500323EB9
:100E2000A70022080F39A507A507A707E93EA600D6
:100E3000A607A607210E0F39A607A707A60DA70D1F
:100E4000A709A70D21080F39A707A40D0730A30094
:100E50000A30A707A603031C292FA607A503031C16
:100E60002D2FA507A403031C312FA407A303031CE4
:100E7000352FA330840083130730280528138407F7
:100E8000A7300402031928170008F700031D502F8C
:100E9000281B502F281A642FA819502F2030532FA9
:100EA000A81528123030F707A2010408A10022106B
:100EB000831B22147708B00083120B2283162108AB
:100EC0008400831322188317840A281F402F0430BC
:100ED000A000AF30B100831254218316A00B692FFC
:100EE0007C08F5007B08F4004B3076078400831300
:100EF0007D088000F60A7508A2007408A100A4010C
:100F00007B30A3000A30A5008A15831200208A11C5
:100F10007908FE007808FD00EF2E4B30F800003015
:100F2000F900080083163008F8012F0203189B2FE0
:100F30002F08F700A72FF7010830B100AF0DF70D0C
:100F4000300877020318F700F80DB10B9E2F8312BB
:100F50000800780883162C08AF006430B0008312B4
:100F6000922777088316AC0078083030031DBF2F16
:100F7000AD1CC82FAD19C82F2D1A2030C22FAD11AE
:100F80002D122D14F8077808B00083120B22831657
:100F90002C08AF000A30B00083129227770883161E
:100FA000AC0078083030031DDB2FAD19E12F2D1C6C
:100FB000E12F2D1A2030F8077808B00083120B2299
:100FC00083163030AC072C08B00083120B220800C7
:100FD000720884008313731883177408800001302B
:100FE0007207840083137318831780017208F80056
:060FF0007308F90008007F
:101000008316AD01AC013030AF003130B00032306A
:10101000B1003330B2003430B3003530B400363074
:10102000B5003730B6003830B7003930B80061301D
:10103000B9006230BA006330BB006430BC00653078
:10104000BD006630BE006730BF006830C000693048
:10105000C1006A30C2006B30C3006C30C4006D3018
:10106000C5006E30C6006F30C7007030C8007130E8
:10107000C9007330CA007430CB007530CC007630B4
:10108000CD007730CE007830CF007930D0007A3084
:10109000D100D2012208A7002108A6002708FA00E3
:1010A0002608840083137A1883170008203C031D48
:1010B0005D28A60A0319A70A4E282708FA00260861
:1010C000840083132718831700082D3C0319732805
:1010D0002708FA00260884008313271883170008BE
:1010E0002B3C031D7F282708FA002608A60A0319AF
:1010F000A70A840083137A188317000880282B30EE
:10110000AE002E082D3C03199028A51B9028250B16
:101110008A289028A51B92282508243C0318922889
:10112000EC292829A5080319ED282508103C031DE2
:10113000BC282708FA002608840083137A1883172E
:101140000008303C031DBC280130260784008313AF
:10115000271883170008783C0319B82801302607A0
:1011600084008313271883170008583C031DBC28EC
:101170000230A6070318A70A2508083C031DCF283C
:101180002708FA002608840083137A1883170008BA
:10119000303C031DCF280130A6070318A70A2508F5
:1011A000023C031DEC282708FA002608840083135C
:1011B0007A1883170008303C031DEC2801302607FD
:1011C00084008313271883170008623C031DEC2852
:1011D0000230A6070318A70A28292708FA002608BC
:1011E000840083137A1883170008303C0319FB2806
:1011F0000A30A50028290130260784008313271808
:1012000083170008783C03190F2901302607840052
:101210008313271883170008583C031D1629103024
:10122000A5000230A6070318A70A282901302607BF
:1012300084008313271883170008623C031D2629A6
:101240000230A500A6070318A70A28290830A50020
:101250002708A9002608A8002708FA002608840005
:1012600083137A1883170008303C031D3B29A60A14
:101270000319A70A2C292708FA00260884008313DB
:10128000271883170008D300403C03184E29530841
:101290005A3C031C4E29530820384F295308D300C9
:1012A000D501AF30D4005308D600D8012508D700A7
:1012B0008A11831277268A1579088316AB0078087D
:1012C000AA00AA08031D6729AB080319E429FA013B
:1012D0002508F700F71BFA03D3007A08D4002D087D
:1012E000D6002C08D5005408D8005308D70056085B
:1012F00058068039DA00D61F8229D509D609D50AC1
:101300000319D60AD81F8929D709D809D70A03197A
:10131000D80A1030D900F701FA01D60CD50C031CFD
:1013200097295708F7070318FA0A5808FA07FA0C1A
:10133000F70CF90CF80CD90B8D29DA1FA429F80940
:10134000F909F80A0319F90A7908D4007808D300D2
:10135000AF302A02F7002B08FA000030031C0130DE
:10136000FA0277085307AC005408AD007A08031856
:101370007A0FAD07A60A0319A70A2708FA0026085C
:1013800084008313271883170008D300403C0318F8
:10139000D02953085A3C031CD02953082038D1299E
:1013A0005308D300D501AF30D4005308D600D8017C
:1013B0002508D7008A11831277268A1579088316A3
:1013C000AB007808AA00612926082802031DFF291E
:1013D00027082902031DFF29230824040319FB29D8
:1013E00023088400831324188317840A22088000AA
:1013F0008403210880000030F800F900122A230835
:10140000240403190E2A2308840083132418831745
:10141000840A270880008403260880002C08F8002E
:101420002D08F900831208008A11BC248A15780857
:10143000E300C83003178D0000308F0003100A301E
:1014400083160313AC008A118312FD258A156308E5
:101450008316B0008A1183120B228A150230F20023
:10146000FA308316B1008A11831254218A15F20BC7
:10147000302A6308313A0319472A333A0319DA2D1F
:10148000013A0319DB2D073A0319DC2DDD2DED019F
:101490006D08043C031C972ACF3003178D000030E1
:1014A0008F008A1103134E228A1532308316B10041
:1014B0008A11831254218A158A11BC248A1578084E
:1014C000E300D63003178D0000308F0003100A3080
:1014D00083160313AC008A118312FD258A15630855
:1014E0008316B0008A1183120B228A150230F20093
:1014F000FA308316B1008A11831254218A15F20B37
:10150000782A630F842A962A6D08023C031D8F2ACD
:1015100055306D078400831320308000ED0A55306C
:101520006D078400831363088000ED0A482AF301E5
:101530005530F2008A11A2268A157908EB00780846
:10154000EA006A08840083136B1883170008F2000E
:1015500001306A07840083136B1883170008F300B7
:10156000DD3003178D0000308F0003100530831627
:101570000313AC008A118312FD258A1572088316A5
:10158000AC001B30AD008A118312A9278A1573089D
:101590008316AC001B30AD008A118312A9278A156F
:1015A0000430F200FA308316B1008A1183125421FC
:1015B0008A15F20BD22AED016D08033C031C402B67
:1015C000E23003178D0000308F008A1103134E2282
:1015D0008A1532308316B1008A11831254218A157C
:1015E0008A11BC248A157808E300EA3003178D00BD
:1015F00000308F0003100C3083160313AC008A11E7
:101600008312FD258A1563088316B0008A118312A0
:101610000B228A150230F200FA308316B1008A11CB
:10162000831254218A15F20B0C2B630F182B3F2BBE
:10163000F3016E30F2006308F4008A11E8278A157E
:10164000F3016E30F2008A11A2268A157908E500AE
:101650007808E40066306D07F200F3010318F30A1E
:10166000640884008313651883170008F400720867
:10167000840083137318831774088000ED0ADC2A32
:10168000F23003178D0000308F0003100A308316EC
:101690000313AC008A118312FD258A156608831690
:1016A000AC001B30AD008A118312A9278A15670888
:1016B0008316AC001B30AD008A118312A9278A154E
:1016C00068088316AC001B30AD008A118312A9276D
:1016D0008A1569088316AC001B30AD008A1183128D
:1016E000A9278A150430F200FA308316B1008A1156
:1016F000831254218A15F20B742BED01ED08031DA2
:10170000D42BFC3003178D0000308F008A11031397
:101710004E228A1532308316B1008A118312542169
:101720008A158A11BC248A157808E300043003174F
:101730008D0001308F0003100E3083160313AC00B0
:101740008A118312FD258A1563088316B0008A1159
:1017500083120B228A150230F200FA308316B10090
:101760008A11831254218A15F20BAD2B630FB92B0A
:10177000D32BF3017030F2006308F4008A11E827DC
:101780008A15F3017030F2008A11A2268A157908B1
:10179000E5007808E4006408840083136518831763
:1017A0000008EC00ED0A7E2B0D3003178D00013090
:1017B0008F000310093083160313AC008A118312C3
:1017C000FD258A156C088316AC001B30AD008A110C
:1017D0008312A9278A150430F200FA308316B1006B
:1017E0008A11831254218A15F20BED2B6B08F3003A
:1017F0006A08F200F5016630F4006C08F600720821
:1018000084008313731883170008FC0060300317EB
:101810008D0000308F000310083083160313AC00D6
:101820008A118312FD258A157C088316AC001B30B3
:10183000AD008A118312A9278A150430FC00FA3002
:101840008316B1008A11831254218A15FC0B1F2CB8
:1018500072088400831373188317013072078400A1
:1018600083137318831773088316A8007208A700E0
:10187000AB012B08AD008A1183126A238A15780800
:10188000FF3C03199F2C83162B08AD008A1183128D
:101890006A238A1578088316A90001302B07AC004B
:1018A000AD008A1183126A238A1578088316AA006C
:1018B0002708840083132818831700082902031DB2
:1018C0009B2C0130270784008313281883170008F6
:1018D0002A02031D9B2C9530831203178D000030C4
:1018E0008F0003100F3083160313AC008A1183128C
:1018F000FD258A1583162908AC001B30AD008A111E
:101900008312A9278A1583162A08AC001B30AD0064
:101910008A118312A9278A1504308316AC00FA3085
:10192000B1008A11831254218A158316AC0B8F2CB7
:101930002B08F800AB2C0730AB07392C83129F30F3
:1019400003178D0000308F008A1103134E228A1571
:10195000FF30F8008316A7012708AD008A11831213
:101960006A238A157808FF3C0319BB2C07308316BD
:10197000A707AC2C8312B03003178D0000308F0006
:1019800003100A3083160313AC008A118312FD255D
:101990008A1583162708A9001830AA0020302A1EAD
:1019A0003030AB002908F700A91FDE2CF709F70A31
:1019B0007708A9002D30AB00AA172A142908AF0018
:1019C0006430B0008A11831292278A157708831633
:1019D000A90030307807AC002908AF000A30B00009
:1019E0008A11831292278A15303077078316AE004A
:1019F00030307807AD002B08F70030302C02031987
:101A0000052DAA14AA1B2A15192D2B08AC0020306D
:101A1000AB0030302D020319112D2A14AA1BAA1471
:101A2000192D031D2A14031D192D2C08AD0020307B
:101A3000AC002A19202DAA18272D2A182E2D352D55
:101A40002B08B0008A1183120B228A1583162C08EA
:101A5000B0008A1183120B228A1583162D08B0005C
:101A60008A1183120B228A1583162E08B0008A1160
:101A700083120B228A1504308316A900FA30B100B4
:101A80008A11831254218A158316A90B3E2D27082B
:101A9000F8007808FB00720884008313731883171A
:101AA0000008A000013072078400831373188317A5
:101AB0000008A100740884008313751883170008B8
:101AC000A20001307407840083137518831700087F
:101AD000A30002307407840083137518831700086D
:101AE000A40003307407840083137518831700085B
:101AF000A5007608A6007B08A8002008A9008A1186
:101B000083123A248A1501307B07FC008316A80053
:101B10002108A9008A1183123A248A1502307B0712
:101B2000FC008316A8002208A9008A1183123A2417
:101B30008A1503307B07FC008316A8002308A90040
:101B40008A1183123A248A1504307B07FC0083161D
:101B5000A8002408A9008A1183123A248A150530A6
:101B60007B07FC008316A8002508A9008A118312B0
:101B70003A248A1506307B07FC008316A800260845
:101B8000A9008A1183123A248A15663003178D0042
:101B900000308F008A1103134E228A150230FC0098
:101BA000FA308316B1008A11831254218A15FC0B76
:101BB000D02DDD2DDD2DDD2DDD2D6308043C031D35
:101BC000142A8A150A12392E03081F398300AC0122
:101BD000AD01B101B201FF30BD0083161F149F1487
:101BE0001F159F1107309C0083138312BE01BF0194
:101BF000C401C501C601C701C801C901CA01CB01A1
:101C0000CC01CD01CE01CF01D001D101D401831689
:101C10000108C03907388100B530831290008A115D
:101C200047298A158B1683160C14C03083128B0437
:101C30008A11C2298A155230F700F70B1D2E202E6B
:101C400000003E3003178D0001308F008A1103130E
:101C50004E228A150230D500FA308316B1008A115F
:101C6000831254218A15D50B2C2E8A118A2C8A15A1
:101C7000142A32308316B1008A11831254218A1536
:041C8000402E63008F
:02400E00323F3F
:00000001FF
;PIC16F877A
;CRC=6A7A  CREATED="20-Nov-21 17:49"
