:100000000C308A006A2C00000A108A100A1182073C
:1000100028340F34013406340A108A100A1182077A
:100020004E3441344F3420345034413447344F340B
:1000300000340A108A100A118207503441344734C0
:100040004F3400348C2AF33A6139E937A021613208
:10005000E139743961326F008C2444106937E33719
:100060006D38613A693B653600010D05D4326E3A50
:100070006510EE37F630ED326E3A65008C2AF33AB1
:100080006139E937A020F43A6136693D61326F0089
:100090008C2444106937E3376D38613A693B653623
:1000A00000010D05D4326E3A6510EE37F630ED32B0
:1000B0006E3A65000C10C23A743A6F373A10253226
:1000C00000000D05D03BBA12E412E412E4126410F1
:1000D000533ABA126410253200008C24441DA53A0C
:1000E000A53A00018C2AF33A6139E9372027A0228A
:1000F000F834733A65000C10D5396539A032F23006
:10010000F332641000000D05533A613AF539BA1222
:1001100073008C18BA2141227C193A21D529C320B9
:1001200052000D05331DC4224C3E341D4522492A80
:10013000412900018C1A3A10D320492920326F102E
:10014000CD32EE3A20000C104F38F4346F373A10AD
:10015000A53100018C29F531E332F339A0163E10A8
:10016000253200018C3AF33A6139E937203265369D
:10017000653A61326F008C3AF33A6139E9372027EA
:10018000A022F834733A65000C22E933693A65100D
:10019000F536203B61366F3900010D05D630EC3461
:1001A000E43721008C2444104E10453CE939F432E8
:1001B00000010D05D4326E3A6510E43220376F3BF2
:1001C0006F000C28F237E33AF232A030A039E53163
:1001D000F232F430F23461000D05D0172039E539E0
:1001E0006F36F63272000C2741224110653420260A
:1001F000E9336132EF1000000C10C434E734F432FC
:1002000000008C20E4366937A022EE316F37743954
:1002100061326F000C106132ED34EE395B185D1DF8
:10022000A01264008C34641DA53AA53A00000C228B
:10023000E933693A65106F1049223A1000018A06C5
:10024000D43CF032641DA53100008A06D43CF03263
:10025000641DA53100008C34641DA012F5127500D8
:100260008C244410CA306810453CE939F43200004F
:100270000C28C1295314B4143A10A53AA53AA53A4A
:10028000A53A00018C29D420D42A531DA012750050
:100290008C2444104E10453CE939F43200000C1017
:1002A000A034EE34E3346137E4372E172E1000010A
:1002B0008C183A26EF3369377C19BA20E43669374F
:1002C00000010D05A027703AE9376E1DA0126300EA
:1002D0000C21E536202B6937E437A830A91000013E
:1002E0000C26E9336110CC3264106510D232EC3246
:1002F00000018C216F37F430A022F834733A650086
:100300008D06AC26E13920236136F4302028E13314
:10031000613921000C2720286539ED34F434E437A5
:1003200000010C22E933693A6510F536203B61364D
:100330006F3900010D05D630EC34E4372100B215D9
:10034000320883168700831232163208831687001C
:1003500083128A150A128E2CCF3084008313000872
:100360000319BF290630F800F701F70BB529F80B80
:10037000B4297B30F700F70BBB29800BB2290800AA
:1003800083165618C72983120812C92983168312A7
:10039000081683160812D618D12983128812D32979
:1003A000831683128816831688125619DB29831246
:1003B0000813DD2983168312081783160813D6192C
:1003C000E52983128813E729831683128817831679
:1003D0008813891083128914831689108312891057
:1003E000080083160911831209118316D308031D0F
:1003F000FD2983120911FF2983168312091583161B
:100400000911A630F700F70B032A000089108312A8
:1004100089108316540ED5000F30D5055508D60027
:100420008312C021831654080F39D500D6008312D9
:10043000C02108008316081283120812831688123E
:1004400083128812831608138312081383168813E5
:1004500083128813831609118312091183168910D8
:10046000831289100F308316CF008312AC21013024
:10047000CD004D08033C031C492A03308316D600E7
:100480008312C02105308316CF008312AC21CD0A20
:10049000392A02308316D6008312C021CD014D08BF
:1004A000033C031C602A4D080420CE008316D301B0
:1004B00083124E088316D4008312F121CD0A4F2AED
:1004C0008A150A12912C83164E080C3A83120319CE
:1004D000732A063A03197F2A073A03197F2A053A35
:1004E0000319972A9E2A8316D3010130D400831260
:1004F000F12102308316CF008312AC21A52A0130EE
:100500008316CF000230D000500B872A8A2A403051
:10051000D1008B2AD10101304F02D1075108803818
:10052000D200D3015208D4008312F121A52A8316E8
:10053000D3011030D4008312F121A52A0130831693
:10054000D3004E08D4008312F12108000B08831653
:10055000CB0083128B13831603178C170C14000027
:1005600000000313CB1FB72A83128B178316831245
:1005700003170C087F390319182B83160313CB00BC
:10058000831203170D0883160313CC00831203177D
:100590000F0883160313CD004B08CE00831263228D
:1005A00083164C08831203178D00831603134D081E
:1005B000831203178F0003130B088316CE008312D8
:1005C0008B13831603178C170C1400000000031301
:1005D000CE1FED2A83128B178316831203170C0D7F
:1005E0000E0D7F390319182B83160313CB008312CA
:1005F00003170D0883160313CC00831203170F088B
:1006000083160313CD004B08CE008312632283169A
:100610004C08831203178D00831603134D088312B1
:1006200003178F008D0A03198F0A0313A62A0317D5
:100630000313080014308316CB00CC01CD014B0806
:100640004C02031C262BCB08031D652CCD08031D73
:10065000652C0610831206108316861083128614EA
:1006600083160611831206158316861183128615CA
:1006700014308316CF008312AC2183160814831222
:1006800008184B2B831608148312081C422B313098
:100690008316CD0083128316881483128818592B71
:1006A000831688148312881C502B34308316CD0097
:1006B00083128316081583120819672B83160815F1
:1006C0008312081D5E2B37308316CD0083128316EC
:1006D000881583128819752B831688158312881D37
:1006E0006C2B2A308316CD008312831606108312DA
:1006F0000614831686108312861083160611831241
:100700000615831686118312861514308316CF00C2
:100710008312AC218316081483120818982B8316B1
:1007200008148312081C8F2B32308316CD008312DD
:100730008316881483128818A62B831688148312B4
:10074000881C9D2B35308316CD0083128316081527
:1007500083120819B42B831608158312081DAB2BBE
:1007600038308316CD0083128316881583128819BA
:10077000C22B831688158312881DB92B303083163F
:10078000CD0083128316061083120614831686107A
:10079000831286148316061183120611831686119E
:1007A0008312861514308316CF008312AC21831672
:1007B000081483120818E52B831608148312081CEA
:1007C000DC2B33308316CD008312831688148312FA
:1007D0008818F32B831688148312881CEA2B363072
:1007E0008316CD0083128316081583120819012C75
:1007F000831608158312081DF82B39308316CD0097
:10080000831283168815831288190F2C8316881576
:100810008312881D062C23308316CD008312831685
:10082000061083120614831686108312861483160C
:100830000611831206158316861183128611143051
:100840008316CF008312AC21831608148312081874
:10085000322C831608148312081C292C413083166D
:10086000CD0083128316881483128818402C8316B7
:1008700088148312881C372C42308316CD008312D3
:1008800083160815831208194E2C83160815831237
:10089000081D452C43308316CD008312831688151E
:1008A000831288195C2C831688158312881D532C9B
:1008B00044308316CD00831205308316CF00831297
:1008C000AC2105308316CC071F2BCD08031D6A2CE5
:1008D000FF30CD004D08F8007808C900490F712C91
:1008E000722C7B2CFC30831203178D0000308F009C
:1008F0000313A62283164908F800831208000B0888
:100900008316CA0083128B13831603178C170C14DB
:10091000000000000313CA1F902C83128B1783164C
:100920000318C92C831203170C087F39831603138D
:10093000CA00831203170D0883160313CB0083121A
:1009400003170F0883160313CC004A08CE00831246
:10095000632283164B08831203178D00831603133B
:100960004C08831203178F0003130B088316CD0066
:1009700083128B13831603178C170C1400000000CE
:100980000313CD1FC62C83128B178316C90BC92CDA
:10099000F72C831203170C0D0E0D7F3983160313EA
:1009A000CA00831203170D0883160313CB008312AA
:1009B00003170F0883160313CC004A08CE008312D6
:1009C000632283164B08831203178D0083160313CB
:1009D0004C08831203178F008D0A03198F0A031026
:1009E00083160313C90BF52CF72C83127F2C83126B
:1009F000080003173708BA003608BC003508BB00EA
:100A0000B908031D072D3808003C03181F2D3C08AA
:100A1000FA003B08840083137A1883173A0800020F
:100A2000031D172D3B08F8003C08F900222DBB0AD6
:100A30000319BC0A38080319B903B803002D0030A4
:100A4000F800F900031308008316DD01DC013030E3
:100A5000831203179000313091003230920033300E
:100A6000930034309400353095003630960037309E
:100A70009700383098003930990061309A00623020
:100A80009B0063309C0064309D0065309E006630A2
:100A90009F006730A0006830A1006930A2006A3072
:100AA000A3006B30A4006C30A5006D30A6006E3042
:100AB000A7006F30A8007030A9007130AA00733011
:100AC000AB007430AC007530AD007630AE007730DE
:100AD000AF007830B0007930B1007A30B200B301A5
:100AE000831603135208D7005108D6005708FA009E
:100AF0005608840083137A1883170008203C031DCE
:100B0000852DD60A0319D70A762D5708FA005608FC
:100B1000840083135718831700082D3C03199B2D5D
:100B20005708FA00560884008313571883170008E3
:100B30002B3C031DA72D5708FA005608D60A0319A7
:100B4000D70A840083137A1883170008A82D2B3046
:100B5000DE005E082D3C0319B82DD51BB82D550BB2
:100B6000B22DB82DD51BBA2D5508243C0318BA2D2B
:100B7000382F502ED5080319152E5508103C031D8B
:100B8000E42D5708FA005608840083137A18831757
:100B90000008303C031DE42D013056078400831308
:100BA000571883170008783C0319E02D01305607C9
:100BB00084008313571883170008583C031DE42D45
:100BC0000230D6070318D70A5508083C031DF72D35
:100BD0005708FA005608840083137A188317000810
:100BE000303C031DF72D0130D6070318D70A5508EE
:100BF000023C031D142E5708FA0056088400831384
:100C00007A1883170008303C031D142E0130560754
:100C100084008313571883170008623C031D142EA9
:100C20000230D6070318D70A502E5708FA00560884
:100C3000840083137A1883170008303C0319232E8D
:100C40000A30D500502E0130560784008313571800
:100C500083170008783C0319372E013056078400AB
:100C60008313571883170008583C031D3E2E10307D
:100C7000D5000230D6070318D70A502E0130560788
:100C800084008313571883170008623C031D4E2EFF
:100C90000230D500D6070318D70A502E0830D500E9
:100CA0005708D9005608D8005708FA00560884009B
:100CB00083137A1883170008303C031D632ED60A6D
:100CC0000319D70A542E5708FA00560884008313D4
:100CD000571883170008DF00403C0318762E5F0882
:100CE0005A3C031C762E5F082038772E5F08DF0001
:100CF000013083120317B6001030B50083160313BA
:100D00005F0883120317B700B90183160313550850
:100D100083120317B8000313F92479088316DB0044
:100D20007808DA00DA08031D982EDB080319302F43
:100D3000FA015508F700F71BFA03DF007A08E00014
:100D40005D0883120317B700831603135C08831230
:100D50000317B60083160313600883120317B90044
:100D6000831603135F0883120317B8003708390688
:100D70008039BB00B71FC12EB609B709B60A0319DF
:100D8000B70AB91FC82EB809B909B80A0319B90AB0
:100D90001030BA00F701FA01B70CB60C031CD62EBE
:100DA0003808F7070318FA0A3908FA07FA0CF70C9B
:100DB000F90CF80CBA0BCC2EBB1FE32EF809F9097D
:100DC000F80A0319F90A790883160313E000780872
:100DD000DF0010305A02F7005B08FA000130031CF4
:100DE0000230FA0277085F07F80060080318600F06
:100DF000FA077808DC007A08DD00D60A0319D70A5A
:100E00005708FA0056088400831357188317000800
:100E1000DF00403C0318132F5F085A3C031C132FBC
:100E20005F082038142F5F08DF000130831203179A
:100E3000B6001030B500831603135F088312031742
:100E4000B700B90183160313550883120317B800BE
:100E50000313F92479088316DB007808DA00922E50
:100E600056085802031D4B2F57085902031D4B2FDC
:100E7000530854040319472F53088400831354184C
:100E80008317840A520880008403510880000030D0
:100E9000F800F9005E2F5308540403195A2F530821
:100EA0008400831354188317840A5708800084032E
:100EB000560880005C08F8005D08F90083120800FD
:100EC00083164A08CC004908CB00CF014C08D20059
:100ED0004B08D100D401CD30D3000A30D5008312A5
:100EE000242578088316D0004D084B02031D7C2F63
:100EF0004E084C020319962F4E08CC004D08CB002B
:100F000040304F078400831350088000CF0A4C08FC
:100F1000D2004B08D100D401CD30D3000A30D50027
:100F20008312242578088316D000742F4030F800EF
:100F30000030F900831208008316C8014808043CF9
:100F4000031CE52F1730831203178D0001308F002B
:100F50000313A62232308316CF008312AC211A234A
:100F600078088316C500450FB62FE42F1F30831273
:100F700003178D0001308F00031008308316031310
:100F8000C90083127F2483164508CE008312632292
:100F900002308316C900C830CF008312AC218316FB
:100FA000C90BCB2F4808023C031DDD2FB730480783
:100FB0008400831320308000C80AB73048078400BB
:100FC000831345088000C80A9E2FCA01B730C900A4
:100FD0008312602779088316C7007808C600460880
:0A0FE000F8004708F900831208002A
:101000000830F8000430F700F70B04288711B211FC
:101010003208831687000330F700F70B0D28CD0D3B
:1010200083120712031C1A2832163208831687000F
:101030001E288312321232088316870000008312A2
:10104000B2153208831687008312871D2528F80BF6
:1010500002280430F700F70B2B288711B211320851
:101060008316870000008312321632088316870029
:101070000330F700F70B3A280330F700F70B3E2850
:101080008312B2153208831687008312871D462803
:10109000F8010330F700F70B4B28071A7814871173
:1010A000B2113208831687008312071232123208F7
:1010B00083168700831208003216320883168700D1
:1010C0000430F700F70B62288312B215320883163A
:1010D00087000330F700F70B6B28831207123212D8
:1010E0003208831687000430F700F70B7528831247
:1010F0008711B211320883168700A030CD00831209
:101100000020780883164C1078184C148312321281
:1011100032088316870000008312B2153208831646
:1011200087008312871D92280430F700F70B96285A
:101130009928000032163208831687000430F70021
:10114000F70BA02800304C1C0130F8008312080077
:101150005C20F8080319A828321632088316870085
:101160000430F700F70BB2288312B2153208831649
:1011700087000330F700F70BBB28831207123212E7
:101180003208831687000430F700F70BC528831256
:101190008711B211320883168700A030CD00831268
:1011A000002083164408CD00831200203216320836
:1011B000831687000430F700F70BDC288312B21582
:1011C0003208831687000330F700F70BE5288312F7
:1011D000871DE82807123212320883168700043070
:1011E000F700F70BF12883128711B211320883162A
:1011F0008700A130CD0083120020F701083083164C
:10120000C7007708C8008312321632088316870099
:101210000330F700F70B0A298312B2153208831640
:1012200087008312871D1229071A0314071E031053
:10123000F80D0430F700F70B1B29B21132088316A2
:101240008700831287118316C70B03298312321676
:101250003208831687000330F700F70B2D2983121D
:1012600007128316480803193A29831232123208EA
:101270008316870000008312B21532088316870098
:101280008312871D41290430F700F70B4529871188
:10129000B2113208831687000330F700F70B4E298E
:1012A0008312071232123208831687007808C500AD
:1012B0008312321232088316870000008312B2159F
:1012C0003208831687008312871D64290430F700D3
:1012D000F70B68296B290000321632088316870045
:1012E0000430F700F70B72294508F8008312080054
:1012F0008316C2014208C4008312A8207808FF3C6C
:101300000319AD2983164208C4008312A820780867
:101310008316C00001304207C300C4008312A82016
:1013200078088316C1003E08840083133F18831792
:1013300000084002031DA92901303E0784008313E1
:101340003F18831700084102031DA9294208F8002D
:10135000B0290730C2077A298312FF30F8008316BC
:101360008312080080080319D0298316C8010408D5
:10137000C7004810831B48140008CE008A1183124E
:1013800063228A158316470884008313481883173D
:10139000840A031DCE298312850A83168312B2297B
:1013A00008008316C401390844020318542A0C307B
:1013B000CE008A11831263228A15831637088400AF
:1013C0008313381883178312B22132308316CF006B
:1013D0008A118312AC218A158A111A238A1578087A
:1013E0008316BA003A0FF529532A253083120317C2
:1013F0008D0001308F000310083083160313C900DD
:101400008A1183127F248A1583163A08CE008A1126
:10141000831263228A1502308316C700C830CF00BA
:101420008A118312AC218A158316C70B0E2AC801B4
:10143000C530C7003A08C90047088400831348181C
:101440008317490880000130470784008313481838
:10145000831780014708F8004808F900CA01C53021
:10146000C9008A11831260278A1579088316C30080
:101470007808C200BB304407F800FA010318FA0AE2
:101480007808C7007A08C80042088400831343180C
:1014900083170008C900470884008313481883177E
:1014A00049088000C40AD329C301BB30C2004208E6
:1014B000F8004308F9008312080007306B07FF3E6D
:1014C000EE008316C4008312A8207808ED006C0B90
:1014D000AE2AED08031D7F2AEE01EF01A030840043
:1014E00083136E0884076F088A110C208A15800008
:1014F000003803197E2AEF0AEE0A6E2A912AEE01BD
:10150000EF01A030840083136E0884076F088A11EE
:1015100019208A15800000380319912AEF0AEE0A73
:10152000812A833003178D0000308F0003100930AB
:1015300083160313C9008A1183127F248A15A030F1
:1015400084008313B2210630EE00FA308316CF00F8
:101550008A118312AC218A15EE0BA52A6D08F800BA
:1015600008004E088316BF0083124D088316BE0084
:10157000831278217808CF004F08FF3C031DE02A32
:10158000D23003178D0000308F008A110313A6227A
:101590008A15D93003178D0000308F008A1103138C
:1015A000A6228A150430EB00FA308316CF008A1188
:1015B0008312AC218A15EB0BD42AFF30F8009C2B48
:1015C0004430D6006930D7006730D8006930D90080
:1015D0007430DA006530DB002030DC006130DD0083
:1015E0002030DE007330DF006530E0006E30E10057
:1015F0006830E2006130E3003A30E4002030E5007A
:10160000E6010430E7008316B8015630B7008312B4
:1016100067088316B9008312D1217908D1007808B0
:10162000D000500884008313511883170008D2009B
:101630000130500784008313511883170008D3002A
:101640000230500784008313511883170008D40018
:101650000330500784008313511883170008D50006
:101660004F08EB00ED015230EC0002306B07EE004A
:101670000430EF00F0016F0870020318572B700858
:101680006C07840083136D1883170008F1006E083F
:101690008316C4008312A820780871020319532B03
:1016A000FF30F800592B7008F00AEE0A3B2B00308F
:1016B000F8007808E800E8080319922BE1300317D6
:1016C0008D0000308F008A110313A6228A15EC309A
:1016D00003178D0000308F008A110313A6228A158C
:1016E0000430EB00FA308316CF008A118312AC214C
:1016F0008A15EB0B722BF33003178D0000308F002F
:101700008A110313A6228A150230EB00FA308316E1
:10171000CF008A118312AC218A15EB0B862BFF3088
:10172000F8009C2BE9014F08EB006908EC005D22F2
:101730007808EA006A08F800080083163A08F801F9
:1017400039020318A62B3908F700B22BF70108302D
:10175000BB00B90DF70D3A0877020318F700F80D32
:10176000BB0BA92B83120800780883163708B90031
:101770006430BA0083129D2377088316B700780877
:101780003030031DCA2BB81CD52BB819D52B381AED
:101790002030CD2BB81138123814F8077808CE0055
:1017A0008A11831263228A1583163708B9000A301A
:1017B000BA0083129D2377088316B700780830306B
:1017C000031DE82BB819F02B381CF02B381A2030E9
:1017D000F8077808CE008A11831263228A158316CF
:1017E0003030B7073708CE008A11831263228A157A
:1017F00008005C20F8080319F92B3216320883160A
:1018000087000430F700F70B032C8312B21532085F
:10181000831687000330F700F70B0C2C8312071296
:1018200032123208831687000430F700F70B162CAB
:1018300083128711B211320883168700A030CD00C1
:101840008312002083164A08CD00831200208316DD
:101850004B08CD0083120020321232088316870015
:1018600000008312B2153208831687008312871D89
:10187000372C0430F700F70B3B2C3E2C00003216BF
:101880003208831687000430F700F70B452C8312CB
:101890000800DB015B08063C031C592C5B085A0757
:1018A000DC008316CA00FF30CB008312F923DB0A69
:1018B0004A2C7B3003178D0000308F008A110313F0
:1018C000A6228A15C8308316CF008A118312AC2154
:1018D0008A15080003081F398300A101A201A6018F
:1018E000A701FF30B20083161F149F141F159F110C
:1018F00007309C0083138312B301B401B901BA010C
:10190000BB01BC01BD01BE01BF01C001C101C201DB
:10191000C301C401C501C6018A119F298A158A1114
:101920001A2A8A155230F700F70B942C972C0000D6
:101930004F3003178D0001308F008A110313A62248
:101940008A15C8308316CF008A118312AC218A15FC
:10195000583003178D0001308F008A110313A6221F
:101960008A150230CD00FA308316CF008A11831217
:10197000AC218A15CD0BB32C8A111A238A1578084D
:10198000C700470FC42CAE2D613003178D00013006
:101990008F0003100B3083160313C9008A118312C2
:1019A0007F248A1547088316CE008A11831263228A
:1019B0008A150230CD00FA308316CF008A118312C7
:1019C000AC218A15CD0BDB2C4708313A0319EC2CDE
:1019D000033A0319562D912D8A119C278A157908EF
:1019E000C9007808C8004808840083134918831781
:1019F0000008CA0001304807840083134918831780
:101A00000008CB00CE014A30CD00B1227808CC00CE
:101A10004C0B0B2D0F2D4C08033C031D382D68304B
:101A200003178D0001308F008A110313A6228A1537
:101A30000430CD00FA308316CF008A118312AC2116
:101A40008A15CD0B1A2D703003178D0001308F00D1
:101A50008A110313A6228A150230CD00FA308316AC
:101A6000CF008A118312AC218A15CD0B2E2D552D56
:101A7000793003178D0001308F008A110313A622DD
:101A80008A15803003178D0001308F008A110313EF
:101A9000A6228A150430CD00FA308316CF008A11B1
:101AA0008312AC218A15CD0B4C2DAE2D8A119C27AB
:101AB0008A157908C9007808C8004808840083138B
:101AC000491883170008CA000130480784008313AF
:101AD000491883170008CB00CE014A30CD00B1224F
:101AE0007808CC004C08033C031D7C2D0A168A1193
:101AF00000280A128A15902D8A3003178D000130B4
:101B00008F008A110313A6228A150230CD00FA3005
:101B10008316CF008A118312AC218A15CD0B872D35
:101B2000AE2D913003178D0001308F008A11031301
:101B3000A6228A159A3003178D0001308F008A1172
:101B40000313A6228A150230CD00FA308316CF0087
:101B50008A118312AC218A15CD0BA52D4708353C7F
:061B6000031DA82C630028
:10200000893003178D0000308F000A120313A622B7
:102010000A16913003178D0000308F000A12031347
:10202000A6220A160430D300FA308316CF000A1213
:102030008312AC210A16D30B14289A3003178D0093
:1020400000308F000A120313A6220A16643083168A
:10205000CF000A128312AC210A160A121A230A169A
:102060007808CD004D0F3528652EA33003178D005D
:1020700000308F0003100A3083160313C9000A12C0
:1020800083127F240A164D088316CE000A1283128B
:1020900063220A160230D300FA308316CF000A12E8
:1020A0008312AC210A16D30B4C284D08313A031980
:1020B0006328033A0319652A013A0319E62A073A05
:1020C0000319292C462E0A129C270A167908D400D7
:1020D0007808D3005308840083135418831700082A
:1020E000D500013053078400831354188317000868
:1020F000D6008316BF015530BE000A128A1583121E
:1021000078210A168A117808D7002B3003178D0022
:1021100001308F000310053083160313C9000A1223
:1021200083127F240A1655088316B7001B30B800A7
:102130000A128A158312B4230A168A1156088316C6
:10214000B7001B30B8000A128A158312B4230A168E
:102150008A110230EF00FA308316CF000A12831280
:10216000AC210A16EF0BAB285708FF3C031D4F2A82
:102170004430DD006930DE006730DF006930E000A8
:102180007430E1006530E2002030E3006130E400AB
:102190002030E5007330E6006530E7006E30E8007F
:1021A0006830E9006130EA003A30EB002030EC00A2
:1021B000ED010430EE008316B8015D30B7008312E4
:1021C0006E088316B9000A128A158312D1210A16E5
:1021D0008A117908D4007808D30053088400831347
:1021E000541883170008D800013053078400831364
:1021F000541883170008D900023053078400831352
:10220000541883170008DA0003305307840083133F
:10221000541883170008DB0053308316A000743075
:10222000A1006130A2007430A3007530A4007330A7
:10223000A5002030A6002830A7003030A8002C30A0
:10224000A9003130AA002C30AB003330AC0029306B
:10225000AD003A30AE002030AF00B0010130831243
:10226000EE008316B801A030B70083126E08831603
:10227000B9000A128A158312D1210A168A11790827
:10228000D4007808D30053088400831354188317AC
:102290000008DC008316B2015530B100B40158309B
:1022A000B30083125C088316B500310884008313E1
:1022B000321883170008633C031C2E2A01303107B3
:1022C00084008313321883170008633C031C2E2AF2
:1022D0003208BF003108BE000A128A158312782125
:1022E0000A168A117808FF3C0319782983162E2ACA
:1022F0008316BE013E08C4000A128A158312A82064
:102300000A168A117808FF3C03198B2907308316B7
:10231000BE077A29831283163E08F8007808B600B3
:10232000310884008313321883170008B700013086
:10233000310784008313321883170008B80033086C
:1023400084008313341883170008B9000130330761
:1023500084008313341883170008BA00023033074F
:1023600084008313341883170008BB00033033073D
:1023700084008313341883170008BC003508BD009F
:102380003608CA003708CB000A128A158312F923CF
:102390000A168A11013083163607BE00CA003808B3
:1023A000CB000A128A158312F9230A168A11023009
:1023B00083163607BE00CA003908CB000A128A15F8
:1023C0008312F9230A168A11033083163607BE00DA
:1023D000CA003A08CB000A128A158312F9230A169A
:1023E0008A11043083163607BE00CA003B08CB00B2
:1023F0000A128A158312F9230A168A1105308316E8
:102400003607BE00CA003C08CB000A128A158312A8
:10241000F9230A168A11063083163607BE00CA0051
:102420003D08CB000A128A158312F9230A168A1175
:10243000223003178D0000308F000A120313A622EA
:102440000A1602308316BE00FA30CF000A12831239
:10245000AC210A168316BE0B242A4D2A2C30831277
:1024600003178D0000308F000A120313A6220A16EC
:10247000353003178D0000308F000A120313A62297
:102480000A1604308316BE00FA30CF000A128312F7
:10249000AC210A168316BE0B442A642A83123030FC
:1024A00003178D0001308F000A120313A6220A16AB
:1024B0000430EF00FA308316CF000A128312AC21E9
:1024C0000A16EF0B5A2A8316642E0A129C270A1644
:1024D0007908CF007808CE004E08840083134F1887
:1024E00083170008D00001304E07840083134F1873
:1024F00083170008D100D4015030D300540883164C
:10250000BF00831253088316BE000A128A15831275
:1025100078210A168A117808D5005508FF3C03195E
:10252000D02A530884008313541883170008D70057
:102530000130530784008313541883170008D80010
:102540006D3003178D0000308F00031004308316A8
:102550000313C9000A1283127F240A165708831630
:10256000B7001B30B8000A128A158312B4230A166A
:102570008A1158088316B7001B30B8000A128A1552
:102580008312B4230A168A110130D6005508EB00D5
:102590005608EC000A128A155D220A168A11E42AEE
:1025A000723003178D0000308F000A120313A62229
:1025B0000A160430D700FA308316CF000A128312AD
:1025C000AC210A16D70BDB2A8316642E0A129C272D
:1025D0000A167908CF007808CE004E0884008313CD
:1025E0004F1883170008D00001304E078400831372
:1025F0004F1883170008D100D4015030D30054087D
:102600008316BF00831253088316BE000A128A1570
:10261000831278210A168A117808D5005508FF3CE4
:10262000031D152BFF30F800712B5508D70007301C
:102630005507D80058088316C4000A128A15831259
:10264000A8200A168A117808FF3C031D312B570871
:10265000DA000A128A1549240A168A110130F80094
:10266000712B58088316C4000A128A158312A820F9
:102670000A168A117808FF3C0319662BD9015908FC
:10268000063C031C612B59085807DA008316C40066
:102690000A128A158312A8200A168A117808D60011
:1026A00059085707DA008316CA00831256088316A2
:1026B000CB000A128A158312F9230A168A11D90A45
:1026C0003F2B5808D7000730D807312B0730D802E6
:1026D0005808DA000A128A1549240A168A110130AC
:1026E000F8007808D200AA3003178D0000308F0060
:1026F00003100C3083160313C9000A1283127F24BF
:102700000A165208D3001830D4002030541E30303E
:10271000D5005308F700D31F952BF709F70A770860
:10272000D3002D30D500D417541453088316B900A4
:102730006430BA000A128A1583129D230A168A1180
:102740007708D30030307807D60053088316B900D5
:102750000A30BA000A128A1583129D230A168A11BA
:1027600030307707D80030307807D7005508F700A9
:10277000303056020319C02BD414D41B5415D42B5B
:102780005508D6002030D500303057020319CC2B25
:102790005414D41BD414D42B031D5414031DD42B54
:1027A0005608D7002030D6005419DB2BD418E22B62
:1027B0005418E92BF02B55088316CE000A12831209
:1027C00063220A1656088316CE000A128312632269
:1027D0000A1657088316CE000A12831263220A16BD
:1027E00058088316CE000A12831263220A1602309A
:1027F000D300FA308316CF000A128312AC210A16D6
:10280000D30BF92BD21B132C5208003C0318132CAA
:10281000B23003178D0000308F000A120313A62276
:102820000A16FA011C2CBB3003178D0000308F00F4
:102830000A120313A6220A160230D300FA308316B6
:10284000CF000A128312AC210A16D30B1E2C83165A
:10285000642E0A129C270A167908D4007808D3003F
:10286000530884008313541883170008D5000130DF
:10287000530784008313541883170008D600831667
:10288000BF015530BE000A128A15831278210A163C
:102890008A117808D7005708FF3C03192F2E4E30B5
:1028A000DF006F30E0007630E1006130E200203080
:1028B000E3007330E4006530E5006E30E600683018
:1028C000E7006130E8003A30E9002030EA00EB012F
:1028D0000430EC008316B8015F30B70083126C0837
:1028E0008316B9000A128A158312D1210A168A1199
:1028F0007908D9007808D80058088400831359183B
:1029000083170008DA000130580784008313591830
:1029100083170008DB00023058078400831359181E
:1029200083170008DC00033058078400831359180C
:1029300083170008DD00383003178D0001308F0049
:1029400003100A3083160313C9000A1283127F246E
:102950000A165A088316B7001B30B8000A128A15E7
:102960008312B4230A168A115B088316B7001B3042
:10297000B8000A128A158312B4230A168A115C0859
:102980008316B7001B30B8000A128A158312B423CD
:102990000A168A115D088316B7001B30B8000A12A8
:1029A0008A158312B4230A168A110230ED00FA3018
:1029B0008316CF000A128312AC210A16ED0BD72C16
:1029C0004E308316A0006F30A1007630A2006F3029
:1029D000A3002030A4005330A5007430A60061305D
:1029E000A7007430A8007530A9007330AA000D301C
:1029F000AB000A30AC002830AD003030AE002C30D7
:102A0000AF003130B0002C30B1003330B20029308B
:102A1000B3003A30B4002030B500B6010130831263
:102A2000EC008316B801A030B70083126C0883163F
:102A3000B9000A128A158312D1210A168A1179085F
:102A4000D9007808D80058088400831359188317D0
:102A50000008DE00423003178D0001308F000310A4
:102A6000093083160313C9000A1283127F240A1641
:102A70005E088316B7001B30B8000A128A1583124D
:102A8000B4230A168A110230ED00FA308316CF0003
:102A90000A128312AC210A16ED0B452D8316BD01D7
:102AA0005530BC00BF015A30BE0083125E08831649
:102AB000C000831257088316C1003C0884008313AA
:102AC0003D1883170008633C031C0E2E01303C07A1
:102AD000840083133D1883170008633C031C0E2EEB
:102AE0003C08840083133D1883170008C20001309E
:102AF0003C07840083133D1883170008C3003E0879
:102B0000840083133F1883170008C40001303E0778
:102B1000840083133F1883170008C50002303E0766
:102B2000840083133F1883170008C60003303E0754
:102B3000840083133F1883170008C7004008C800AB
:102B40004108CA004208CB000A128A158312F923F1
:102B50000A168A11013083164107C900CA004308CA
:102B6000CB000A128A158312F9230A168A11023041
:102B700083164107C900CA004408CB000A128A150F
:102B80008312F9230A168A11033083164107C900FC
:102B9000CA004508CB000A128A158312F9230A16C7
:102BA0008A11043083164107C900CA004608CB00C9
:102BB0000A128A158312F9230A168A110530831620
:102BC0004107C900CA004708CB000A128A158312C0
:102BD000F9230A168A11063083164107C900CA0074
:102BE0004808CB000A128A158312F9230A168A11A3
:102BF0003E3003178D0000308F000A120313A62207
:102C00000A1602308316C900FA30CF000A12831266
:102C1000AC210A168316C90B042E2D2E48308312C0
:102C200003178D0000308F000A120313A6220A1624
:102C3000513003178D0000308F000A120313A622B3
:102C40000A1604308316C900FA30CF000A12831224
:102C5000AC210A168316C90B242E442E8312483049
:102C600003178D0001308F000A120313A6220A16E3
:102C70000430ED00FA308316CF000A128312AC2123
:102C80000A16ED0B3A2E8316642E8312C4300317F6
:102C90008D0000308F000A120313A6220A16CD30D1
:102CA00003178D0000308F000A120313A6220A16A4
:102CB0000230D300FA308316CF000A128312AC21FF
:102CC0000A16D30B5A2E831683124D08353C031D6A
:082CD00000288A150A12792D73
:02400E00323F3F
:00000001FF
;PIC16F877A
;CRC=246D  CREATED="22-Nov-21 19:41"
