:100000000D308A002B2D0000FF00030E8301A1009C
:100010000A08A0008A010408A2007708A300780853
:10002000A4007908A5007A08A60003170D08031399
:10003000A70003170F080313A80003170C080313E6
:10004000A90003170E080313AA00831383128B1E43
:100050002B280B1952288C308400001C31280C18D6
:100060005528220884002308F7002408F8002508F2
:10007000F9002608FA00270803178D000313280843
:1000800003178F000313290803178C0003132A0892
:1000900003178E00031320088A00210E8300FF0E31
:1000A0007F0E09008A110A12192A8A110A12152ACA
:1000B0000A108A100A11820728340F3401340634DA
:1000C0000A108A100A1182074E3441344F3420340A
:1000D0005034413447344F3400340A108A100A1126
:1000E00082075034413447344F3400348C2AF33A79
:1000F0006139E937A0216132E139743961326F0029
:100100008C2444106937E3376D38613A693B6536B2
:1001100000010D05D4326E3A6510EE37F630ED323F
:100120006E3A65008C2AF33A6139E937A020F43A37
:100130006136693D61326F008C2444106937E337C2
:100140006D38613A693B653600010D05D4326E3A6F
:100150006510EE37F630ED326E3A65000C10C23A9B
:10016000743A6F373A10253200000D05D03BBA12B1
:10017000E412E412E4126410533ABA126410253205
:1001800000008C244410453CE939F432BA12F512CF
:1001900075008C24441DA53AA53AA0060A22E93927
:1001A000F037EE34F6326C008C24441DA53AA53AA3
:1001B00000018C2AF33A6139E9372027A022F8346C
:1001C000733A65000C10D5396539A032F230F3323C
:1001D000641000000D05533A613AF539BA12730004
:1001E0008C183A10C32044104336E9326E3A651039
:1001F00000010D05321D2021F539E3307210433620
:10020000E9326E3A65008C193A10C4224C1043361C
:10021000E9326E3A651000010D05341DA022E43468
:10022000F43072104336E9326E3A65008C1A3A1097
:10023000D320492920326F10CD32EE3A20000C1025
:100240004F38F4346F373A10A53100018C29F5315D
:10025000E332F339A0163E10253200018C3AF33A0E
:100260006139E93720326536653A61326F008C3A80
:10027000F33A6139E9372027A022F834733A650050
:100280000C22E933693A6510F536203B61366F3947
:1002900000010D05D630EC34E43721008C183A26E5
:1002A000EF336937203EA01ABA29E13472000D05F8
:1002B000A027703AE9376E1DA01263000C22E933C3
:1002C000693A6510F536203B61366F3900010D053E
:1002D000D630EC34E43721000C21E536202B693789
:1002E000E437A830A91000010C26E9336110CC32A4
:1002F00064106510D232EC3200018C216F37F4307B
:10030000A022F834733A65000C16CD307310C63055
:100310006C3A6110D030E730F21000010C28F2374F
:10032000E33AF232A030A039E531F232F430F2345F
:1003300061000D05D0172039E5396F36F6327200AD
:100340000C274122411065342026E9336132EF1039
:1003500000018C2444104E10453CE939F432000170
:100360000D05D4326E3A6510E43220376F3B6F00D2
:100370000C102010D422432641224F1020008C2044
:10038000E4366937A022EE316F37743961326F007D
:100390000C106132ED34EE395B185D1DA012640063
:1003A0008C34641DA53AA53A00000C22E933693A61
:1003B00065106F1049223A1000018A06D43CF032D1
:1003C000641DA53100008A06D43CF032641DA531BD
:1003D00000008C34641DA012F51275000C28C12990
:1003E0005314B4143A10A53AA53AA53AA53A000117
:1003F0008C29D420D42A531DA01275000C28C129A1
:100400005314B4143A10A53AA53AA53AA53A0001F6
:100410008C29D420D42A531DA01275008C2444109A
:100420004E10453CE939F43200000C108A110A12D2
:1004300031280B118A110A1231280C10A034EE3425
:10044000E3346137E4372E172E100000BD153D0848
:100450008316870083123D163D088316870083129A
:100460008A150A12572DB23084008313000803192D
:10047000462A0630F800F701F70B3C2AF80B3B2A16
:100480007B30F700F70B422A800B392A08008316CD
:1004900039184E2A83120812502A8316831208161E
:1004A00083160812B918582A831288125A2A8316FA
:1004B00083128816831688123919622A8312081348
:1004C000642A83168312081783160813B9196C2A35
:1004D000831288136E2A8316831288178316881353
:1004E00089108312891483168910831289100800D9
:1004F00083160911831209118316B608031D842A75
:1005000083120911862A831683120915831609118D
:10051000A630F700F70B8A2A000089108312891091
:100520008316370EB8000F30B8053808B9008312AB
:100530004722831637080F39B800B90083124722C3
:100540000800831608128312081283168812831279
:1005500088128316081383120813831688138312D4
:1005600088138316091183120911831689108312C7
:1005700089100F308316B200831233220130D60067
:100580005608033C031CD02A03308316B90083129B
:10059000472205308316B20083123322D60AC02ABE
:1005A00002308316B90083124722D6015608033C55
:1005B000031CE72A56085820D7008316B601831279
:1005C00057088316B70083127822D60AD62A8A15CE
:1005D0000A12602D831631080C3A83120319FA2A85
:1005E000063A0319062B073A0319062B053A031995
:1005F0001E2B252B8316B6010130B70083127822FB
:1006000002308316B200831233222C2B0130831662
:10061000B2000230B300330B0E2B112B4030B4006C
:10062000122BB40101303202B40734088038B5000F
:10063000B6013508B700831278222C2B8316B60139
:100640001030B700831278222C2B01308316B600AD
:100650003108B7008312782208000B088316AE0019
:1006600083128B13831603178C170C1400000000E1
:100670000313AE1F3E2B83128B17831683120317AF
:100680000C087F3903199F2B83160313AE008312C6
:1006900003170D0883160313AF00831203170F0807
:1006A00083160313B0002E08B1008312EA228316CA
:1006B0002F08831203178D0083160313300883124B
:1006C00003178F0003130B088316B10083128B13DB
:1006D000831603178C170C14000000000313B11FBE
:1006E000742B83128B178316831203170C0D0E0DB8
:1006F0007F3903199F2B83160313AE008312031750
:100700000D0883160313AF00831203170F08831617
:100710000313B0002E08B1008312EA2283162F08BB
:10072000831203178D0083160313300883120317F7
:100730008F008D0A03198F0A03132D2B0317031340
:100740000800DC308316AE00AF01B0012E082F0286
:10075000031CAD2BAE08031DEC2CB008031DEC2CC4
:1007600006108312061083168610831286148316D1
:10077000061183120615831686118312861514300E
:100780008316B200831233228316081483120818CA
:10079000D22B831608148312081CC92B3130831600
:1007A000B00083128316881483128818E02B8316F6
:1007B00088148312881CD72B34308316B000831220
:1007C0008316081583120819EE2B83160815831259
:1007D000081DE52B37308316B00083128316881569
:1007E00083128819FC2B831688158312881DF32B1E
:1007F0002A308316B0008312831606108312061463
:10080000831686108312861083160611831206152E
:10081000831686118312861514308316B200831254
:10082000332283160814831208181F2C8316081409
:100830008312081C162C32308316B00083128316E4
:100840008814831288182D2C831688148312881C10
:10085000242C35308316B0008312831608158312BA
:1008600008193B2C831608158312081D322C3830CA
:100870008316B00083128316881583128819492CB9
:10088000831688158312881D402C30308316B000E3
:1008900083128316061083120614831686108312A1
:1008A000861483160611831206118316861183128D
:1008B000861514308316B20083123322831608146F
:1008C000831208186C2C831608148312081C632CDE
:1008D00033308316B000831283168814831288186D
:1008E0007A2C831688148312881C712C3630831658
:1008F000B00083128316081583120819882C8316FA
:1009000008158312081D7F2C39308316B00083121E
:100910008316881583128819962C831688158312DE
:10092000881D8D2C23308316B00083128316061089
:1009300083120614831686108312861483160611FA
:1009400083120615831686118312861114308316BE
:10095000B200831233228316081483120818B92CAC
:10096000831608148312081CB02C41308316B00083
:1009700083128316881483128818C72C8316881450
:100980008312881CBE2C42308316B000831283165B
:10099000081583120819D52C831608158312081D13
:1009A000CC2C43308316B000831283168815831233
:1009B0008819E32C831688158312881DDA2C44309D
:1009C0008316B000831205308316B20083123322DF
:1009D00005308316AF07A62BB008031DF12CFF309E
:1009E000B0003008F8007808AC002C0FF82CF92C77
:1009F000022DB830831203178D0001308F000313CE
:100A00002D2383162C08F800831208000B08831688
:100A1000AD0083128B13831603178C170C14000080
:100A200000000313AD1F172D83128B1783160318B5
:100A3000502D831203170C087F3983160313AD0062
:100A4000831203170D0883160313AE0083120317D6
:100A50000F0883160313AF002D08B1008312EA229A
:100A600083162E08831203178D00831603132F0895
:100A7000831203178F0003130B088316B000831231
:100A80008B13831603178C170C140000000003133C
:100A9000B01F4D2D83128B178316AC0B502D7E2D5E
:100AA000831203170C0D0E0D7F3983160313AD004F
:100AB000831203170D0883160313AE008312031766
:100AC0000F0883160313AF002D08B1008312EA222A
:100AD00083162E08831203178D00831603132F0825
:100AE000831203178F008D0A03198F0A03108316D0
:100AF0000313AC0B7C2D7E2D8312062D8312080070
:100B000083166908EC006808EE006708ED00EB0842
:100B1000031D8E2D6A08003C0318A62D6E08FA00EE
:100B20006D08840083137A1883176C080002031D74
:100B30009E2D6D08F8006E08F900A92DED0A031925
:100B4000EE0A6A080319EB03EA03872D0030F80068
:100B5000F900831208008316C001BF013030C200C3
:100B60003130C3003230C4003330C5003430C600E9
:100B70003530C7003630C8003730C9003830CA00B9
:100B80003930CB006130CC006230CD006330CE0014
:100B90006430CF006530D0006630D1006730D200BD
:100BA0006830D3006930D4006A30D5006B30D6008D
:100BB0006C30D7006D30D8006E30D9006F30DA005D
:100BC0007030DB007130DC007330DD007430DE002B
:100BD0007530DF007630E0007730E1007830E200F9
:100BE0007930E3007A30E400E5013508BA003408D2
:100BF000B9003A08FA003908840083137A18831779
:100C00000008203C031D082EB90A0319BA0AF92D61
:100C10003A08FA003908840083133A188317000849
:100C20002D3C03191E2E3A08FA003908840083135C
:100C30003A18831700082B3C031D2A2E3A08FA00A5
:100C40003908B90A0319BA0A840083137A1883177A
:100C500000082B2E2B30C10041082D3C03193B2EE0
:100C6000B81B3B2E380B352E3B2EB81B3D2E3808BB
:100C7000243C03183D2E952FD32EB8080319982E27
:100C80003808103C031D672E3A08FA003908840022
:100C900083137A1883170008303C031D672E013038
:100CA0003907840083133A1883170008783C031926
:100CB000632E01303907840083133A188317000824
:100CC000583C031D672E0230B9070318BA0A3808CA
:100CD000083C031D7A2E3A08FA0039088400831371
:100CE0007A1883170008303C031D7A2E0130B907AB
:100CF0000318BA0A3808023C031D972E3A08FA0076
:100D00003908840083137A1883170008303C031DC8
:100D1000972E01303907840083133A18831700088F
:100D2000623C031D972E0230B9070318BA0AD32E6E
:100D30003A08FA003908840083137A1883170008E8
:100D4000303C0319A62E0A30B800D32E01303907E3
:100D5000840083133A1883170008783C0319BA2ECD
:100D600001303907840083133A1883170008583C70
:100D7000031DC12E1030B8000230B9070318BA0A9B
:100D8000D32E01303907840083133A1883170008E3
:100D9000623C031DD12E0230B800B9070318BA0A0D
:100DA000D32E0830B8003A08BC003908BB003A0816
:100DB000FA003908840083137A1883170008303C3E
:100DC000031DE62EB90A0319BA0AD72E3A08FA000B
:100DD0003908840083133A1883170008E600403C62
:100DE0000318F92E66085A3C031CF92E66082038B1
:100DF000FA2E6608E600E801C230E7006608E9005E
:100E0000EB013808EA008312802579088316BE00BA
:100E10007808BD00BD08031D102FBE0803198D2FD3
:100E2000FA013808F700F71BFA03E6007A08E70032
:100E30004008E9003F08E8006708EB006608EA00A0
:100E400069086B068039ED00E91F2B2FE809E909D5
:100E5000E80A0319E90AEB1F322FEA09EB09EA0A4B
:100E60000319EB0A1030EC00F701FA01E90CE80C69
:100E7000031C402F6A08F7070318FA0A6B08FA07E1
:100E8000FA0CF70CF90CF80CEC0B362FED1F4D2F6C
:100E9000F809F909F80A0319F90A7908E700780846
:100EA000E600C2303D02F7003E08FA000030031CA5
:100EB0000130FA0277086607F80067080318670F21
:100EC000FA077808BF007A08C000B90A0319BA0AFD
:100ED0003A08FA003908840083133A188317000887
:100EE000E600403C03187B2F66085A3C031C7B2F0E
:100EF000660820387C2F6608E600E801C230E7006B
:100F00006608E900EB013808EA00831280257908B9
:100F10008316BE007808BD000A2F39083B02031D66
:100F2000A82F3A083C02031DA82F360837040319DE
:100F3000A42F36088400831337188317840A3508D2
:100F400080008403340880000030F800F900BB2FD3
:100F5000360837040319B72F36088400831337186F
:100F60008317840A3A0880008403390880003F0808
:100F7000F8004008F9008312080083162D08AF001E
:100F80002C08AE00B2012F08B5002E08B400B7013E
:100F9000B030B6000A30B8008312AB25780883164B
:100FA000B30030082E02031DD92F31082F02031978
:100FB000F32F3108AF003008AE004B303207840009
:100FC000831333088000B20A2F08B5002E08B4003E
:100FD000B701B030B6000A30B8008312AB257808EC
:100FE0008316B300D12F4B30F8000030F900831284
:020FF0000800F7
:10100000E7016708043C031C5028D53003178D0006
:1010100001308F008A1103132D238A153230831675
:10102000B2008A11831233228A158A11A1238A15EC
:101030007808E400DD3003178D0001308F000310C5
:10104000083083160313AC008A11831206258A1513
:1010500064088316B1008A118312EA228A150230CD
:10106000E800C8308316B2008A11831233228A1531
:10107000E80B3128640F3D284F286708023C031D08
:101080004828563067078400831320308000E70A21
:10109000563067078400831364088000E70A01283C
:1010A0008316AD015630AC008A118312BD278A1514
:1010B0007908E6007808E5006508F8006608F90098
:1010C0008A150A12782D0830F8000430F700F70B63
:1010D00067288711BD113D08831687000330F7008C
:1010E000F70B7028AE0D83120712031C7D283D16E6
:1010F0003D0883168700812883123D123D08831620
:10110000870000008312BD153D08831687008312F7
:10111000871D8828F80B65280430F700F70B8E2808
:101120008711BD113D0883168700000083123D160C
:101130003D08831687000330F700F70B9D28033026
:10114000F700F70BA1288312BD153D088316870011
:101150008312871DA928F8010330F700F70BAE288A
:10116000071A78148711BD113D0883168700831272
:1011700007123D123D0883168700831208003D16B2
:101180003D08831687000430F700F70BC52883124B
:10119000BD153D08831687000330F700F70BCE28F6
:1011A000831207123D123D08831687000430F700B2
:1011B000F70BD82883128711BD113D0883168700CD
:1011C000A030AE0083126320780883162D107818A3
:1011D0002D1483123D123D088316870000008312F0
:1011E000BD153D08831687008312871DF52804303E
:1011F000F700F70BF928FC2800003D163D08831680
:1012000087000430F700F70B032900302D1C013054
:10121000F800F808031D0E298312BF2883123D161B
:101220003D08831687000430F700F70B1529831259
:10123000BD153D08831687000330F700F70B1E2904
:10124000831207123D123D08831687000430F70011
:10125000F70B282983128711BD113D0883168700DB
:10126000A030AE008312632083162B08AE008312D9
:1012700063203D163D08831687000430F700F70B06
:101280003F298312BD153D08831687000330F70000
:10129000F70B48298312871D4B2907123D123D0881
:1012A000831687000430F700F70B54298312871147
:1012B000BD113D0883168700A130AE008312632064
:1012C000F70108308316AE007708AF0083123D1691
:1012D0003D08831687000330F700F70B6D29831252
:1012E000BD153D08831687008312871D7529071ACF
:1012F0000314071E0310F80D0430F700F70B7E29C6
:10130000BD113D0883168700831287118316AE0B2B
:10131000662983123D163D08831687000330F700C7
:10132000F70B90298312071283162F0803199D29A2
:1013300083123D123D088316870000008312BD15FD
:101340003D08831687008312871DA4290430F70007
:10135000F70BA8298711BD113D08831687000330BC
:10136000F700F70BB129831207123D123D088316CF
:1013700087007808AC0083123D123D088316870071
:1013800000008312BD153D08831687008312871D58
:10139000C7290430F700F70BCB29CE2900003D16F2
:1013A0003D08831687000430F700F70BD5292C0879
:1013B000F8008312080083162508F8012402031898
:1013C000E4292408F700F029F7010830A600A40D4D
:1013D000F70D250877020318F700F80DA60BE7298B
:1013E00083120800780883162208A4006430A50040
:1013F0008312DB2177088316A20078083030031DA2
:10140000082AA31C132AA319132A231A20300B2AF3
:10141000A31123122314F8077808B1008A1183124C
:10142000EA228A1583162208A4000A30A500831236
:10143000DB2177088316A20078083030031D262AA6
:10144000A3192E2A231C2E2A231A2030F8077808E5
:10145000B1008A118312EA228A1583163030A2075E
:101460002208B1008A118312EA228A150800800836
:101470000319552A8316AD010408AC002D10831BF7
:101480002D140008B1008A118312EA228A158316EE
:101490002C08840083132D188317840A031D532AF4
:1014A0008312850A83168312372A08005708F6002C
:1014B0005608F500FD017D088316AB008312BF209E
:1014C0007808FF3C0319B62A7D088316AB00831207
:1014D000BF207808FB0001307D078316A000AB0019
:1014E0008312BF207808FC007508840083137618E7
:1014F000831700087B02031DB32A0130750784009F
:1015000083137618831700087C02031DB32AC130A9
:1015100003178D0000308F0003100B308316031368
:10152000AC008A11831206258A157B088316A20057
:101530001B30A3008312F2217C088316A2001B300B
:10154000A3008312F22104308316A000FA30B20007
:101550008A11831233228A158316A00BA62A7D08CE
:10156000F800FF2A83120730FD075B2A7508840004
:1015700083137618831700088316A00001307507BF
:1015800084008313761883170008A100C9308312E2
:1015900003178D0000308F000310043083160313EF
:1015A000AC008A11831206258A1583162008A20032
:1015B0001B30A3008312F22183162108A2001B30E6
:1015C000A3008312F221CD3003178D0000308F006D
:1015D00003100D3083160313AC008A118312062505
:1015E0008A1504308316A000FA30B2008A118312E3
:1015F00033228A158316A00BF42AFF30F8007808EE
:101600008312D8005808FF3C03190B2D4430E0002A
:101610006930E1006730E2006930E3007430E400D3
:101620006530E5002030E6006130E7002030E8005A
:101630007330E9006530EA006E30EB006830EC0092
:101640006130ED003A30EE002030EF00F001043060
:10165000F100F6016030F5007108FB008316A70168
:101660007B0827020318AD2B0C30B1008A118312BE
:10167000EA228A15750884008313761883173722A7
:1016800032308316B2008A11831233228A158A11EE
:10169000A1238A157808FC00E33003178D00013080
:1016A0008F000310083083160313AC008A118312D5
:1016B00006258A157C088316B1008A118312EA2256
:1016C0008A1502308316AA00C830B2008A1183122C
:1016D00033228A158316AA0B642B7C0F702BAC2B3C
:1016E000AD01A830AC007C08AE002C088400831348
:1016F0002D1883172E08800001302C0784008313D7
:101700002D18831780012C08F8002D08F900AD0171
:10171000A830AC008A118312BD278A157908FE0013
:101720007808FD00A03083162707F800FA01031897
:10173000FA0A7808AA007A08AB007D0884008313AF
:101740007E1883170008AC002A08840083132B1826
:1017500083172C088000A70A302BFE01A030FD0063
:101760007D08F8007E08F90079088312DA0078080D
:10177000D9005908840083135A1883170008DB0026
:1017800001305907840083135A1883170008DC00BE
:1017900002305907840083135A1883170008DD00AC
:1017A00003305907840083135A1883170008DE009A
:1017B0005808F500FC015B30FB0002307507F600AD
:1017C0007C088316A2007B08A1002208A40021083F
:1017D000A3002408FA002308840083137A188317CF
:1017E00080080319F72BA30A0319A40AE92B21087F
:1017F0002302F7002408FA002208031C220FFA0231
:101800007708F8007808FD00FE017D087E020318C5
:10181000212C7E087B07840083137C188317000823
:10182000A0007608AB008312BF2078088316200240
:1018300003191D2CFF30F800232C7E08FE0AF60A3F
:10184000052C0030F8007808F200F208031DD82CAF
:10185000F30183125808F5007308F6000730750786
:10186000FF3EFC008316AB008312BF207808FB000C
:10187000760B7F2CFB08031D502CFC01FD01A030D2
:10188000840083137C0884077D088A1160208A15F0
:101890008000003803194F2CFD0AFC0A3F2C622CF3
:1018A000FC01FD01A030840083137C0884077D08BF
:1018B0008A116D208A15800000380319622CFD0AF8
:1018C000FC0A522CEA3003178D0000308F00031001
:1018D000093083160313AC008A11831206258A157A
:1018E000A0308400831337220630FC00FA308316C0
:1018F000B2008A11831233228A15FC0B762C7B08E6
:10190000F8007808F400740BAE2C6C3003178D00CF
:1019100001308F008A1103132D238A150430F5003E
:10192000FA308316B2008A11831233228A15F50B1E
:10193000902C743003178D0001308F008A1103132F
:101940002D238A150230F500FA308316B2008A1171
:10195000831233228A15F50BA42CD62C7D30031765
:101960008D0001308F008A1103132D238A15043056
:10197000F500FA308316B2008A11831233228A15D9
:10198000F50BB92C843003178D0001308F008A11BC
:1019900003132D238A150230F500FA308316B200A6
:1019A0008A11831233228A15F50BCD2C0A2D83164A
:1019B0008E30831203178D0001308F008A110313BC
:1019C0002D238A15993003178D0001308F008A115D
:1019D00003132D238A150430F500FA308316B20064
:1019E0008A11831233228A15F50BED2CA0300317D0
:1019F0008D0001308F008A1103132D238A150230C8
:101A0000F500FA308316B2008A11831233228A1548
:101A1000F50B012D282DA93003178D0001308F0003
:101A20008A1103132D238A15B03003178D0001305E
:101A30008F008A1103132D238A150430F500FA3024
:101A40008316B2008A11831233228A15F50B1F2DDB
:101A50008A150A128F2D03081F398300AC01AD01CE
:101A6000B101B201FF30BD0083161F149F141F1572
:101A70009F1107309C0083138312BE01BF01C40174
:101A8000C501C601C701C801C901CA01CB01CC010A
:101A9000CD01CE01CF01D001D10183160108C0399B
:101AA00007388100B530831290008A11262A8A15E2
:101AB0008B1683160C14C03083128B048A11A12A52
:101AC0008A155230F700F70B632D662D00001D308C
:101AD00003178D0002308F008A1103132D238A15FE
:101AE000C8308316B2008A11831233228A15002867
:101AF0007908D3007808D200520884008313531861
:101B000083170008D4000130520784008313531850
:101B100083170008D500D7015430D600562A630039
:02400E00323F3F
:00000001FF
;PIC16F877A
;CRC=86F0  CREATED="22-Nov-21 11:46"
