:1000000007308A00342F0000FF00030E8301A10097
:100010000A08A0008A010408A2007708A300780853
:10002000A4007908A5007A08A60003170D08031399
:10003000A70003170F080313A80003170C080313E6
:10004000A90003170E080313AA00831383128C3030
:100050008400801E2D288C1A4E2822088400230834
:10006000F7002408F8002508F9002608FA002708F8
:1000700003178D000313280803178F0003132908A3
:1000800003178C0003132A0803178E00031320089C
:100090008A00210E8300FF0E7F0E09008A110A12CA
:1000A00086290A108A100A11820728340F34013475
:1000B00006348C2AF33A6139E937A0216132E139FB
:1000C000743961326F008C2444106937E3376D381E
:1000D000613A693B653600010D05D4326E3A651010
:1000E000EE37F630ED326E3A65008C2AF33A61391C
:1000F000E937A020F43A6136693D61326F008C2403
:1001000044106937E3376D38613A693B6536000161
:100110000D05D4326E3A6510EE37F630ED326E3A98
:1001200065008C21EC346537F432A024441DA01204
:10013000F51275000D05D03BBA12F512F512F51245
:100140007510533ABA1275008C24441DA53AA53A8D
:1001500000018C2AF33A6139E9372027A022F834CC
:10016000733A65000C10D5396539A032F230F3329C
:10017000641000000D05533A613AF539BA12730064
:100180008C18BA2141227C193A21D529C32052006A
:100190000D05331DC4224C3E341D4522492A4129F8
:1001A00000018C1A3A10D320492920326F10CD3229
:1001B000EE3A20000C104F38F4346F373A10A53166
:1001C00000018C29F531E332F339A0163E102532B7
:1001D00000108C3AF33A6139E93720326536653AD6
:1001E00061326F008C3AF33A6139E9372027A02257
:1001F000F834733A65000C22E933693A6510F53634
:10020000203B61366F3900010D05D630EC34E43700
:1002100021008C2444104E10453CE939F432000191
:100220000D05D4326E3A6510E43220376F3B6F0013
:100230000C28F237E33AF232A030A039E531F2323D
:10024000F430F23461000D05D0172039E5396F36EE
:10025000F63272000C274122411065342026E93322
:100260006132EF1000000C10C434E734F4320000A7
:100270008C20E4366937A022EE316F377439613251
:100280006F000C106132ED34EE395B185D1DA01269
:1002900064008C34641DA53AA53A00000C22E933B1
:1002A000693A65106F1049223A1000018A06D43C61
:1002B000F032641DA53100008A06D43CF032641D82
:1002C000A53100008C34641DA012F51275008C2439
:1002D0004410CA306810453CE939F43200000C285B
:1002E000C1295314B4143A10A53AA53AA53AA53A2F
:1002F00000018C29D420D42A531DA01275008C240F
:1003000044104E10453CE939F432000032302B07DE
:10031000840083138C1E8A291A08800041302B0721
:10032000F800FA010318FA0A78088316D9007A0847
:10033000DA00323083122B078400831300088316FF
:10034000DB005908840083135A1883175B08800068
:10035000323083122B07840083130008AD00AB0AF0
:100360002B080F3C031CAB012D08493C031DBD2984
:10037000AC08031DBD29AC0AE0292D08463C031D2D
:10038000C5292C0BC529AC0AE0292D084D3C031DBD
:10039000CF292C08023C031DCF29AC0AE0292D08E7
:1003A000543C031DDF292C08033C031DDF29AC014D
:1003B0000130B1002D08AE00AF01AB01E029AC0166
:1003C000B1080319EB292F08AF0A063C0318EB29E3
:1003D0000130B000B1018C128A110A122D280C10C4
:1003E000A034EE34E3346137E4372E172E100001C9
:1003F0008C24C62654102D10D332F23461360000FE
:10040000D0155008831687008312501650088316A3
:10041000870083128A110A125F2FA0308400831391
:1004200000080319202A0630F800F701F70B162AF6
:10043000F80B152A7B30F700F70B1C2A800B132AC8
:10044000080083162718282A831208122A2A8316DE
:100450008312081683160812A718322A83128812EC
:10046000342A8316831288168316881227193C2A89
:10047000831208133E2A8316831208178316081363
:10048000A719462A83128813482A831683128817CD
:100490008316881389108312891483168910831296
:1004A0008910080083160911831209118316A40804
:1004B000031D5E2A83120911602A8316831209150F
:1004C00083160911A630F700F70B642A0000891083
:1004D000831289108316250EA6000F30A605260864
:1004E000A70083122122831625080F39A600A70032
:1004F0008312212208008316081283120812831621
:100500008812831288128316081383120813831625
:100510008813831288138316091183120911831615
:100520008910831289100F308316A00083120D22C8
:100530000130E5006508033C031CAA2A033083163A
:10054000A7008312212205308316A00083120D22FA
:10055000E50A9A2A02308316A70083122122E501B8
:100560006508033C031CC12A65085120E600831678
:10057000A401831266088316A50083125222E50A9D
:10058000B02A8A110A12652F7E080C3A0319D22A62
:10059000063A0319DE2A073A0319DE2A053A031937
:1005A000F62AFD2A8316A4010130A50083125222E7
:1005B00002308316A00083120D22042B0130831613
:1005C000A0000230A100210BE62AE92A4030A20057
:1005D000EA2AA20101302002A20722088038A300E3
:1005E000A4012308A50083125222042B8316A40120
:1005F0001030A50083125222042B01308316A40070
:100600007E08A5008312522208000B08E5008B1318
:10061000831603178C170C140000000083120313B9
:10062000E51B8B1703170C087F390319592B03138C
:10063000E50003170D080313E60003170F08031363
:10064000E7006508FE00C422660803178D00031347
:10065000670803178F0003130B08E8008B1383163A
:1006600003178C170C140000000083120313E81BFF
:100670008B1703170C0D0E0D7F390319592B03131C
:10068000E50003170D080313E60003170F08031313
:10069000E7006508FE00C422660803178D000313F7
:1006A000670803178F008D0A03198F0A0313052BA0
:1006B00003170313080083165108D4005008D6000E
:1006C0004F08D500D308031D692B5208003C0318BE
:1006D000812B5608FA005508840083137A18831773
:1006E00054080002031D792B5508F8005608F9003C
:1006F000842BD50A0319D60A52080319D303D2034F
:10070000622B0030F800F900831208008316A8015C
:10071000A7013030AA003130AB003230AC003330AA
:10072000AD003430AE003530AF003630B000373079
:10073000B1003830B2003930B3006130B4006230FB
:10074000B5006330B6006430B7006530B80066307D
:10075000B9006730BA006830BB006930BC006A304D
:10076000BD006B30BE006C30BF006D30C0006E301D
:10077000C1006F30C2007030C3007130C4007330EC
:10078000C5007430C6007530C7007630C8007730B9
:10079000C9007830CA007930CB007A30CC00CD0166
:1007A0007C08A2007B08A1002208FA00210884002E
:1007B00083137A1883170008203C031DE32BA10A3A
:1007C0000319A20AD42B2208FA00210884008313FB
:1007D0002218831700082D3C0319F92B2208FA0070
:1007E0002108840083132218831700082B3C031D63
:1007F000052C2208FA002108A10A0319A20A840084
:1008000083137A1883170008062C2B30A9002908B7
:100810002D3C0319162CA01B162C200B102C162C6B
:10082000A01B182C2008243C0318182C702DAE2C6B
:10083000A0080319732C2008103C031D422C220829
:10084000FA002108840083137A1883170008303CCB
:10085000031D422C013021078400831322188317C3
:100860000008783C03193E2C0130210784008313D3
:10087000221883170008583C031D422C0230A107A0
:100880000318A20A2008083C031D552C2208FA0070
:100890002108840083137A1883170008303C031D55
:1008A000552C0130A1070318A20A2008023C031DA1
:1008B000722C2208FA002108840083137A18831707
:1008C0000008303C031D722C013021078400831383
:1008D000221883170008623C031D722C0230A10706
:1008E0000318A20AAE2C2208FA0021088400831300
:1008F0007A1883170008303C0319812C0A30A000B5
:10090000AE2C0130210784008313221883170008BE
:10091000783C0319952C0130210784008313221899
:1009200083170008583C031D9C2C1030A000023097
:10093000A1070318A20AAE2C0130210784008313FB
:10094000221883170008623C031DAC2C0230A00063
:10095000A1070318A20AAE2C0830A0002208A400A8
:100960002108A3002208FA002108840083137A18C2
:1009700083170008303C031DC12CA10A0319A20AE9
:10098000B22C2208FA00210884008313221883174E
:100990000008CE00403C0318D42C4E085A3C031CDF
:1009A000D42C4E082038D52C4E08CE00D001AA30C9
:1009B000CF004E08D100D3012008D20083125B2360
:1009C00079088316A6007808A500A508031DEB2C5E
:1009D000A6080319682DFA012008F700F71BFA038F
:1009E000CE007A08CF002808D1002708D0004F0891
:1009F000D3004E08D200510853068039D500D11FCC
:100A0000062DD009D109D00A0319D10AD31F0D2D03
:100A1000D209D309D20A0319D30A1030D400F7013E
:100A2000FA01D10CD00C031C1B2D5208F707031838
:100A3000FA0A5308FA07FA0CF70CF90CF80CD40B65
:100A4000112DD51F282DF809F909F80A0319F90AFB
:100A50007908CF007808CE00AA302502F7002608D2
:100A6000FA000030031C0130FA0277084E07F80044
:100A70004F0803184F0FFA077808A7007A08A80054
:100A8000A10A0319A20A2208FA002108840083138C
:100A9000221883170008CE00403C0318562D4E083C
:100AA0005A3C031C562D4E082038572D4E08CE00B8
:100AB000D001AA30CF004E08D100D3012008D200C7
:100AC00083125B2379088316A6007808A500E52C1D
:100AD00021082302031D832D22082402031D832DD8
:100AE0007D087E0403197F2D7D08840083137E1802
:100AF0008317840A7C08800084037B088000003010
:100B0000F800F900962D7D087E040319922D7D08CA
:100B1000840083137E188317840A220880008403CC
:100B2000210880002708F8002808F900831208002F
:100B30000B08FB008B13831603178C170C14000093
:100B40000000FB1FA82D831203138B1783160317B6
:100B50000318CF2D83120C087F39FB000D08FC0011
:100B60000F08FD007B08FE000313C4227C08031756
:100B70008D007D088F0003130B08FE008B13831676
:100B800003178C170C1400000000FE1FCC2D8312DD
:100B900003138B1783160317F50BCF2DEB2D831241
:100BA0000C0D0E0D7F39FB000D08FC000F08FD0039
:100BB0007B08FE000313C4227C0803178D007D0808
:100BC0008F008D0A03198F0A0310F50BE82DEA2D0B
:100BD0000313982D83168312031308007C08F80171
:100BE0007B020318F62D7B08F700022EF701083070
:100BF000FD00FB0DF70D7C0877020318F700F80DD8
:100C0000FD0BF92D080078087508FB006430FC0026
:100C1000EE257708F50078083030031D162EF61CF7
:100C20001D2EF6191D2E761A2030192EF611761269
:100C30007614F8077808FE00C4227508FB000A3015
:100C4000FC00EE257708F50078083030031D2E2EC5
:100C5000F619322E761C322E761A2030F8077808D4
:100C6000FE00C4223030F5077508FE00C4220800DB
:100C70000C30FE00C4224130840083138008031925
:100C8000532EEF010408EE006F10831B6F14000851
:100C9000FE00C4226E08840083136F188317840A31
:100CA0000319850A3E2E0D30FE00C4220A30FE00D4
:100CB000C4220430EE00FA308316A00083120D2205
:100CC000EE0B5B2EEF014130EE006F08F1006E0875
:100CD000F000F4017108FC007008FB00FE017230A6
:100CE000FD000A308316A000831286237808F500E1
:100CF00072087002031D802E7308710203199A2E68
:100D00007308F1007208F0005E30740784008313EA
:100D100075088000F40A7108FC007008FB00FE01F1
:100D20007230FD000A308316A000831286237808F3
:100D3000F500782E5E30F8000030F9007908E60002
:100D40007808E50065088400831366188317000897
:100D5000E7000130650784008313661883170008D5
:100D6000E8000230650784008313661883170008C3
:100D7000E9000330650784008313661883170008B1
:100D8000EA0004306507840083136618831700089F
:100D9000EB0005306507840083136618831700088D
:100DA000EC0006306507840083136618831700087B
:100DB000ED006708EE006808EF006908F0006A08B7
:100DC000F1006B08F2006C08F3006D08F40091303C
:100DD00003178D0000308F0003100D30F500031352
:100DE00098256E08F5001B30F60003266F08F50005
:100DF0001B30F60003269A3003178D0000308F0059
:100E000003100530F500031398257008F5001B301A
:100E1000F60003267108F5001B30F6000326720861
:100E2000F5001B30F60003267308F5001B30F600B2
:100E30000326A03003178D0000308F000314043008
:100E4000F500031398257408F5001B30F6000326FF
:100E50000430F500FA308316A00083120D22F50B42
:100E60002A2F8A110A12942F03081F398300813018
:100E700083169900A6309800903083129800AB0139
:100E8000AC01B001B101FF30D00083161F149F14D4
:100E90001F159F1107309C0083138312D101D201CB
:100EA000D701D801D901DA01DB01DC01DD01DE0166
:100EB000DF01E001E101E201E301E401002A831620
:100EC0008C16C03083128B047B2A5230F700F70B4C
:100ED000672F6A2F0000EF3003178D0001308F005D
:100EE000031305230230E500FA308316A0008312B5
:100EF0000D22E50B742FF83003178D0001308F00A1
:100F0000031305230230E500FA308316A000831294
:100F10000D22E50B842FB0080319942F8316881136
:0C0F200083128815B001382E8B2F63005F
:02400E00323F3F
:00000001FF
;PIC16F877A
;CRC=CD8B  CREATED="23-nov-21 08:10"
