:1000000004308A00832C0000FF00030E8301A1004E
:100010000A08A0008A010408A2007708A300780853
:10002000A4007908A5007A08A60003170D08031399
:10003000A70003170F080313A80003170C080313E6
:10004000A90003170E080313AA00831383128B1E43
:100050002B280B1952288C308400001C31280C18D6
:100060005528220884002308F7002408F8002508F2
:10007000F9002608FA00270803178D000313280843
:1000800003178F000313290803178C0003132A0892
:1000900003178E00031320088A00210E8300FF0E31
:1000A0007F0E09008A110A120A298A110A120629EA
:1000B0000A108A100A11820728340F3401340634DA
:1000C0000D05D320D622D529452900008C2AF33AE4
:1000D0006139E937A0216132E139743961326F0049
:1000E0008C2444106937E3376D38613A693B6536D3
:1000F00000010D05D4326E3A6510EE37F630ED3260
:100100006E3A65000C10C23A743A6F373A102532D5
:1001100000000D05D03BBA12E412E412E4126410A0
:10012000533ABA126410253200008C24441045372B
:10013000E3376E3AF230E437BA12F51275000C105C
:1001400049222027A022EE316F37743961326F00C7
:100150000C10D5396539A032F230F332641000004A
:100160008C206432F232F3393A10253200008C24AC
:10017000441DA53A2C10453CE939F43200018C2489
:10018000441DA53A2C104E10453CE939F4320000CC
:100190000C104F38F4346F373A10A53100010C229F
:1001A000E933693A65106F10492200010C2A793849
:1001B0006532A024441DA53100018C34641DA012B9
:1001C000E312E312E31263000C102010D422432642
:1001D00041224F1020008C20E4366937A022EE31F6
:1001E0006F37743961326F000C106132ED34EE39C3
:1001F0005B185D1DA01264000C10D020D329CF2AFB
:1002000020008C34643FBA12F51275000C108A116C
:100210000A1231280B118A110A1231280C10A0344D
:10022000EE34E3346137E4372E172E100000BD158D
:100230003D088316870083123D163D08831687000C
:1002400083128A110A12A62C6330840083130008DB
:10025000031937290630F800F701F70B2D29F80BA1
:100260002C297B30F700F70B3329800B2A29080053
:100270006A183C2908123D290816831608128312B1
:10028000EA18442988124529881683168812831291
:100290006A194C2908134D2908178316081383126D
:1002A000EA19542988135529881783168813891049
:1002B000831289148316891083128910080083160B
:1002C000091183120911E708031D68290911692919
:1002D000091583160911A630F700F70B6D290000E8
:1002E000891083128910680EE9000F30E90569084A
:1002F000EA00382168080F39E900EA0038210800CF
:100300008316081283120812831688128312881229
:100310008316081383120813831688138312881315
:10032000831609118312091183168910831289100B
:100330000F30E30024210130C8004808033C031CAF
:10034000A9290330EA0038210530E3002421C80A36
:100350009D290230EA003821C8014808033C031CEB
:10036000BA2948085820C900E7014908E8005F2178
:10037000C80AAD298A110A12AD2C62080C3A031979
:10038000CB29063A0319D329073A0319D329053A89
:100390000319E929EE29E7010130E8005F21023065
:1003A000E3002421F3290130E3000230E400640B70
:1003B000DA29DD294030E500DE29E501013063025C
:1003C000E50765088038E600E7016608E8005F2178
:1003D000F329E7011030E8005F21F3290130E7003D
:1003E0006208E8005F2108000B08DC008B1383160D
:1003F00003178C170C140000000083120313DC1B7E
:100400008B1703170C087F390319482A0313DC00E4
:1004100003170D080313DD0003170F080313DE0095
:100420005C08E200BD215D0803178D0003135E0820
:1004300003178F0003130B08DF008B1383160317BA
:100440008C170C140000000083120313DF1B8B17A2
:1004500003170C0D0E0D7F390319482A0313DC0016
:1004600003170D080313DD0003170F080313DE0045
:100470005C08E200BD215D0803178D0003135E08D0
:1004800003178F008D0A03198F0A0313F42903172A
:1004900003130800DC30DC00DD01DE015C085D02D6
:1004A000031C552ADC08031D6A2BDE08031D6A2B7A
:1004B0008316061083120610831686108312861484
:1004C000831606118312061583168611831286156C
:1004D0001430E30024218316081483120818772AA5
:1004E000831608148312081C702A3130DE0083162C
:1004F000881483128818832A831688148312881C10
:100500007C2A3430DE0083160815831208198F2ADE
:10051000831608158312081D882A3730DE008316DB
:100520008815831288199B2A831688158312881DC3
:10053000942A2A30DE0083160610831206148316CE
:1005400086108312861083160611831206158316F1
:100550008611831286151430E300242183160814B3
:1005600083120818BA2A831608148312081CB32AA7
:100570003230DE008316881483128818C62A831648
:1005800088148312881CBF2A3530DE0083160815B4
:1005900083120819D22A831608158312081DCB2A44
:1005A0003830DE008316881583128819DE2A8316F8
:1005B00088158312881DD72A3030DE008316061076
:1005C000831206148316861083128614831606116E
:1005D0008312061183168611831286151430E300E8
:1005E00024218316081483120818FD2A8316081480
:1005F0008312081CF62A3330DE0083168814831217
:100600008818092B831688148312881C022B363015
:10061000DE008316081583120819152B831608159A
:100620008312081D0E2B3930DE00831688158312C5
:100630008819212B831688158312881D1A2B2330C5
:10064000DE008316061083120614831686108312AA
:1006500086148316061183120615831686118312DB
:1006600086111430E300242183160814831208181D
:10067000402B831608148312081C392B4130DE00EE
:1006800083168814831288184C2B831688148312BF
:10069000881C452B4230DE0083160815831208198A
:1006A000582B831608158312081D512B4330DE008A
:1006B0008316881583128819642B83168815831274
:1006C000881D5D2B4430DE000530E3002421053019
:1006D000DD074E2ADE08031D6F2BFF30DE005E08AB
:1006E000F8007808DA005A0F762B772B7E2BE4304F
:1006F00003178D0000308F000313F4215A08F8000F
:1007000008000B08DF008B13831603178C170C14DB
:100710000000000083120313DF1B8B170318B82B94
:1007200003170C087F390313DF0003170D080313A9
:10073000E00003170F080313E1005F08E200BD218A
:10074000600803178D000313610803178F0003135C
:100750000B08E2008B13831603178C170C14000090
:10076000000083120313E21B8B17DE0BB82BD72B71
:1007700003170C0D0E0D7F390313DF0003170D084F
:100780000313E00003170F080313E1005F08E20002
:10079000BD21600803178D000313610803178F0044
:1007A0008D0A03198F0A03100313DE0B812B080037
:1007B0004A227808D600C83003178D0000308F0019
:1007C00003100A300313DE0081235608E200BD2126
:1007D0000230DA00FA30E3002421DA0BEA2B560863
:1007E000313A0319FD2B333A0319792C013A0319D5
:1007F0007A2C073A03197B2C7C2CD7015708043C30
:10080000031C392CCF3003178D0000308F000313E9
:10081000F4213230E30024214A227808D600D63071
:1008200003178D0000308F0003100A300313DE0021
:1008300081235608E200BD210230DA00FA30E300DD
:100840002421DA0B1E2C560F262C382C5708023C7C
:10085000031D312C4830570784008313203080005B
:10086000D70A483057078400831356088000D70AF8
:10087000FE2BD9014830D80058088400831359183A
:1008800083170008DA0001305807840083135918D1
:1008900083170008DB0003305807840083135918BE
:1008A00083170008DC0004305807840083135918AC
:1008B00083170008DD00DD3003178D0000308F0046
:1008C000031005300313DE0081235A08E200BD2126
:1008D0005B08E200BD215C08E200BD215D08E2008A
:1008E000BD210430DA00FA30E3002421DA0B732C46
:1008F0007C2C7C2C7C2C7C2C5608043C031DD82B97
:100900008A110A12C22C03081F398300AC01AD0101
:10091000B101B201FF30BD0083161F149F141F15D3
:100920009F1107309C0083138312BE01BF01C001D9
:10093000C101C201C301C401C70183160108C03946
:1009400007388100B5308312900017298B16831663
:100950000C14C03083128B0480295230F700F70B3F
:10096000AF2CB22C00000E3003178D0001308F0029
:100970000313F4210230C800FA30E3002421C80B2D
:0E098000BC2CD82B3230E3002421C52C6300A0
:02400E00323F3F
:00000001FF
;PIC16F877A
;CRC=E668  CREATED="20-Nov-21 12:11"
