:100000000E308A00502E0000FF00030E8301A10075
:100010000A08A0008A010408A2007708A300780853
:10002000A4007908A5007A08A60003170D08031399
:10003000A70003170F080313A80003170C080313E6
:10004000A90003170E080313AA00831383128B1E43
:100050002B280B1952288C308400001C31280C18D6
:100060005528220884002308F7002408F8002508F2
:10007000F9002608FA00270803178D000313280843
:1000800003178F000313290803178C0003132A0892
:1000900003178E00031320088A00210E8300FF0E31
:1000A0007F0E09008A110A1235298A110A12312994
:1000B0000A108A100A11820728340F3401340634DA
:1000C0000A108A100A1182074E3441344F3420340A
:1000D0005034413447344F3400340A108A100A1126
:1000E00082075034413447344F3400348C2AF33A79
:1000F0006139E937A0216132E139743961326F0029
:100100008C2444106937E3376D38613A693B6536B2
:1001100000010D05D4326E3A6510EE37F630ED323F
:100120006E3A65000C10C23A743A6F373A102532B5
:1001300000000D05D03BBA12E412E412E412641080
:10014000533ABA126410253200008C244410453C06
:10015000E939F432BA12F51275008C24441DA53A1F
:10016000A53AA0060A22E939F037EE34F6326C00DF
:100170008C24441DA53AA53A00010D05533A613A75
:10018000F539BA1273008C2AF33A6139E93720271E
:10019000A022F834733A65000C10D5396539A032C5
:1001A000F230F332641000008C183A10C32044106F
:1001B0004336E9326E3A651000010D05321D2021EB
:1001C000F539E33072104336E9326E3A65000C10AF
:1001D0004F38F4346F373A10A53100000C1020105E
:1001E000D422432641224F1020008C20E436693768
:1001F000A022EE316F37743961326F000C1061321A
:10020000ED34EE395B185D1DA01264008C34643F40
:10021000BA12F51275000C22E933693A65106F10B5
:10022000492200010C2A79386532BA1263000C2A7F
:1002300079386532BA1263008C34641DA012F5124D
:1002400075000C28C1295314B4143A10A53AA53AE4
:10025000A53AA53A00018C29D420D42A531DA01216
:1002600075000C108A110A1231280B118A110A121A
:1002700031280C10A034EE34E3346137E4372E1704
:100280002E100000BD153D088316870083123D1611
:100290003D088316870083128A150A127D2EDA30F4
:1002A000840083130008031962290630F800F7015F
:1002B000F70B5829F80B57297B30F700F70B5E290D
:1002C000800B55290800831661186A2983120812C9
:1002D0006C2983168312081683160812E1187429F4
:1002E0008312881276298316831288168316881241
:1002F00061197E2983120813802983168312081737
:1003000083160813E1198829831288138A29831612
:100310008312881783168813891083128914831611
:10032000891083128910080083160911831209119C
:100330008316DE08031DA02983120911A229831642
:100340008312091583160911A630F700F70BA629A9
:10035000000089108312891083165F0EE0000F30B1
:10036000E0056008E1008312632183165F080F39FE
:10037000E000E10083126321080083160812831253
:1003800008128316881283128812831608138312A8
:100390000813831688138312881383160911831296
:1003A000091183168910831289100F308316DA0021
:1003B00083124F210130DB005B08033C031CEC2956
:1003C00003308316E1008312632105308316DA00BF
:1003D00083124F21DB0ADC2902308316E1008312ED
:1003E0006321DB015B08033C031C032A5B085820E4
:1003F000DC008316DE0183125C088316DF008312A3
:100400009421DB0AF2298A150A12862E83165908CE
:100410000C3A83120319162A063A0319222A073ABC
:100420000319222A053A03193A2A412A8316DE01C2
:100430000130DF008312942102308316DA00831228
:100440004F21482A01308316DA000230DB005B0BB3
:100450002A2A2D2A4030DC002E2ADC0101305A02E3
:10046000DC075C088038DD00DE015D08DF008312F8
:100470009421482A8316DE011030DF008312942174
:10048000482A01308316DE005908DF0083129421C8
:1004900008000B088316D50083128B1383160317ED
:1004A0008C170C14000000000313D51F5A2A831266
:1004B0008B178316831203170C087F390319BB2A85
:1004C00083160313D500831203170D088316031335
:1004D000D600831203170F0883160313D70055089D
:1004E000D9008312062283165608831203178D0043
:1004F000831603135708831203178F0003130B0887
:100500008316D80083128B13831603178C170C14D1
:10051000000000000313D81F902A83128B17831644
:10052000831203170C0D0E0D7F390319BB2A831696
:100530000313D500831203170D0883160313D60087
:10054000831203170F0883160313D7005508D90029
:100550008312062283165608831203178D00831612
:1005600003135708831203178F008D0A03198F0A8C
:100570000313492A031703130800DC308316D50040
:10058000D601D70155085602031CC92AD508031DF8
:10059000082CD708031D082C06108312061083169A
:1005A000861083128614831606118312061583168D
:1005B00086118312861514308316DA0083124F21B8
:1005C0008316081483120818EE2A8316081483125F
:1005D000081CE52A31308316D7008312831688144D
:1005E00083128818FC2A831688148312881CF32A25
:1005F00034308316D7008312831608158312081926
:100600000A2B831608158312081D012B3730831619
:10061000D70083128316881583128819182B831626
:1006200088158312881D0F2B2A308316D70083125A
:100630008316061083120614831686108312861002
:1006400083160611831206158316861183128615EA
:1006500014308316DA0083124F2183160814831294
:1006600008183B2B831608148312081C322B3230D7
:100670008316D70083128316881483128818492B97
:10068000831688148312881C402B35308316D700BC
:1006900083128316081583120819572B8316081521
:1006A0008312081D4E2B38308316D7008312831611
:1006B000881583128819652B831688158312881D67
:1006C0005C2B30308316D7008312831606108312FA
:1006D000061483168610831286148316061183125D
:1006E0000611831686118312861514308316DA00DC
:1006F00083124F218316081483120818882B83163F
:1007000008148312081C7F2B33308316D700831202
:100710008316881483128818962B831688148312E4
:10072000881C8D2B36308316D7008312831608154C
:1007300083120819A42B831608158312081D9B2BFE
:1007400039308316D70083128316881583128819CF
:10075000B22B831688158312881DA92B233083168C
:10076000D700831283160610831206148316861090
:1007700083128614831606118312061583168611BA
:100780008312861114308316DA0083124F218316E8
:10079000081483120818D52B831608148312081C1A
:1007A000CC2B41308316D700831283168814831212
:1007B0008818E32B831688148312881CDA2B4230A6
:1007C0008316D70083128316081583120819F12B9C
:1007D000831608158312081DE82B43308316D700B3
:1007E00083128316881583128819FF2B83168815A8
:1007F0008312881DF62B44308316D70083120530F0
:100800008316DA0083124F2105308316D607C22AD9
:10081000D708031D0D2CFF30D7005708F8007808C3
:10082000D300530F142C152C1E2CEE3083120317FB
:100830008D0000308F000313492283165308F800FF
:10084000831208000B088316D60083128B138316BD
:1008500003178C170C14000000000313D61F332C51
:1008600083128B17831603186C2C831203170C0842
:100870007F3983160313D600831203170D088316DE
:100880000313D700831203170F0883160313D8002E
:100890005608D900831206228316570883120317BD
:1008A0008D00831603135808831203178F00031358
:1008B0000B088316D90083128B13831603178C172A
:1008C0000C14000000000313D91F692C83128B172E
:1008D0008316D50B6C2C9A2C831203170C0D0E0D5E
:1008E0007F3983160313D600831203170D0883166E
:1008F0000313D700831203170F0883160313D800BE
:100900005608D9008312062283165708831203174C
:100910008D00831603135808831203178F008D0A66
:1009200003198F0A031083160313D50B982C9A2CE6
:100930008312222C8312080003173708BA003608E6
:10094000BC003508BB00B908031DAA2C3808003CC0
:100950000318C22C3C08FA003B08840083137A1861
:1009600083173A080002031DBA2C3B08F8003C0824
:10097000F900C52CBB0A0319BC0A38080319B903CE
:10098000B803A32C0030F800F90003130800831605
:10099000E701E601303083120317900031309100F7
:1009A000323092003330930034309400353095006B
:1009B000363096003730970038309800393099003B
:1009C00061309A0062309B0063309C0064309D006F
:1009D00065309E0066309F006730A0006830A1003F
:1009E0006930A2006A30A3006B30A4006C30A5000F
:1009F0006D30A6006E30A7006F30A8007030A900DF
:100A00007130AA007330AB007430AC007530AD00AB
:100A10007630AE007730AF007830B0007930B1007A
:100A20007A30B200B301831603135C08E1005B085F
:100A3000E0006108FA006008840083137A188317C5
:100A40000008203C031D282DE00A0319E10A192D96
:100A50006108FA0060088400831361188317000896
:100A60002D3C03193E2D6108FA00600884008313B1
:100A70006118831700082B3C031D4A2D6108FA00FA
:100A80006008E00A0319E10A840083137A188317C7
:100A900000084B2D2B30E80068082D3C03195B2D16
:100AA000DF1B5B2D5F0B552D5B2DDF1B5D2D5F0865
:100AB000243C03185D2DDB2EF32DDF080319B82D20
:100AC0005F08103C031D872D6108FA006008840050
:100AD00083137A1883170008303C031D872D0130DB
:100AE000600784008313611883170008783C03199A
:100AF000832D013060078400831361188317000879
:100B0000583C031D872D0230E0070318E10A5F08F7
:100B1000083C031D9A2D6108FA00600884008313C5
:100B20007A1883170008303C031D9A2D0130E00726
:100B30000318E10A5F08023C031DB72D6108FA00A3
:100B40006008840083137A1883170008303C031D63
:100B5000B72D0130600784008313611883170008E4
:100B6000623C031DB72D0230E0070318E10AF32DA4
:100B70006108FA006008840083137A18831700085C
:100B8000303C0319C62D0A30DF00F32D0130600719
:100B900084008313611883170008783C0319DA2D49
:100BA0000130600784008313611883170008583CE4
:100BB000031DE12D1030DF000230E0070318E10AC9
:100BC000F32D013060078400831361188317000838
:100BD000623C031DF12D0230DF00E0070318E10A3B
:100BE000F32D0830DF006108E3006008E2006108CF
:100BF000FA006008840083137A1883170008303CD9
:100C0000031D062EE00A0319E10AF72D6108FA0018
:100C1000600884008313611883170008E900403CD2
:100C20000318192E69085A3C031C192E690820382C
:100C30001A2E6908E900013083120317B60010303C
:100C4000B50083160313690883120317B700B901AF
:100C5000831603135F0883120317B80003139C2441
:100C600079088316E5007808E400E408031D3B2EAC
:100C7000E5080319D32EFA015F08F700F71BFA0302
:100C8000E9007A08EA00670883120317B7008316A1
:100C90000313660883120317B600831603136A084A
:100CA00083120317B900831603136908831203170D
:100CB000B800370839068039BB00B71F642EB60963
:100CC000B709B60A0319B70AB91F6B2EB809B909D3
:100CD000B80A0319B90A1030BA00F701FA01B70CC3
:100CE000B60C031C792E3808F7070318FA0A3908DE
:100CF000FA07FA0CF70CF90CF80CBA0B6F2EBB1FA5
:100D0000862EF809F909F80A0319F90A79088316F1
:100D10000313EA007808E90010306402F700650860
:100D2000FA000130031C0230FA0277086907F80064
:100D30006A0803186A0FFA077808E6007A08E700DD
:100D4000E00A0319E10A6108FA00600884008313CD
:100D5000611883170008E900403C0318B62E6908A3
:100D60005A3C031CB62E69082038B72E6908E900E2
:100D7000013083120317B6001030B5008316031339
:100D8000690883120317B700B901831603135F08BC
:100D900083120317B80003139C2479088316E50017
:100DA0007808E400352E60086202031DEE2E61080B
:100DB0006302031DEE2E5D085E040319EA2E5D0832
:100DC000840083135E188317840A5C088000840300
:100DD0005B0880000030F800F900012F5D085E0418
:100DE0000319FD2E5D08840083135E188317840A9F
:100DF000610880008403600880006608F8006708C6
:100E0000F9008312080083165408D6005308D50051
:100E1000D9015608DC005508DB00DE01D730DD00C3
:100E20000A30DF008312C72478088316DA005708D7
:100E30005502031D1F2F580856020319392F580851
:100E4000D6005708D5004B305907840083135A0841
:100E50008000D90A5608DC005508DB00DE01D730D7
:100E6000DD000A30DF008312C72478088316DA0019
:100E7000172F4B30F8000030F9008312080083165A
:100E8000D2015208043C031C882F0B308312031735
:100E90008D0001308F000313492232308316DA00AF
:100EA00083124F21BD2278088316CF00123083129F
:100EB00003178D0001308F000310073083160313D2
:100EC000D5008312222483164F08D90083120622EC
:100ED00002308316D300FA30DA0083124F218316D2
:100EE000D30B6B2F4F0F752F872F5208023C031D1A
:100EF000802FC13052078400831320308000D20A33
:100F0000C1305207840083134F088000D20A412F5A
:100F1000D401C130D3008312032779088316D1008E
:100F20007808D0005008F8005108F9008312080032
:100F300083165808F80157020318A12F5708F70025
:100F4000AD2FF7010830D900D70DF70D58087702FB
:100F50000318F700F80DD90BA42F831208007808A6
:100F600083165508D7006430D80083129827770875
:100F70008316D50078083030031DC52FD61CCE2F20
:100F8000D619CE2F561A2030C82FD6115612561405
:100F9000F8077808D9008312062283165508D7006F
:100FA0000A30D8008312982777088316D50078086E
:100FB0003030031DE12FD619E72F561CE72F561AA4
:100FC0002030F8077808D9008312062283163030C3
:0C0FD000D5075508D9008312062208003E
:10100000800803191E288316D2010408D10052104B
:10101000831B52140008D9008A11831206228A15F4
:10102000831651088400831352188317840A031D02
:101030001C288312850A8316831200280800831651
:10104000CE0143084E020318A2280C30D9008A11A1
:10105000831206228A1583164108840083134218DE
:1010600083178312002032308316DA008A1183122C
:101070004F218A158A11BD228A1578088316C4006B
:101080001730831203178D0001308F0003100730D3
:1010900083160313D5008A11831222248A1583161E
:1010A0004408D9008A11831206228A150230831659
:1010B000D100C830DA008A1183124F218A158316B5
:1010C000D10B5928440F6528A128D201CF30D10077
:1010D0004408D3005108840083135218831753081F
:1010E0008000013051078400831352188317800158
:1010F0005108F8005208F900D401CF30D3008A110A
:10110000831203278A1579088316CD007808CC004E
:10111000C5304E07F800FA010318FA0A7808D10022
:101120007A08D2004C08840083134D1883170008F6
:10113000D30051088400831352188317530880008A
:10114000CE0A2128CD01C530CC004C08F8004D084E
:10115000F900831208000830F8000430F700F70B9C
:10116000AF288711BD113D08831687000330F700B3
:10117000F70BB828D70D83120712031CC5283D169C
:101180003D0883168700C92883123D123D08831647
:10119000870000008312BD153D0883168700831267
:1011A000871DD028F80BAD280430F700F70BD628A0
:1011B0008711BD113D0883168700000083123D167C
:1011C0003D08831687000330F700F70BE52803304E
:1011D000F700F70BE9288312BD153D088316870039
:1011E0008312871DF128F8010330F700F70BF6286A
:1011F000071A78148711BD113D08831687008312E2
:1012000007123D123D0883168700831208003D1621
:101210003D08831687000430F700F70B0D29831271
:10122000BD153D08831687000330F700F70B16291C
:10123000831207123D123D08831687000430F70021
:10124000F70B202983128711BD113D0883168700F3
:10125000A030D7008312AB20780883165610781878
:10126000561483123D123D08831687000000831236
:10127000BD153D08831687008312871D3D29043064
:10128000F700F70B4129442900003D163D0883165D
:1012900087000430F700F70B4B290030561C013053
:1012A000F800831208000721F808031953293D1696
:1012B0003D08831687000430F700F70B5D29831281
:1012C000BD153D08831687000330F700F70B66292C
:1012D000831207123D123D08831687000430F70081
:1012E000F70B702983128711BD113D088316870003
:1012F000A030D7008312AB2083165408D700831286
:10130000AB203D163D08831687000430F700F70B2D
:1013100087298312BD153D08831687000330F70027
:10132000F70B90298312871D932907123D123D0860
:10133000831687000430F700F70B9C29831287116E
:10134000BD113D0883168700A130D7008312AB2062
:10135000F70108308316D7007708D80083123D16AE
:101360003D08831687000330F700F70BB529831279
:10137000BD153D08831687008312871DBD29071AF6
:101380000314071E0310F80D0430F700F70BC629ED
:10139000BD113D0883168700831287118316D70B72
:1013A000AE2983123D163D08831687000330F700EF
:1013B000F70BD82983120712831658080319E52959
:1013C00083123D123D088316870000008312BD156D
:1013D0003D08831687008312871DEC290430F7002F
:1013E000F70BF0298711BD113D08831687000330E4
:1013F000F700F70BF929831207123D123D088316F7
:1014000087007808D50083123D123D0883168700B7
:1014100000008312BD153D08831687008312871DC7
:101420000F2A0430F700F70B132A162A00003D1686
:101430003D08831687000430F700F70B1D2A550876
:10144000F800831208008316D2015208D4008312D8
:1014500053217808FF3C0319852A83165208D400CB
:101460008312532178088316D00001305207D3002D
:10147000D4008312532178088316D1004E088400CB
:1014800083134F18831700085002031D812A01306F
:101490004E07840083134F18831700085102031D61
:1014A000812AA530831203178D0000308F000310AE
:1014B0000B3083160313D5008A11831222248A1558
:1014C00083165008D5001B30D6008A118312AF272F
:1014D0008A1583165108D5001B30D6008A11831255
:1014E000AF278A1504308316D300FA30DA008A1148
:1014F00083124F218A158316D30B752A5208F800E0
:10150000D22A0730D207252A831283164E08840078
:1015100083134F1883170008D30001304E0784004F
:1015200083134F1883170008D400AD3083120317BC
:101530008D0000308F000310043083160313D50094
:101540008A11831222248A1583165308D5001B3072
:10155000D6008A118312AF278A1583165408D50046
:101560001B30D6008A118312AF278A15B1300317BA
:101570008D0000308F0003100D3083160313D5004B
:101580008A11831222248A1504308316D300FA307C
:10159000DA008A1183124F218A158316D30BC72ACA
:1015A000FF30F800831208000721F8080319D42A35
:1015B0003D163D08831687000430F700F70BDE2A3E
:1015C0008312BD153D08831687000330F700F70B23
:1015D000E72A831207123D123D0883168700043064
:1015E000F700F70BF12A83128711BD113D0883160E
:1015F0008700A030D7008312AB2083164F08D70096
:101600008312AB2083165008D7008312AB203D1203
:101610003D088316870000008312BD153D08831620
:1016200087008312871D122B0430F700F70B162B4F
:10163000192B00003D163D08831687000430F70083
:10164000F70B202B83120800D43003178D000030D5
:101650008F008A11031349228A150230E000FA3004
:101660008316DA008A1183124F218A15E00B2F2B83
:10167000DD3003178D0000308F008A1103134922DB
:101680008A150230E000FA308316DA008A118312DC
:101690004F218A15E00B432B8A11BD228A15780849
:1016A000DB00E73003178D0000308F0003100A3095
:1016B00083160313D5008A11831222248A155B082E
:1016C0008316D9008A11831206228A150230E0009F
:1016D000FA308316DA008A1183124F218A15E00B43
:1016E000682B5B08313A03197F2B033A0319872DC6
:1016F000313A0319422E073A0319442E472E8A1114
:101700003F278A157908E1007808E0006008840026
:101710008313611883170008E2000130600784001A
:101720008313611883170008E3001C3003178D0032
:1017300001308F000310053083160313D5008A1182
:10174000831222248A1562088316D5001B30D60026
:101750008A118312AF278A1563088316D5001B30C0
:10176000D6008A118312AF278A150430EA00C830E8
:101770008316DA008A1183124F218A15EA0BB72BE0
:1017800044308316A0006930A1006730A2006930A0
:10179000A3007430A4006530A5002030A60061309D
:1017A000A7002030A8007330A9006530AA006E3071
:1017B000AB006830AC006130AD00AE010430831284
:1017C000E9008316C201A030C100831269088316A4
:1017D000C30083121F207908E1007808E000600848
:1017E00084008313611883170008E4000130600748
:1017F00084008313611883170008E5000230600736
:1018000084008313611883170008E6000330600723
:1018100084008313611883170008E7002130031741
:101820008D0001308F0003100A3083160313D5009A
:101830008A11831222248A1564088316D5001B306E
:10184000D6008A118312AF278A1565088316D50042
:101850001B30D6008A118312AF278A1566088316BB
:10186000D5001B30D6008A118312AF278A1567086E
:101870008316D5001B30D6008A118312AF278A1534
:101880000430EA00C8308316DA008A1183124F212F
:101890008A15EA0B422C53308316AF007430B00027
:1018A0006130B1007430B2007530B3007330B400F1
:1018B0002030B5002830B6003030B7002C30B800EA
:1018C0003130B9002C30BA003330BB002930BC00B5
:1018D0003A30BD002030BE00BF0101308312E90064
:1018E0008316C201AF30C100831269088316C3009A
:1018F00083121F207908E1007808E0006008840066
:101900008313611883170008E8002B3003178D003C
:1019100001308F000310093083160313D5008A119C
:10192000831222248A1568088316D5001B30D6003E
:101930008A118312AF278A150430EA00C830831653
:10194000DA008A1183124F218A15EA0B9E2C831626
:10195000C2016230C100C4016430C3008312680850
:101960008316C500410884008313421883170008BA
:10197000633C031C672D0130410784008313421828
:1019800083170008633C031C672D4208CF00410801
:10199000CE00831223227808FF3C0319D12C831632
:1019A000672D8316CE014E08D40083125321780888
:1019B000FF3C0319E02C07308316CE07D32C83128B
:1019C00083164E08F8007808C60041088400831387
:1019D000421883170008C7000130410784008313B1
:1019E000421883170008C800430884008313441872
:1019F00083170008C900013043078400831344188B
:101A000083170008CA000230430784008313441878
:101A100083170008CB000330430784008313441866
:101A200083170008CC004508CD004608CF004708C2
:101A3000D0008312D422013083164607CE00CF0097
:101A40004808D0008312D422023083164607CE0005
:101A5000CF004908D0008312D422033083164607F2
:101A6000CE00CF004A08D0008312D422043083165F
:101A70004607CE00CF004B08D0008312D422053099
:101A800083164607CE00CF004C08D0008312D42224
:101A9000063083164607CE00CF004D08D0008312D3
:101AA000D422763003178D0000308F008A11031383
:101AB00049228A1502308316CE00FA30DA008A11E4
:101AC00083124F218A158316CE0B5D2D862D803013
:101AD000831203178D0000308F008A1103134922EF
:101AE0008A15893003178D0000308F008A11031387
:101AF00049228A1504308316CE00FA30DA008A11A2
:101B000083124F218A158316CE0B7D2D482E8A1104
:101B10003F278A157908DD007808DC005C0884001E
:101B200083135D1883170008DE0001305C07840012
:101B300083135D1883170008DF00E1015E30E000C9
:101B400061088316CF00831260088316CE008312CB
:101B500023227808E2006208FF3C03192C2E60085B
:101B600084008313611883170008ED0001306007BB
:101B700084008313611883170008EE00B830031740
:101B80008D0000308F000310043083160313D5003E
:101B90008A11831222248A156D088316D5001B3002
:101BA000D6008A118312AF278A156E088316D500D6
:101BB0001B30D6008A118312AF278A1507306207BF
:101BC000FF3EED008316D40083125321F808031D55
:101BD000FC2DED01EE016330840083136D08840752
:101BE0006E088A1160208A15800000380319FB2DC9
:101BF000EE0AED0AEB2D0E2EED01EE0163308400AE
:101C000083136D0884076E088A116D208A15800081
:101C1000003803190E2EEE0AED0AFE2DBD30031713
:101C20008D0000308F000310093083160313D50098
:101C30008A11831222248A156330840083130020C2
:101C40000430ED00FA308316DA008A1183124F2136
:101C50008A15ED0B222E402EC33003178D00003065
:101C60008F008A11031349228A150430ED00FA30DF
:101C70008316DA008A1183124F218A15ED0B372E55
:101C80008316482E8316482E8316482E83128316F9
:101C900083125B08053C031D4C2B8A150A12A72EE4
:101CA00003081F398300AC01AD01B101B201FF305F
:101CB000BD0083161F149F141F159F1107309C0031
:101CC00083138312BE01BF01C401C501C601C70150
:101CD000C801C901CA01CB01CC01CD01CE01CF01A0
:101CE000D001D101D40183160108C0390738810021
:101CF000B530831290008A1142298A158B168316FB
:101D00000C14C03083128B048A11BD298A155230FD
:101D1000F700F70B892E8C2E0000393003178D0049
:101D200001308F008A11031349228A15C8308316A7
:101D3000DA008A1183124F218A150E30D500D601A0
:101D40004630D7000A30D800D901DA00242B3230CF
:101D50008316DA008A1183124F218A15AE2E630092
:02400E00323F3F
:00000001FF
;PIC16F877A
;CRC=DCF1  CREATED="20-Nov-21 22:28"
