:100000000B308A00992B0000FF00030E8301A10032
:100010000A08A0008A010408A2007708A300780853
:10002000A4007908A5007A08A60003170D08031399
:10003000A70003170F080313A80003170C080313E6
:10004000A90003170E080313AA00831383128B1E43
:100050002B280B1952288C308400001C31280C18D6
:100060005528220884002308F7002408F8002508F2
:10007000F9002608FA00270803178D000313280843
:1000800003178F000313290803178C0003132A0892
:1000900003178E00031320088A00210E8300FF0E31
:1000A0007F0E09008A110A1293298A110A128F29D8
:1000B0000A108A100A11820728340F3401340634DA
:1000C0000A108A100A1182074E3441344F3420340A
:1000D0005034413447344F3400340A108A100A1126
:1000E00082075034413447344F3400348C2AF33A79
:1000F0006139E937A0216132E139743961326F0029
:100100008C2444106937E3376D38613A693B6536B2
:1001100000010D05D4326E3A6510EE37F630ED323F
:100120006E3A65008C2AF33A6139E937A020F43A37
:100130006136693D61326F008C2444106937E337C2
:100140006D38613A693B653600010D05D4326E3A6F
:100150006510EE37F630ED326E3A65000C10C23A9B
:10016000743A6F373A10253200000D05D03BBA12B1
:10017000E412E412E4126410533ABA126410253205
:1001800000008C244410453CE939F432BA12F512CF
:1001900075008C24441DA53AA53AA0060A22E93927
:1001A000F037EE34F6326C008C24441DA53AA53AA3
:1001B00000010D05533A613AF539BA1273008C2AE1
:1001C000F33A6139E9372027A022F834733A650001
:1001D0000C10D5396539A032F230F33264100000CA
:1001E0000D05341DA022E434F43072104336E93298
:1001F0006E3A65008C1A3A10D320492920326F10CC
:10020000CD32EE3A20000C104F38F4346F373A10EC
:10021000A53100018C29F531E332F339A0163E10E7
:10022000253200018C3AF33A6139E93720326536DC
:10023000653A61326F008C3AF33A6139E937202729
:10024000A022F834733A65000C22E933693A65104C
:10025000F536203B61366F3900010D05D630EC34A0
:10026000E43721000C102010D422432641224F10E5
:1002700020008C20E4366937A022EE316F377439C4
:1002800061326F000C106132ED34EE395B185D1D88
:10029000A01264008C34641DA53AA53A00000C221B
:1002A000E933693A65106F1049223A1000018A0655
:1002B000D43CF032641DA53100008A06D43CF032F3
:1002C000641DA53100008C34641DA012F512750068
:1002D0000C28C1295314B4143A10A53AA53AA53AEA
:1002E000A53A00018C29D420D42A531DA0127500F0
:1002F0000C28C1295314B4143A10A53AA53AA53ACA
:10030000A53A00018C29D420D42A531DA0127500CF
:100310008C2444104E10453CE939F43200000C1096
:100320008A110A1231280B118A110A1231280C1075
:10033000A034EE34E3346137E4372E172E1000007A
:10034000BD153D088316870083123D163D088316B0
:10035000870083128A150A12C62BDB3084008313B0
:1003600000080319C0290630F800F701F70BB62979
:10037000F80BB5297B30F700F70BBC29800BB329AC
:10038000080083166218C82983120812CA29831626
:100390008312081683160812E218D22983128812D3
:1003A000D429831683128816831688126219DC29D1
:1003B00083120813DE298316831208178316081385
:1003C000E219E62983128813E82983168312881715
:1003D0008316881389108312891483168910831257
:1003E0008910080083160911831209118316DF088A
:1003F000031DFE2983120911002A83168312091591
:1004000083160911A630F700F70B042A00008910A3
:10041000831289108316600EE1000F30E105610838
:10042000E2008312C121831660080F39E100E20067
:100430008312C12108008316081283120812831642
:1004400088128312881283160813831208138316E6
:1004500088138312881383160911831209118316D6
:100460008910831289100F308316DB008312AD21AF
:100470000130D5005508033C031C4A2A033083167B
:10048000E2008312C12105308316DB008312AD2107
:10049000D50A3A2A02308316E2008312C121D5011F
:1004A0005508033C031C612A55085820D6008316C2
:1004B000DF01831256088316E0008312F221D50A69
:1004C000502A8A150A12CF2B83165A080C3A831227
:1004D0000319742A063A0319802A073A0319802A55
:1004E000053A0319982A9F2A8316DF010130E0009C
:1004F0008312F22102308316DB008312AD21A62A7B
:1005000001308316DB000230DC005C0B882A8B2A6A
:100510004030DD008C2ADD0101305B02DD075D0823
:100520008038DE00DF015E08E0008312F221A62A97
:100530008316DF011030E0008312F221A62A013079
:100540008316DF005A08E0008312F22108000B082E
:100550008316D70083128B13831603178C170C1482
:10056000000000000313D71FB82A83128B178316CD
:10057000831203170C087F390319192B83160313F1
:10058000D700831203170D0883160313D8008312B4
:1005900003170F0883160313D9005708DA008312D4
:1005A000642283165808831203178D0083160313E1
:1005B0005908831203178F0003130B088316DA0000
:1005C00083128B13831603178C170C140000000082
:1005D0000313DA1FEE2A83128B1783168312031775
:1005E0000C0D0E0D7F390319192B83160313D70039
:1005F000831203170D0883160313D8008312031701
:100600000F0883160313D9005708DA0083126422F7
:1006100083165808831203178D0083160313590895
:10062000831203178F008D0A03198F0A0313A72A59
:10063000031703130800DC308316D700D801D90153
:1006400057085802031C272BD708031D662CD9080E
:10065000031D662C06108312061083168610831263
:1006600086148316061183120615831686118312CB
:10067000861514308316DB008312AD21831608140F
:10068000831208184C2B831608148312081C432B62
:1006900031308316D9008312831688148312881888
:1006A0005A2B831688148312881C512B34308316DE
:1006B000D90083128316081583120819682B831634
:1006C00008158312081D5F2B37308316D90083125B
:1006D0008316881583128819762B83168815831242
:1006E000881D6D2B2A308316D900831283160610BD
:1006F0008312061483168610831286108316061141
:1007000083120615831686118312861514308316FC
:10071000DB008312AD218316081483120818992B6D
:10072000831608148312081C902B32308316D900CC
:1007300083128316881483128818A72B83168814B3
:100740008312881C9E2B35308316D90083128316A2
:10075000081583120819B52B831608158312081D76
:10076000AC2B38308316D900831283168815831278
:100770008819C32B831688158312881DBA2B303035
:100780008316D9008312831606108312061483166B
:10079000861083128614831606118312061183169F
:1007A00086118312861514308316DB008312AD2167
:1007B0008316081483120818E62B83160814831274
:1007C000081CDD2B33308316D9008312831688145E
:1007D00083128818F42B831688148312881CEB2B41
:1007E00036308316D9008312831608158312081930
:1007F000022C831608158312081DF92B3930831635
:10080000D90083128316881583128819102C831639
:1008100088158312881D072C23308316D900831274
:10082000831606108312061483168610831286140C
:1008300083160611831206158316861183128611FC
:1008400014308316DB008312AD2183160814831243
:100850000818332C831608148312081C2A2C4130E4
:100860008316D90083128316881483128818412CAA
:10087000831688148312881C382C42308316D900C2
:10088000831283160815831208194F2C8316081536
:100890008312081D462C43308316D9008312831619
:1008A0008815831288195D2C831688158312881D7C
:1008B000542C44308316D900831205308316DB0094
:1008C0008312AD2105308316D807202BD908031DCC
:1008D0006B2CFF30D9005908F8007808D500550F67
:1008E000722C732C7C2C3230831203178D00013054
:1008F0008F000313A72283165508F80083120800FF
:100900000B088316D60083128B13831603178C17DC
:100910000C14000000000313D61F912C83128B17B8
:1009200083160318CA2C831203170C087F39831609
:100930000313D600831203170D0883160313D70081
:10094000831203170F0883160313D8005608DA0022
:100950008312642283165708831203178D008316AF
:1009600003135808831203178F0003130B08831611
:10097000D90083128B13831603178C170C140000F5
:1009800000000313D91FC72C83128B178316D50BB6
:10099000CA2CF82C831203170C0D0E0D7F39831609
:1009A0000313D600831203170D0883160313D70011
:1009B000831203170F0883160313D8005608DA00B2
:1009C0008312642283165708831203178D0083163F
:1009D00003135808831203178F008D0A03198F0A17
:1009E000031083160313D50BF62CF82C8312802CDE
:1009F0008312080003173708BA003608BC00350810
:100A0000BB00B908031D082D3808003C0318202D31
:100A10003C08FA003B08840083137A1883173A08CD
:100A20000002031D182D3B08F8003C08F900232D97
:100A3000BB0A0319BC0A38080319B903B803012D0E
:100A40000030F800F900031308008316E901E801FB
:100A50003030831203179000313091003230920011
:100A600033309300343094003530950036309600A2
:100A700037309700383098003930990061309A004B
:100A800062309B0063309C0064309D0065309E00A6
:100A900066309F006730A0006830A1006930A20076
:100AA0006A30A3006B30A4006C30A5006D30A60046
:100AB0006E30A7006F30A8007030A9007130AA0016
:100AC0007330AB007430AC007530AD007630AE00E2
:100AD0007730AF007830B0007930B1007A30B200B2
:100AE000B301831603135E08E3005D08E2006308A8
:100AF000FA006208840083137A1883170008203CE8
:100B0000031D862DE20A0319E30A772D6308FA0014
:100B10006208840083136318831700082D3C0319AF
:100B20009C2D6308FA0062088400831363188317FE
:100B300000082B3C031DA82D6308FA006208E20A96
:100B40000319E30A840083137A1883170008A92D78
:100B50002B30EA006A082D3C0319B92DE11BB92D91
:100B6000610BB32DB92DE11BBB2D6108243C03188B
:100B7000BB2D392F512EE1080319162E6108103CA8
:100B8000031DE52D6308FA006208840083137A18B8
:100B900083170008303C031DE52D013062078400F7
:100BA0008313631883170008783C0319E12D013083
:100BB000620784008313631883170008583C031DE1
:100BC000E52D0230E2070318E30A6108083C031D23
:100BD000F82D6308FA006208840083137A188317DB
:100BE0000008303C031DF82D0130E2070318E30A2A
:100BF0006108023C031D152E6308FA006208840098
:100C000083137A1883170008303C031D152E01301A
:100C1000620784008313631883170008623C031D76
:100C2000152E0230E2070318E30A512E6308FA007A
:100C30006208840083137A1883170008303C031974
:100C4000242E0A30E100512E013062078400831304
:100C5000631883170008783C0319382E01306207A7
:100C600084008313631883170008583C031D3F2E2C
:100C70001030E1000230E2070318E30A512E013080
:100C8000620784008313631883170008623C031D06
:100C90004F2E0230E100E2070318E30A512E08301C
:100CA000E1006308E5006208E4006308FA006208F6
:100CB000840083137A1883170008303C031D642EC8
:100CC000E20A0319E30A552E6308FA006208840059
:100CD0008313631883170008EB00403C0318772E3A
:100CE0006B085A3C031C772E6B082038782E6B0853
:100CF000EB00013083120317B6001030B5008316E5
:100D000003136B0883120317B700B901831603138B
:100D1000610883120317B8000313FA2479088316B5
:100D2000E7007808E600E608031D992EE708031996
:100D3000312FFA016108F700F71BFA03EB007A087C
:100D4000EC00690883120317B700831603136808C1
:100D500083120317B600831603136C08831203175C
:100D6000B900831603136B0883120317B800370802
:100D700039068039BB00B71FC22EB609B709B60ABB
:100D80000319B70AB91FC92EB809B909B80A031956
:100D9000B90A1030BA00F701FA01B70CB60C031CFF
:100DA000D72E3808F7070318FA0A3908FA07FA0C99
:100DB000F70CF90CF80CBA0BCD2EBB1FE42EF8097A
:100DC000F909F80A0319F90A790883160313EC00E4
:100DD0007808EB0010306602F7006708FA0001306F
:100DE000031C0230FA0277086B07F8006C0803183E
:100DF0006C0FFA077808E8007A08E900E20A03199C
:100E0000E30A6308FA0062088400831363188317F7
:100E10000008EB00403C0318142F6B085A3C031CDD
:100E2000142F6B082038152F6B08EB00013083124C
:100E30000317B6001030B500831603136B08831236
:100E40000317B700B9018316031361088312031750
:100E5000B8000313FA2479088316E7007808E6003F
:100E6000932E62086402031D4C2F63086502031D64
:100E70004C2F5F0860040319482F5F088400831318
:100E800060188317840A5E08800084035D08800070
:100E90000030F800F9005F2F5F08600403195B2F32
:100EA0005F088400831360188317840A6308800036
:100EB0008403620880006808F8006908F90083125A
:100EC000080083165608D8005508D700DB015808DB
:100ED000DE005708DD00E001D930DF000A30E10014
:100EE0008312252578088316DC0059085702031D54
:100EF0007D2F5A0858020319972F5A08D80059080D
:100F0000D7004B305B07840083135C088000DB0A4A
:100F10005808DE005708DD00E001D930DF000A3054
:100F2000E1008312252578088316DC00752F4B30ED
:100F3000F8000030F900831208008316D401540829
:100F4000043C031CE62F4F30831203178D00013041
:100F50008F000313A72232308316DB008312AD21EA
:100F60001B2378088316D1005730831203178D0096
:100F700001308F000310083083160313D50083124D
:100F8000802483165108DA0083126422023083160B
:100F9000D500C830DB008312AD218316D50BC92FD5
:100FA000510FD32FE52F5408023C031DDE2FC33011
:100FB00054078400831320308000D40AC3305407C0
:100FC0008400831351088000D40A9F2FD601C330B8
:100FD000D5008312612779088316D3007808D200E0
:0C0FE0005208F8005308F90083120800C2
:1010000083164D08F8014C02031809284C08F70014
:101010001528F7010830CE00CC0DF70D4D087702EA
:101020000318F700F80DCE0B0C288312080078087F
:1010300083164A08CC006430CD0083120020770864
:101040008316CA0078083030031D2D28CB1C3828A1
:10105000CB1938284B1A20303028CB114B124B14A7
:10106000F8077808DA008A11831264228A15831639
:101070004A08CC000A30CD0083120020770883167E
:10108000CA0078083030031D4B28CB1953284B1C5D
:1010900053284B1A2030F8077808DA008A11831297
:1010A00064228A1583163030CA074A08DA008A118A
:1010B000831264228A150800800803197A2883168F
:1010C000D4010408D3005410831B54140008DA0020
:1010D0008A11831264228A158316530884008313AD
:1010E00054188317840A031D78288312850A8316EF
:1010F00083125C2808008316D001450850020318AB
:10110000FE280C30DA008A11831264228A158316B5
:101110004308840083134418831783125C20323001
:101120008316DB008A118312AD218A158A111B23D5
:101130008A1578088316C6005D30831203178D0068
:1011400001308F000310083083160313D5008A1175
:10115000831280248A1583164608DA008A118312C6
:1011600064228A1502308316D300C830DB008A114E
:101170008312AD218A158316D30BB528460FC128DB
:10118000FD28D401D130D3004608D500530884008F
:1011900083135418831755088000013053078400C7
:1011A00083135418831780015308F8005408F9007A
:1011B000D601D130D5008A11831261278A157908AA
:1011C0008316CF007808CE00C7305007F800FA0128
:1011D0000318FA0A7808D3007A08D4004E0884006D
:1011E00083134F1883170008D50053088400831316
:1011F0005418831755088000D00A7D28CF01C730C6
:10120000CE004E08F8004F08F9008312080008309D
:10121000F8000430F700F70B0B298711BD113D08CA
:10122000831687000330F700F70B1429D90D8312BA
:101230000712031C21293D163D0883168700252926
:1012400083123D123D088316870000008312BD15EE
:101250003D08831687008312871D2C29F80B092966
:101260000430F700F70B32298711BD113D088316B2
:101270008700000083123D163D0883168700033067
:10128000F700F70B41290330F700F70B45298312CC
:10129000BD153D08831687008312871D4D29F8016F
:1012A0000330F700F70B5229071A78148711BD1184
:1012B0003D0883168700831207123D123D088316EE
:1012C0008700831208003D163D088316870004300E
:1012D000F700F70B69298312BD153D0883168700B7
:1012E0000330F700F70B7229831207123D123D08F5
:1012F000831687000430F700F70B7C2983128711CF
:10130000BD113D0883168700A030D9008312072144
:101310007808831658107818581483123D123D0827
:101320008316870000008312BD153D0883168700D1
:101330008312871D99290430F700F70B9D29A029F6
:1013400000003D163D08831687000430F700F70BB8
:10135000A7290030581C0130F800831208006321CF
:10136000F8080319AF293D163D088316870004309D
:10137000F700F70BB9298312BD153D0883168700C6
:101380000330F700F70BC229831207123D123D0804
:10139000831687000430F700F70BCC2983128711DE
:1013A000BD113D0883168700A030D90083120721A4
:1013B00083164908D900831207213D163D0883167C
:1013C00087000430F700F70BE3298312BD153D08B1
:1013D000831687000330F700F70BEC298312871D73
:1013E000EF2907123D123D08831687000430F700ED
:1013F000F70BF82983128711BD113D08831687006A
:10140000A130D90083120721F70108308316CC00E0
:101410007708CD0083123D163D0883168700033000
:10142000F700F70B112A8312BD153D0883168700BC
:101430008312871D192A071A0314071E0310F80DBB
:101440000430F700F70B222ABD113D0883168700F0
:10145000831287118316CC0B0A2A83123D163D088E
:10146000831687000330F700F70B342A8312071224
:1014700083164D080319412A83123D123D08831635
:10148000870000008312BD153D0883168700831274
:10149000871D482A0430F700F70B4C2A8711BD112D
:1014A0003D08831687000330F700F70B552A831297
:1014B00007123D123D08831687007808CA00831280
:1014C0003D123D088316870000008312BD153D08BC
:1014D000831687008312871D6B2A0430F700F70BF1
:1014E0006F2A722A00003D163D08831687000430DB
:1014F000F700F70B792A4A08F800831208008316D0
:10150000C7014708C9008312AF217808FF3C0319BF
:10151000DD2A83164708C9008312AF217808831695
:10152000C50001304707C800C9008312AF21780801
:101530008316C600430884008313441883170008E9
:101540004502031DD92A0130430784008313441840
:10155000831700084602031DD92AC13083120317DE
:101560008D0000308F0003100B3083160313D5005D
:101570008A11831280248A1583164508CA001B30FD
:10158000CB008312172083164608CA001B30CB00FD
:101590008312172004308316C800FA30DB008A114A
:1015A0008312AD218A158316C80BCD2A4708F8008F
:1015B000262B0730C707812A83128316430884002D
:1015C0008313441883170008C800013043078400C0
:1015D0008313441883170008C900C9308312031706
:1015E0008D0000308F000310043083160313D500E4
:1015F0008A11831280248A1583164808CA001B307A
:10160000CB008312172083164908CA001B30CB0079
:1016100083121720CD3003178D0000308F00031088
:101620000D3083160313D5008A11831280248A1586
:1016300004308316C800FA30DB008A118312AD2112
:101640008A158316C80B1B2BFF30F8008312080085
:101650006321F8080319282B3D163D0883168700DF
:101660000430F700F70B322B8312BD153D088316AB
:1016700087000330F700F70B3B2B831207123D1254
:101680003D08831687000430F700F70B452B8312C3
:101690008711BD113D0883168700A030D900831241
:1016A000072183165608D90083120721831657088D
:1016B000D900831207213D123D08831687000000E0
:1016C0008312BD153D08831687008312871D662B84
:1016D0000430F700F70B6A2B6D2B00003D163D0818
:1016E000831687000430F700F70B742B8312080071
:1016F000E3016308063C031C882B63086207E400CF
:101700008316D600FF30D70083122823E30A792BF3
:10171000E83003178D0000308F008A110313A722D1
:101720008A15C8308316DB008A118312AD218A1511
:10173000080003081F398300AC01AD01B101B201FB
:10174000FF30BD0083161F149F141F159F11073013
:101750009C0083138312BE01BF01C401C501C601F1
:10176000C701C801C901CA01CB01CC01CD01CE011D
:10177000CF01D001D101D40183160108C039073847
:101780008100B530831290008A11A0298A158B162A
:1017900083160C14C03083128B048A111B2A8A15FD
:1017A0005230F700F70BD22BD52B000097300317E0
:1017B0008D0001308F008A110313A7228A15C830CB
:1017C0008316DB008A118312AD218A150A168A114D
:1017D00000280A128A1532308316DB008A11831220
:0817E000AD218A15F22B630014
:10200000F03003178D0000308F000A120313A7224F
:102010000A160230DB00FA308316DB000A12831244
:10202000AD210A16DB0B0B28FA3003178D000030A8
:102030008F000A120313A7220A160230DB00FA30BF
:102040008316DB000A128312AD210A16DB0B1F2850
:102050000A121B230A167808D500033003178D00D7
:1020600001308F0003100A3083160313D5000A12C3
:10207000831280240A1655088316DA000A12831286
:1020800064220A160230DB00FA308316DB000A12E3
:102090008312AD210A16DB0B44285508313A031987
:1020A0005B28033A0319992A013A0319642B073A6A
:1020B0000319A72CC22E0A129D270A167908DC00E4
:1020C0007808DB005B08840083135C188317000822
:1020D000DD0001305B07840083135C188317000860
:1020E000DE00633003178D0001308F0003100530D0
:1020F00083160313D5000A12831280240A165D0882
:102100008316CA001B30CB000A128A1583121720CF
:102110000A168A115E088316CA001B30CB000A1209
:102120008A15831217200A168A110230F600FA3037
:102130008316DB000A128312AD210A16F60B9728CC
:102140004430E4006930E5006730E6006930E700BC
:102150007430E8006530E9002030EA006130EB00BF
:102160002030EC007330ED006530EE006E30EF0093
:102170006830F0006130F1003A30F2002030F300B6
:10218000F4010430F5008316C4016430C3007508FF
:10219000C5000A128A1583127B200A168A11790853
:1021A000DC007808DB005B08840083135C1883176D
:1021B0000008DF0001305B07840083135C1883177D
:1021C0000008E00002305B07840083135C1883176B
:1021D0000008E10003305B07840083135C18831759
:1021E0000008E200683003178D0001308F000310F3
:1021F0000A3083160313D5000A12831280240A16AC
:102200005F088316CA001B30CB000A128A1583129E
:1022100017200A168A1160088316CA001B30CB00EB
:102220000A128A15831217200A168A11610883166A
:10223000CA001B30CB000A128A15831217200A1617
:102240008A1162088316CA001B30CB000A128A1555
:10225000831217200A168A110230F600FA3083160C
:10226000DB000A128312AD210A16F60B2E29533019
:102270008316A0007430A1006130A2007430A30066
:102280007530A4007330A5002030A6002830A700C8
:102290003030A8002C30A9003130AA002C30AB001F
:1022A0003330AC002930AD003A30AE002030AF0002
:1022B000B0010130F500C401A030C3007508C500AD
:1022C0000A128A1583127B200A168A117908DC000B
:1022D0007808DB005B08840083135C188317000810
:1022E000E300723003178D0001308F0003100930B6
:1022F00083160313D5000A12831280240A1663087A
:102300008316CA001B30CB000A128A1583121720CD
:102310000A168A110230F600FA308316DB000A1220
:102320008312AD210A16F60B8C298316B2015D309B
:10233000B100B4015F30B300831263088316B500A7
:10234000310884008313321883170008633C031C90
:10235000792A01303107840083133218831700086B
:10236000633C031C792A3208C4003108C3000A12F6
:102370008A1583127F220A168A117808FF3C0319F6
:10238000C3298316792A8316BE013E08C9000A12A2
:102390008A158312AF210A168A117808FF3C0319A7
:1023A000D62907308316BE07C529831283163E0837
:1023B000F8007808B60031088400831332188317B8
:1023C0000008B700013031078400831332188317E7
:1023D0000008B800330884008313341883170008FA
:1023E000B9000130330784008313341883170008C1
:1023F000BA000230330784008313341883170008AF
:10240000BB0003303307840083133418831700089C
:10241000BC003508BD003608D6003708D7000A12C0
:102420008A15831228230A168A110130831636076B
:10243000BE00D6003808D7000A128A158312282356
:102440000A168A11023083163607BE00D6003908F4
:10245000D7000A128A15831228230A168A1103301C
:1024600083163607BE00D6003A08D7000A128A152E
:10247000831228230A168A11043083163607BE00F9
:10248000D6003B08D7000A128A15831228230A16A1
:102490008A11053083163607BE00D6003C08D700E7
:1024A0000A128A15831228230A168A110630831607
:1024B0003607BE00D6003D08D7000A128A158312DF
:1024C00028230A168A11763003178D0000308F00FA
:1024D0000A120313A7220A1602308316BE00FA302E
:1024E000DB000A128312AD210A168316BE0B6F2A77
:1024F000982A8030831203178D0000308F000A1253
:102500000313A7220A16893003178D0000308F00AD
:102510000A120313A7220A1604308316BE00FA30EB
:10252000DB000A128312AD210A168316BE0B8F2A16
:10253000E02E0A129D270A167908D7007808D600DF
:10254000560884008313571883170008D8000130F9
:10255000560784008313571883170008D900DC013D
:102560005830DB005C088316C40083125B088316B6
:10257000C3000A128A1583127F220A168A1178086C
:10258000DD005D08FF3C03194E2B5B0884008313BC
:102590005C1883170008E80001305B078400831390
:1025A0005C1883170008E900D43003178D00003051
:1025B0008F000310043083160313D5000A12831210
:1025C00080240A1668088316CA001B30CB000A1242
:1025D0008A15831217200A168A1169088316CA0001
:1025E0001B30CB000A128A15831217200A168A1193
:1025F00007305D07FF3EE8008316C9000A128A15FE
:102600008312AF210A168A11F808031D1A2BE8015C
:10261000E9015E30840083136808840769080A12A0
:1026200060200A16800000380319192BE90AE80A0D
:10263000092B2C2BE801E9015E3084008313680824
:10264000840769080A126D200A16800000380319F1
:102650002C2BE90AE80A1C2BD93003178D00003017
:102660008F000310093083160313D5000A1283125A
:1026700080240A165E30840083130A128A155C20B7
:102680000A168A110830E800FA308316DB000A12B5
:102690008312AD210A16E80B442B622BDF3003179F
:1026A0008D0000308F000A120313A7220A1604308F
:1026B000E800FA308316DB000A128312AD210A16F5
:1026C000E80B592B8316E02E0A129D270A1679086B
:1026D000D7007808D600560884008313571883174C
:1026E0000008D80001305607840083135718831759
:1026F0000008D900DC015830DB005C088316C400F8
:1027000083125B088316C3000A128A1583127F2284
:102710000A168A117808DD005D08FF3C031D932B23
:10272000FF30F800EF2B5D08DF0007305D07E000A9
:1027300060088316C9000A128A158312AF210A168F
:102740008A117808FF3C031DAF2B5F08E2000A12D4
:102750008A1578230A168A110130F800EF2B6008D9
:102760008316C9000A128A158312AF210A168A112C
:102770007808FF3C0319E42BE1016108063C031CC7
:10278000DF2B61086007E2008316C9000A128A1570
:102790008312AF210A168A117808DE0061085F07EC
:1027A000E2008316D60083125E088316D7000A1251
:1027B0008A15831228230A168A11E10ABD2B6008A4
:1027C000DF000730E007AF2B0730E0026008E200CF
:1027D0000A128A1578230A168A110130F80078083F
:1027E000DA000A3003178D0001308F0003100C301F
:1027F00083160313D5000A12831280240A165A087E
:10280000DB001830DC0020305C1E3030DD005B085F
:10281000F700DB1F132CF709F70A7708DB002D30D0
:10282000DD00DC175C145B088316CC006430CD003F
:102830000A128A15831200200A168A117708DB0013
:1028400030307807DE005B088316CC000A30CD00FC
:102850000A128A15831200200A168A11303077076F
:10286000E00030307807DF005D08F70030305E02AE
:1028700003193E2CDC14DC1B5C15522C5D08DE00B9
:102880002030DD0030305F0203194A2C5C14DC1B61
:10289000DC14522C031D5C14031D522C5E08DF0057
:1028A0002030DE005C19592CDC18602C5C18672C79
:1028B0006E2C5D088316DA000A12831264220A164F
:1028C0005E088316DA000A12831264220A165F0871
:1028D0008316DA000A12831264220A16600883162D
:1028E000DA000A12831264220A160230DB00FA3080
:1028F0008316DB000A128312AD210A16DB0B772C3C
:10290000DA1B912C5A08003C0318912C1230031743
:102910008D0001308F000A120313A7220A16FA0154
:102920009A2C1B3003178D0001308F000A120313FD
:10293000A7220A160230DB00FA308316DB000A12E7
:102940008312AD210A16DB0B9C2C8316E02E0A1293
:102950009D270A167908DC007808DB005B088400F4
:1029600083135C1883170008DD0001305B078400C7
:1029700083135C1883170008DE008316C4015D30E2
:10298000C3000A128A1583127F220A168A11780858
:10299000DF005F08FF3C0319AB2E44308316A00014
:1029A0006930A1006730A2006930A3007430A40030
:1029B0006530A5002030A6006130A7002030A800B7
:1029C0007330A9006530AA006E30AB006830AC00EF
:1029D0006130AD003A30AE002030AF00B0010430BD
:1029E0008312E7008316C401A030C3008312670876
:1029F0008316C5000A128A1583127B200A168A11D3
:102A00007908E1007808E000600884008313611809
:102A100083170008E2000130600784008313611807
:102A200083170008E30002306007840083136118F5
:102A300083170008E40003306007840083136118E3
:102A400083170008E500783003178D0001308F00F0
:102A500003100A3083160313D5000A128312802450
:102A60000A1662088316CA001B30CB000A128A15A8
:102A7000831217200A168A1163088316CA001B30B6
:102A8000CB000A128A15831217200A168A116408CD
:102A90008316CA001B30CB000A128A158312172036
:102AA0000A168A1165088316CA001B30CB000A1269
:102AB0008A15831217200A168A110230E800FA30AC
:102AC0008316DB000A128312AD210A16E80B5F2D74
:102AD00053308316B1007430B2006130B3007430EB
:102AE000B4007530B5007330B6002030B700283020
:102AF000B8003030B9002C30BA003130BB002C3077
:102B0000BC003330BD002930BE003A30BF00203059
:102B1000C000C10101308312E7008316C401B13047
:102B2000C300831267088316C5000A128A15831230
:102B30007B200A168A117908E1007808E000600815
:102B400084008313611883170008E600823003179E
:102B50008D0001308F000310093083160313D50058
:102B60000A12831280240A1666088316CA001B30D4
:102B7000CB000A128A15831217200A168A11023016
:102B8000E800FA308316DB000A128312AD210A1620
:102B9000E80BC12D8316C9015D30C800CB0162303E
:102BA000CA00831266088316CC0083125F0883165E
:102BB000CD00480884008313491883170008633C3C
:102BC000031C8A2E01304807840083134918831799
:102BD0000008633C031C8A2E4808840083134918AC
:102BE00083170008CE00013048078400831349187A
:102BF00083170008CF004A08840083134B188317FB
:102C00000008D00001304A07840083134B18831753
:102C10000008D10002304A07840083134B18831741
:102C20000008D20003304A07840083134B1883172F
:102C30000008D3004C08D4004D08D6004E08D70039
:102C40000A128A15831228230A168A110130831664
:102C50004D07D500D6004F08D7000A128A158312F7
:102C600028230A168A11023083164D07D500D60094
:102C70005008D7000A128A15831228230A168A11CF
:102C8000033083164D07D500D6005108D7000A122D
:102C90008A15831228230A168A11043083164D07D9
:102CA000D500D6005208D7000A128A1583122823AD
:102CB0000A168A11053083164D07D500D600530831
:102CC000D7000A128A15831228230A168A110630A1
:102CD00083164D07D500D6005408D7000A128A156E
:102CE000831228230A168A11923003178D000030B0
:102CF0008F000A120313A7220A1602308316D5008A
:102D0000FA30DB000A128312AD210A168316D50BA6
:102D1000802EA92E9C30831203178D0000308F0067
:102D20000A120313A7220A16A53003178D000030DC
:102D30008F000A120313A7220A1604308316D50047
:102D4000FA30DB000A128312AD210A168316D50B66
:102D5000A02EC02E8312883003178D0001308F0003
:102D60000A120313A7220A160230E800FA3083166B
:102D7000DB000A128312AD210A16E80BB62E831669
:102D8000E02E8312243003178D0001308F000A12C9
:102D90000313A7220A162D3003178D0001308F0070
:102DA0000A120313A7220A160230DB00FA30831638
:102DB000DB000A128312AD210A16DB0BD62E831616
:102DC00083125508353C031D28288A150A12E92B61
:02400E00323F3F
:00000001FF
;PIC16F877A
;CRC=733C  CREATED="21-Nov-21 16:49"
