:1000000007308A004F2F0000FF00030E8301A1007C
:100010000A08A0008A010408A2007708A300780853
:10002000A4007908A5007A08A60003170D08031399
:10003000A70003170F080313A80003170C080313E6
:10004000A90003170E080313AA00831383128B1E43
:100050002B280B1952288C308400001C31280C18D6
:100060005528220884002308F7002408F8002508F2
:10007000F9002608FA00270803178D000313280843
:1000800003178F000313290803178C0003132A0892
:1000900003178E00031320088A00210E8300FF0E31
:1000A0007F0E09008A110A122F298A110A122B29A0
:1000B0000A108A100A11820728340F3401340634DA
:1000C0000D0569325B185D1DA53A00008C2AF33AD4
:1000D0006139E937A0216132E139743961326F0049
:1000E0008C2444106937E3376D38613A693B6536D3
:1000F00000010D05D4326E3A6510EE37F630ED3260
:100100006E3A65000C10C23A743A6F373A102532D5
:1001100000100D05D03BBA12E412E412E412641090
:10012000533ABA126410253200008C24441045372B
:10013000E3376E3AF230E437BA12F51275000C105C
:1001400049222027A022EE316F37743961326F00C7
:100150000C10D5396539A032F230F332641000004A
:100160008C206432F232F3393A10253200008C24AC
:10017000441DA53A2C10453CE939F43200018C2489
:10018000441DA53A2C104E10453CE939F4320000CC
:100190000C104F38F4346F373A10A53100010C229F
:1001A000E933693A65106F10492200010C2A793849
:1001B0006532BA1263008C34641DA012F51275000A
:1001C0000C22E933693A65106110F3326E34610034
:1001D0000C2A79386532BA1263000C28C1295314ED
:1001E000B4143A10A53AA53AA53AA53A00018C29CB
:1001F000F430F43A731430163116B3143A000C2A62
:1002000079386532A029F430F43A731DA531000124
:100210008C29D420D42A531DA01275000C10201054
:10022000D422432641224F1020008C20E436693727
:10023000A022EE316F37743961326F000C106132D9
:10024000ED34EE395B185D1DA01264008C34643F00
:10025000BA12F51275000C108A110A1231280B110E
:100260008A110A1231280C10A034EE34E3346137BD
:10027000E4372E172E100000BD153D0883168700A9
:1002800083123D163D088316870083128A110A12D5
:100290007B2FB13084008313000803195C290630DA
:1002A000F800F701F70B5229F80B51297B30F700C2
:1002B000F70B5829800B4F2908008316381864293A
:1002C00083120812662983168312081683160812F1
:1002D000B8186E2983128812702983168312881623
:1002E0008316881238197829831208137A298316FD
:1002F0008312081783160813B819822983128813EA
:100300008429831683128817831688138910831211
:100310008914831689108312891008008316091125
:10032000831209118316B508031D9A298312091136
:100330009C2983168312091583160911A630F7002C
:10034000F70BA02900008910831289108316360E3E
:10035000B7000F30B7053708B80083125D21831648
:1003600036080F39B700B80083125D2108008316E4
:1003700008128312081283168812831288128316B9
:1003800008138312081383168813831288138316A5
:1003900009118312091183168910831289100F30F5
:1003A0008316B100831249210130D5005508033C62
:1003B000031CE62903308316B80083125D21053043
:1003C0008316B10083124921D50AD629023083163B
:1003D000B80083125D21D5015508033C031CFD299B
:1003E00055085820D6008316B50183125608831687
:1003F000B60083128E21D50AEC298A110A12822FA7
:10040000831630080C3A83120319102A063A03198E
:100410001C2A073A03191C2A053A0319342A3B2AD5
:100420008316B5010130B60083128E210230831687
:10043000B10083124921422A01308316B1000230F3
:10044000B200320B242A272A4030B300282AB301F5
:1004500001303102B30733088038B400B5013408E5
:10046000B60083128E21422A8316B5011030B600E1
:1004700083128E21422A01308316B5003008B6005F
:1004800083128E2108000B088316AC0083128B1395
:10049000831603178C170C14000000000313AC1F05
:1004A000542A83128B178316831203170C087F3983
:1004B0000319B52A83160313AC00831203170D0822
:1004C00083160313AD00831203170F08831603135B
:1004D000AE002C08B0008312002283162D08831270
:1004E00003178D00831603132E08831203178F0042
:1004F00003130B088316AF0083128B1383160317A5
:100500008C170C14000000000313AF1F8A2A8312FB
:100510008B178316831203170C0D0E0D7F390319E9
:10052000B52A83160313AC00831203170D08831634
:100530000313AD00831203170F0883160313AE00D5
:100540002C08B0008312002283162D088312031793
:100550008D00831603132E08831203178F008D0A54
:1005600003198F0A0313432A0317031308000830E3
:10057000F8000430F700F70BBB2A8711BD113D08C6
:10058000831687000330F700F70BC42AB00D8312DF
:100590000712031CD12A3D163D0883168700D52A71
:1005A00083123D123D088316870000008312BD159B
:1005B0003D08831687008312871DDC2AF80BB92AB1
:1005C0000430F700F70BE22A8711BD113D088316AE
:1005D0008700000083123D163D0883168700033014
:1005E000F700F70BF12A0330F700F70BF52A831217
:1005F000BD153D08831687008312871DFD2AF8016B
:100600000330F700F70B022B071A78148711BD117E
:100610003D0883168700831207123D123D0883169A
:100620008700831208003D163D08831687000430BA
:10063000F700F70B192B8312BD153D0883168700B1
:100640000330F700F70B222B831207123D123D08EF
:10065000831687000430F700F70B2C2B83128711C9
:10066000BD113D0883168700A030B0008312B72269
:10067000780883162F1078182F1483123D123D0826
:100680008316870000008312BD153D08831687007E
:100690008312871D492B0430F700F70B4D2B502B8D
:1006A00000003D163D08831687000430F700F70B65
:1006B000572B00302F1C0130F80083120800132341
:1006C000F80803195F2B3D163D0883168700043098
:1006D000F700F70B692B8312BD153D0883168700C1
:1006E0000330F700F70B722B831207123D123D08FF
:1006F000831687000430F700F70B7C2B83128711D9
:10070000BD113D0883168700A030B0008312B722C8
:1007100083162D08B0008312B7223D163D088316BC
:1007200087000430F700F70B932B8312BD153D08AB
:10073000831687000330F700F70B9C2B8312871D6D
:100740009F2B07123D123D08831687000430F700E7
:10075000F70BA82B83128711BD113D088316870064
:10076000A130B0008312B722F70108308316B00021
:100770007708B10083123D163D08831687000330C9
:10078000F700F70BC12B8312BD153D0883168700B8
:100790008312871DC92B071A0314071E0310F80DB7
:1007A0000430F700F70BD22BBD113D0883168700EC
:1007B000831287118316B00BBA2B83123D163D08A6
:1007C000831687000330F700F70BE42B8312071220
:1007D000831631080319F12B83123D123D0883164D
:1007E000870000008312BD153D0883168700831221
:1007F000871DF82B0430F700F70BFC2B8711BD1178
:100800003D08831687000330F700F70B052C831291
:1008100007123D123D08831687007808AE00831248
:100820003D123D088316870000008312BD153D0868
:10083000831687008312871D1B2C0430F700F70BEB
:100840001F2C222C00003D163D0883168700043023
:10085000F700F70B292C2E08F80083120800132349
:10086000F80803192F2C3D163D0883168700043025
:10087000F700F70B392C8312BD153D08831687004E
:100880000330F700F70B422C831207123D123D088C
:10089000831687000430F700F70B4C2C8312871166
:1008A000BD113D0883168700A030B0008312B72227
:1008B00083162808B0008312B72283162908B000D7
:1008C0008312B7223D123D08831687000000831271
:1008D000BD153D08831687008312871D6D2C0430DB
:1008E000F700F70B712C742C00003D163D088316A1
:1008F00087000430F700F70B7B2C83120800D5012A
:1009000055088316AD0083125F237808FF3C031956
:10091000AE2C5508D600D7015708063C031C9B2C6B
:1009200057085607D8008316A800FF30A900831285
:100930002F24D70A8C2CA83003178D0000308F008D
:10094000031343220230D800FA308316B100831219
:100950004921D80BA42C0730D507802C8A110A1204
:10096000992FDC30F400F501F60174087502031CC0
:10097000BC2CF408031DDB2DF608031DDB2D8316AC
:1009800006108312061083168610831286148316AF
:1009900006118312061583168611831286151430EC
:1009A0008316B10083124921831608148312081894
:1009B000E02C831608148312081CD92C3130F60061
:1009C0008316881483128818EC2C831688148312DB
:1009D000881CE52C3430F60083160815831208199C
:1009E000F82C831608158312081DF12C3730F600F9
:1009F0008316881583128819042D8316881583128F
:100A0000881DFD2C2A30F60083160610831206146A
:100A1000831686108312861083160611831206151C
:100A2000831686118312861514308316B100831243
:100A300049218316081483120818252D83160814DB
:100A40008312081C1E2D3230F60083168814831280
:100A50008818312D831688148312881C2A2D35306E
:100A6000F60083160815831208193D2D8316081504
:100A70008312081D362D3830F60083168815831230
:100A80008819492D831688158312881D422D303010
:100A9000F60083160610831206148316861083123E
:100AA000861483160611831206118316861183128B
:100AB000861514308316B100831249218316081459
:100AC000831208186A2D831608148312081C632DDC
:100AD0003330F6008316881483128818762D831617
:100AE00088148312881C6F2D3630F6008316081583
:100AF00083120819822D831608158312081D7B2D79
:100B00003930F60083168815831288198E2D8316C6
:100B100088158312881D872D2330F6008316061052
:100B20008312061483168610831286148316061108
:100B300083120615831686118312861114308316CC
:100B4000B100831249218316081483120818AF2DAF
:100B5000831608148312081CA82D4130F600831652
:100B6000881483128818BB2D831688148312881C5E
:100B7000B42D4230F6008316081583120819C72DCC
:100B8000831608158312081DC02D4330F600831606
:100B9000881583128819D32D831688158312881D12
:100BA000CC2D4430F60005308316B1008312492164
:100BB0000530F507B52CF608031DE02DFF30F600D3
:100BC0007608F8007808F200720FE72DE82DEF2D77
:100BD0000E3003178D0001308F000313432272087B
:100BE000F80008000B088316AD0083128B138316E0
:100BF00003178C170C14000000000313AD1F032E05
:100C000083128B17831603183C2E831203170C08CC
:100C10007F3983160313AD00831203170D08831663
:100C20000313AE00831203170F0883160313AF00DC
:100C30002D08B0008312002283162E08831203179A
:100C40008D00831603132F08831203178F000313DD
:100C50000B088316B00083128B13831603178C17AF
:100C60000C14000000000313B01F392E83128B17E1
:100C70008316AC0B3C2E6A2E831203170C0D0E0D3F
:100C80007F3983160313AD00831203170D088316F3
:100C90000313AE00831203170F0883160313AF006C
:100CA0002D08B0008312002283162E08831203172A
:100CB0008D00831603132F08831203178F008D0AEC
:100CC00003198F0A031083160313AC0B682E6A2EC8
:100CD0008312F22D8312080083165608D900550896
:100CE000DB005408DA00D808031D7A2E5708003CB0
:100CF0000318922E5B08FA005A08840083137A18AE
:100D0000831759080002031D8A2E5A08F8005B0851
:100D1000F900952EDA0A0319DB0A57080319D803DC
:100D2000D703732E0030F800F900831208008316F1
:100D30003008F8012F020318A02E2F08F700AC2E60
:100D4000F7010830B100AF0DF70D30087702031836
:100D5000F700F80DB10BA32E831208007808831654
:100D60002C08AF006430B0008312972677088316F2
:100D7000AC0078083030031DC42EAD1CCD2EAD194B
:100D8000CD2E2D1A2030C72EAD112D122D14F8079F
:100D90007808B0008312002283162C08AF000A30B6
:100DA000B0008312972677088316AC00780830309D
:100DB000031DE02EAD19E62E2D1CE62E2D1A203037
:100DC000F8077808B0008312002283163030AC0791
:100DD0002C08B0008312002208007308F500720886
:100DE000F400F60175088316A2007408A100A4019E
:100DF0007B30A3000A30A5008A15831200208A11D7
:100E00007808FD007B087402031D0A2F7C08750218
:100E10000319372F0A308316B000831200227D0891
:100E20008316AC001B30AD008312AE263230831621
:100E3000B100831249217C08F5007B08F4004B3097
:100E40007607840083137D088000F60A75088316F0
:100E5000A2007408A100A4017B30A3000A30A50001
:100E60008A15831200208A117808FD00022F4B306A
:100E7000F8000030F900080072088400831373182A
:100E8000831774088000013072078400831373187D
:100E9000831780017208F8007308F900080003083E
:100EA0001F398300AC01AD01B101B201FF30BD00BB
:100EB00083161F149F141F159F1107309C00831366
:100EC0008312BE01BF01C401C501C601C701C8012B
:100ED000C901CA01CB01CC01CD01CE01CF01D001A6
:100EE000D101D40183160108C03907388100B5301B
:100EF000831290003C298B1683160C14C030831289
:100F00008B04B7295230F700F70B842F872F00008E
:100F1000333003178D0001308F000313432202305A
:100F2000D500FA308316B10083124921D50B912FD9
:100F30007F2C8A15142A8A1132308316B10083124D
:060F40004921A12F63000E
:101000008316AD01AC013030AF003130B00032306A
:10101000B1003330B2003430B3003530B400363074
:10102000B5003730B6003830B7003930B80061301D
:10103000B9006230BA006330BB006430BC00653078
:10104000BD006630BE006730BF006830C000693048
:10105000C1006A30C2006B30C3006C30C4006D3018
:10106000C5006E30C6006F30C7007030C8007130E8
:10107000C9007330CA007430CB007530CC007630B4
:10108000CD007730CE007830CF007930D0007A3084
:10109000D100D2012208A7002108A6002708FA00E3
:1010A0002608840083137A1883170008203C031D48
:1010B0005D28A60A0319A70A4E282708FA00260861
:1010C000840083132718831700082D3C0319732805
:1010D0002708FA00260884008313271883170008BE
:1010E0002B3C031D7F282708FA002608A60A0319AF
:1010F000A70A840083137A188317000880282B30EE
:10110000AE002E082D3C03199028A51B9028250B16
:101110008A289028A51B92282508243C0318922889
:10112000EC292829A5080319ED282508103C031DE2
:10113000BC282708FA002608840083137A1883172E
:101140000008303C031DBC280130260784008313AF
:10115000271883170008783C0319B82801302607A0
:1011600084008313271883170008583C031DBC28EC
:101170000230A6070318A70A2508083C031DCF283C
:101180002708FA002608840083137A1883170008BA
:10119000303C031DCF280130A6070318A70A2508F5
:1011A000023C031DEC282708FA002608840083135C
:1011B0007A1883170008303C031DEC2801302607FD
:1011C00084008313271883170008623C031DEC2852
:1011D0000230A6070318A70A28292708FA002608BC
:1011E000840083137A1883170008303C0319FB2806
:1011F0000A30A50028290130260784008313271808
:1012000083170008783C03190F2901302607840052
:101210008313271883170008583C031D1629103024
:10122000A5000230A6070318A70A282901302607BF
:1012300084008313271883170008623C031D2629A6
:101240000230A500A6070318A70A28290830A50020
:101250002708A9002608A8002708FA002608840005
:1012600083137A1883170008303C031D3B29A60A14
:101270000319A70A2C292708FA00260884008313DB
:10128000271883170008D300403C03184E29530841
:101290005A3C031C4E29530820384F295308D300C9
:1012A000D501AF30D4005308D600D8012508D700A7
:1012B0008A1183126C268A1579088316AB00780888
:1012C000AA00AA08031D6729AB080319E429FA013B
:1012D0002508F700F71BFA03D3007A08D4002D087D
:1012E000D6002C08D5005408D8005308D70056085B
:1012F00058068039DA00D61F8229D509D609D50AC1
:101300000319D60AD81F8929D709D809D70A03197A
:10131000D80A1030D900F701FA01D60CD50C031CFD
:1013200097295708F7070318FA0A5808FA07FA0C1A
:10133000F70CF90CF80CD90B8D29DA1FA429F80940
:10134000F909F80A0319F90A7908D4007808D300D2
:10135000AF302A02F7002B08FA000030031C0130DE
:10136000FA0277085307AC005408AD007A08031856
:101370007A0FAD07A60A0319A70A2708FA0026085C
:1013800084008313271883170008D300403C0318F8
:10139000D02953085A3C031CD02953082038D1299E
:1013A0005308D300D501AF30D4005308D600D8017C
:1013B0002508D7008A1183126C268A1579088316AE
:1013C000AB007808AA00612926082802031DFF291E
:1013D00027082902031DFF29230824040319FB29D8
:1013E00023088400831324188317840A22088000AA
:1013F0008403210880000030F800F900122A230835
:10140000240403190E2A2308840083132418831745
:10141000840A270880008403260880002C08F8002E
:101420002D08F900831208008A11B1248A15780862
:10143000E300C83003178D0000308F0003100A301E
:1014400083160313AC008A118312F2258A156308F0
:101450008316B0008A11831200228A150230F2002E
:10146000FA308316B1008A11831249218A15F20BD2
:10147000302A6308313A0319472A333A0319D92D20
:10148000013A0319DA2D073A0319DB2DDC2DED01A2
:101490006D08043C031C972ACF3003178D000030E1
:1014A0008F008A11031343228A1532308316B1004C
:1014B0008A11831249218A158A11B1248A15780864
:1014C000E300D63003178D0000308F000310073083
:1014D00083160313AC008A118312F2258A15630860
:1014E0008316B0008A11831200228A150230F2009E
:1014F000FA308316B1008A11831249218A15F20B42
:10150000782A630F842A962A6D08023C031D8F2ACD
:1015100055306D078400831320308000ED0A55306C
:101520006D078400831363088000ED0A482AF301E5
:101530005530F2008A11ED268A157908E500780801
:10154000E400640884008313651883170008E6002C
:101550000130640784008313651883170008E700CF
:10156000DB3003178D0000308F0003100530831629
:101570000313AC008A118312F2258A1566088316BC
:10158000AC001B30AD008A118312AE268A156708A5
:101590008316AC001B30AD008A118312AE268A156B
:1015A0000430F200FA308316B1008A118312492107
:1015B0008A15F20BD22AED016D08033C031C402B67
:1015C000E03003178D0000308F008A11031343228F
:1015D0008A1532308316B1008A11831249218A1587
:1015E0008A11B1248A157808E300E83003178D00CA
:1015F00000308F000310073083160313AC008A11EC
:101600008312F2258A1563088316B0008A118312AB
:1016100000228A150230F200FA308316B1008A11D6
:10162000831249218A15F20B0C2B630F182B3F2BC9
:10163000F3016E30F2006308F4008A113C278A152A
:10164000F3016E30F2008A11ED268A157908E50063
:101650007808E40068306D07F200F3010318F30A1C
:10166000640884008313651883170008F400720867
:10167000840083137318831774088000ED0ADC2A32
:10168000ED3003178D0000308F0003100A308316F1
:101690000313AC008A118312F2258A156808831699
:1016A000AC001B30AD008A118312AE268A15690882
:1016B0008316AC001B30AD008A118312AE268A154A
:1016C0006A088316AC001B30AD008A118312AE2667
:1016D0008A156B088316AC001B30AD008A1183128B
:1016E000AE268A150430F200FA308316B1008A1152
:1016F000831249218A15F20B742BED01ED08031DAD
:10170000D42BF73003178D0000308F008A1103139C
:1017100043228A1532308316B1008A11831249217F
:101720008A158A11B1248A157808E300FF3003175F
:101730008D0000308F0003100E3083160313AC00B1
:101740008A118312F2258A1563088316B0008A1164
:10175000831200228A150230F200FA308316B1009B
:101760008A11831249218A15F20BAD2B630FB92B15
:10177000D32BF3017030F2006308F4008A113C2788
:101780008A15F3017030F2008A11ED268A15790866
:10179000E5007808E4006408840083136518831763
:1017A0000008EC00ED0A7E2B083003178D00013095
:1017B0008F000310093083160313AC008A118312C3
:1017C000F2258A156C088316AC001B30AD008A1117
:1017D0008312AE268A150430F200FA308316B10067
:1017E0008A11831249218A15F20BED2BF301663021
:1017F000F200F5016830F4006C08F600720884000D
:101800008313731883170008FC00603003178D00E2
:1018100000308F000310083083160313AC008A11C8
:101820008312F2258A157C088316AC001B30AD00AC
:101830008A118312AE268A150430FC00FA30831612
:10184000B1008A11831249218A15FC0B1E2C7208E3
:101850008400831373188317013072078400831385
:101860007318831773088316A8007208A700AB01CA
:101870002B08AD008A1183125F238A157808FF3C7C
:1018800003199E2C83162B08AD008A1183125F2347
:101890008A1578088316A90001302B07AC00AD002B
:1018A0008A1183125F238A1578088316AA002708F5
:1018B000840083132818831700082902031D9A2C1B
:1018C00001302707840083132818831700082A0291
:1018D000031D9A2C9530831203178D0000308F0062
:1018E00003100F3083160313AC008A118312F22504
:1018F0008A1583162908AC001B30AD008A118312AB
:10190000AE268A1583162A08AC001B30AD008A115A
:101910008312AE268A1504308316AC00FA30B1006B
:101920008A11831249218A158316AC0B8E2C2B0841
:10193000F800AA2C0730AB07382C83129F3003170E
:101940008D0000308F008A11031343228A15FF3067
:10195000F8008316A7012708AD008A1183125F23C0
:101960008A157808FF3C0319BA2C07308316A7079D
:10197000AB2C8312B03003178D0000308F000310A2
:101980000A3083160313AC008A118312F2258A15DC
:1019900083162708A9001830AA0020302A1E3030EC
:1019A000AB002908F700A91FDD2CF709F70A770813
:1019B000A9002D30AB00AA172A142908AF00643003
:1019C000B0008A11831297268A1577088316A9001A
:1019D00030307807AC002908AF000A30B0008A1117
:1019E000831297268A15303077078316AE00303081
:1019F0007807AD002B08F70030302C020319042DB6
:101A0000AA14AA1B2A15182D2B08AC002030AB00F5
:101A100030302D020319102D2A14AA1BAA14182DD8
:101A2000031D2A14031D182D2C08AD002030AC0016
:101A30002A191F2DAA18262D2A182D2D342D2B08D2
:101A4000B0008A11831200228A1583162C08B00078
:101A50008A11831200228A1583162D08B0008A117C
:101A6000831200228A1583162E08B0008A11831271
:101A700000228A1504308316A900FA30B1008A11B9
:101A8000831249218A158316A90B3D2D2708F800DA
:101A90007808FB007208840083137318831700080A
:101AA000A0000130720784008313731883170008A5
:101AB000A100740884008313751883170008A2001E
:101AC0000130740784008313751883170008A3007E
:101AD0000230740784008313751883170008A4006C
:101AE0000330740784008313751883170008A5005A
:101AF0007608A6007B08A8002008A9008A11831296
:101B00002F248A1501307B07FC008316A8002108CA
:101B1000A9008A1183122F248A1502307B07FC004A
:101B20008316A8002208A9008A1183122F248A157F
:101B300003307B07FC008316A8002308A9008A1144
:101B400083122F248A1504307B07FC008316A8001B
:101B50002408A9008A1183122F248A1505307B07D7
:101B6000FC008316A8002508A9008A1183122F24DF
:101B70008A1506307B07FC008316A8002608A900FA
:101B80008A1183122F248A15663003178D000030C6
:101B90008F008A11031343228A150230FC00FA30A9
:101BA0008316B1008A11831249218A15FC0BCF2DAF
:101BB000DC2DDC2DDC2DDC2D6308043C031D142AF8
:061BC0008A110A129B2F9E
:02400E00323F3F
:00000001FF
;PIC16F877A
;CRC=BC1B  CREATED="20-Nov-21 19:34"
