:100000000D308A00CB2D0000FF00030E8301A100FC
:100010000A08A0008A010408A2007708A300780853
:10002000A4007908A5007A08A60003170D08031399
:10003000A70003170F080313A80003170C080313E6
:10004000A90003170E080313AA00831383128B1E43
:100050002B280B1952288C308400001C31280C18D6
:100060005528220884002308F7002408F8002508F2
:10007000F9002608FA00270803178D000313280843
:1000800003178F000313290803178C0003132A0892
:1000900003178E00031320088A00210E8300FF0E31
:1000A0007F0E09008A110A1210298A110A120C29DE
:1000B0000A108A100A11820728340F3401340634DA
:1000C0008C2AF33A6139E937A0216132E139743978
:1000D00061326F008C2444106937E3376D38613A20
:1000E000693B653600010D05D4326E3A6510EE3776
:1000F000F630ED326E3A65000C10C23A743A6F3742
:100100003A10253200000D05D03BBA12E412E41279
:10011000E4126410533ABA126410253200008C24A1
:1001200044104537E3376E3AF230E437BA12F5122D
:1001300075000C1049222027A022EE316F37743948
:1001400061326F000C10D5396539A032F230F332CC
:10015000641000008C206432F232F3393A102532F8
:1001600000008C24441DA53A2C10453CE939F4329A
:1001700000018C24441DA53A2C104E10453CE93951
:10018000F43200000C104F38F4346F373A10A531B8
:1001900000000C102010D422432641224F102000D2
:1001A0008C20E4366937A022EE316F377439613222
:1001B0006F000C106132ED34EE395B185D1DA0123A
:1001C00064008C34643FBA12F51275000C22E933D6
:1001D000693A65106F10492200010C2A793865329E
:1001E000BA1263000C2A79386532BA1263008C3473
:1001F000641DA012F51275000C28C1295314B41403
:100200003A10A53AA53AA53AA53A00018C29D4207E
:10021000D42A531DA01275000C108A110A1231281D
:100220000B118A110A1231280C10A034EE34E33479
:100230006137E4372E172E100000BD153D088316D8
:10024000870083123D163D088316870083128A15A6
:100250000A12F82DC93084008313000803193D29C0
:100260000630F800F701F70B3329F80B32297B3001
:10027000F700F70B3929800B302908008316501836
:1002800045298312081247298316831208168316FC
:100290000812D0184F29831288125129831683120D
:1002A00088168316881250195929831208135B295E
:1002B00083168312081783160813D0196329831233
:1002C000881365298316831288178316881389106B
:1002D00083128914831689108312891008008316EB
:1002E0000911831209118316CD08031D7B2983127E
:1002F00009117D2983168312091583160911A63069
:10030000F700F70B812900008910831289108316EA
:100310004E0ECF000F30CF054F08D00083123E2184
:1003200083164E080F39CF00D00083123E210800FB
:1003300083160812831208128316881283128812F9
:1003400083160813831208138316881383128813E5
:1003500083160911831209118316891083128910DB
:100360000F308316C90083122A210130D5005508A9
:10037000033C031CC72903308316D00083123E219F
:1003800005308316C90083122A21D50AB729023005
:100390008316D00083123E21D5015508033C031C6F
:1003A000DE2955085820D6008316CD018312560841
:1003B0008316CE0083126F21D50ACD298A150A1221
:1003C000012E831648080C3A83120319F129063AC4
:1003D0000319FD29073A0319FD29053A0319152ABE
:1003E0001C2A8316CD010130CE0083126F2102300A
:1003F0008316C90083122A21232A01308316C900DB
:100400000230CA004A0B052A082A4030CB00092ACC
:10041000CB0101304902CB074B088038CC00CD011D
:100420004C08CE0083126F21232A8316CD01103091
:10043000CE0083126F21232A01308316CD00480895
:10044000CE0083126F2108000B088316C5008312AB
:100450008B13831603178C170C1400000000031372
:10046000C51F352A83128B178316831203170C08B6
:100470007F390319962A83160313C50083120317C5
:100480000D0883160313C600831203170F08831683
:100490000313C7004508C8008312E12183164608EC
:1004A000831203178D008316031347088312031763
:1004B0008F0003130B088316C80083128B13831657
:1004C00003178C170C14000000000313C81F6B2ABD
:1004D00083128B178316831203170C0D0E0D7F39B1
:1004E0000319962A83160313C500831203170D08F8
:1004F00083160313C600831203170F088316031312
:10050000C7004508C8008312E121831646088312FC
:1005100003178D00831603134708831203178F00F8
:100520008D0A03198F0A0313242A031703130800E3
:100530000830F8000430F700F70B9C2A8711BD1132
:100540003D08831687000330F700F70BA52AC70D77
:1005500083120712031CB22A3D163D08831687003A
:10056000B62A83123D123D088316870000008312CD
:10057000BD153D08831687008312871DBD2AF80B21
:100580009A2A0430F700F70BC32A8711BD113D08E2
:1005900083168700000083123D163D0883168700EE
:1005A0000330F700F70BD22A0330F700F70BD62AF7
:1005B0008312BD153D08831687008312871DDE2A2E
:1005C000F8010330F700F70BE32A071A78148711B4
:1005D000BD113D0883168700831207123D123D08A6
:1005E00083168700831208003D163D088316870096
:1005F0000430F700F70BFA2A8312BD153D08831665
:1006000087000330F700F70B032B831207123D120C
:100610003D08831687000430F700F70B0D2B83127B
:100620008711BD113D0883168700A030C7008312D3
:1006300098227808831646107818461483123D12C3
:100640003D088316870000008312BD153D08831600
:1006500087008312871D2A2B0430F700F70B2E2BFF
:10066000312B00003D163D08831687000430F7004B
:10067000F70B382B0030461C0130F80083120800BD
:10068000F422F8080319402B3D163D088316870015
:100690000430F700F70B4A2B8312BD153D08831673
:1006A00087000330F700F70B532B831207123D121C
:1006B0003D08831687000430F700F70B5D2B83128B
:1006C0008711BD113D0883168700A030C700831233
:1006D000982283164408C700831298223D163D08CD
:1006E000831687000430F700F70B742B8312BD15B7
:1006F0003D08831687000330F700F70B7D2B83122C
:10070000871D802B07123D123D0883168700043099
:10071000F700F70B892B83128711BD113D08831653
:100720008700A130C70083129822F7010830831692
:10073000C7007708C80083123D163D08831687005E
:100740000330F700F70BA22B8312BD153D0883166B
:1007500087008312871DAA2B071A0314071E031094
:10076000F80D0430F700F70BB32BBD113D088316CD
:100770008700831287118316C70B9B2B83123D16AC
:100780003D08831687000330F700F70BC52B831253
:100790000712831648080319D22B83123D123D0815
:1007A0008316870000008312BD153D08831687005D
:1007B0008312871DD92B0430F700F70BDD2B87112F
:1007C000BD113D08831687000330F700F70BE62BB9
:1007D000831207123D123D08831687007808C50072
:1007E00083123D123D088316870000008312BD1559
:1007F0003D08831687008312871DFC2B0430F70009
:10080000F70B002C032C00003D163D0883168700D3
:100810000430F700F70B0A2C4508F8008312080093
:10082000F422F8080319102C3D163D0883168700A2
:100830000430F700F70B1A2C8312BD153D08831600
:1008400087000330F700F70B232C831207123D12A9
:100850003D08831687000430F700F70B2D2C831218
:100860008711BD113D0883168700A030C700831291
:10087000982283163F08C7008312982283164008E7
:10088000C700831298223D123D088316870000009E
:100890008312BD153D08831687008312871D4E2CD9
:1008A0000430F700F70B522C552C00003D163D0884
:1008B000831687000430F700F70B5C2C83120800C6
:1008C000D50155088316C400831240237808FF3CE5
:1008D00003198F2C5508D600D7015708063C031C76
:1008E0007C2C57085607D8008316BF00FF30C00085
:1008F00083121024D70A6D2CA23003178D0000300C
:100900008F00031324220230D800FA308316C90066
:1009100083122A21D80B852C0730D507612C8A1524
:100920000A121A2EDC308316C500C601C70145081D
:100930004602031C9E2CC508031DDD2DC708031DA0
:10094000DD2D06108312061083168610831286147E
:1009500083160611831206158316861183128615D7
:1009600014308316C90083122A21831608148312B7
:100970000818C32C831608148312081CBA2C3130B3
:100980008316C70083128316881483128818D12C0B
:10099000831688148312881CC82C34308316C70031
:1009A00083128316081583120819DF2C8316081585
:1009B0008312081DD62C37308316C7008312831686
:1009C000881583128819ED2C831688158312881DCB
:1009D000E42C2A308316C700831283160610831274
:1009E000061483168610831286108316061183124E
:1009F0000615831686118312861514308316C900D6
:100A000083122A218316081483120818102D8316C6
:100A100008148312081C072D32308316C700831276
:100A200083168814831288181E2D83168814831247
:100A3000881C152D35308316C700831283160815C0
:100A4000831208192C2D831608158312081D232DD7
:100A500038308316C70083128316881583128819CD
:100A60003A2D831688158312881D312D3030831658
:100A7000C70083128316061083120614831686108D
:100A800083128614831606118312061183168611AB
:100A90008312861514308316C90083122A21831607
:100AA0000814831208185D2D831608148312081C7D
:100AB000542D33308316C700831283168814831293
:100AC00088186B2D831688148312881C622D36308B
:100AD0008316C70083128316081583120819792D0F
:100AE000831608158312081D702D39308316C70030
:100AF00083128316881583128819872D831688150B
:100B00008312881D7E2D23308316C700831283161F
:100B10000610831206148316861083128614831619
:100B2000061183120615831686118312861114305E
:100B30008316C90083122A21831608148312081809
:100B4000AA2D831608148312081CA12D4130831688
:100B5000C70083128316881483128818B82D831651
:100B600088148312881CAF2D42308316C70083126D
:100B70008316081583120819C62D831608158312CB
:100B8000081DBD2D43308316C700831283168815B8
:100B900083128819D42D831688158312881DCB2DB6
:100BA00044308316C700831205308316C9008312B0
:100BB0002A2105308316C607972CC708031DE22D8E
:100BC000FF30C7004708F8007808C300430FE92D3D
:100BD000EA2DF32DC930831203178D0000308F00EA
:100BE0000313242283164308F800831208000B081D
:100BF0008316C40083128B13831603178C170C14EF
:100C0000000000000313C41F082E83128B178316E5
:100C10000318412E831203170C087F398316031320
:100C2000C400831203170D0883160313C500831233
:100C300003170F0883160313C6004408C800831265
:100C4000E12183164508831203178D0083160313D1
:100C50004608831203178F0003130B088316C7007F
:100C600083128B13831603178C170C1400000000DB
:100C70000313C71F3E2E83128B178316C30B412EFF
:100C80006F2E831203170C0D0E0D7F39831603137D
:100C9000C400831203170D0883160313C5008312C3
:100CA00003170F0883160313C6004408C8008312F5
:100CB000E12183164508831203178D008316031361
:100CC0004608831203178F008D0A03198F0A031039
:100CD00083160313C30B6D2E6F2E8312F72D831211
:100CE000080003173708BA003608BC003508BB00F7
:100CF000B908031D7F2E3808003C0318972E3C08C6
:100D0000FA003B08840083137A1883173A0800021C
:100D1000031D8F2E3B08F8003C08F9009A2EBB0AF1
:100D20000319BC0A38080319B903B803782E003038
:100D3000F800F9000313080083164408C6004308AE
:100D4000C500C9014608CC004508CB00CE01C7301C
:100D5000CD000A30CF008A15831200208A1178084E
:100D60008316CA0047084502031DBA2E48084602EA
:100D70000319D62E4808C6004708C5004B3049075E
:100D8000840083134A088000C90A4608CC0045083D
:100D9000CB00CE01C730CD000A30CF008A158312B8
:100DA00000208A1178088316CA00B22E4B30F80052
:100DB0000030F9008312080083164708F801460244
:100DC0000318E52E4608F700F12EF7010830C80099
:100DD000C60DF70D470877020318F700F80DC80B8A
:100DE000E82E83120800780883164308C600643092
:100DF000C7008312DC2677088316C30078083030DA
:100E0000031D092FC41C122FC419122F441A20309D
:100E10000C2FC41144124414F8077808C800831238
:100E2000E12183164308C6000A30C7008312DC267E
:100E300077088316C30078083030031D252FC419A6
:100E40002B2F441C2B2F441A2030F8077808C80099
:100E50008312E12183163030C3074308C800831290
:100E6000E12108008316BE0133083E020318BE2F9D
:100E70000C30C8008312E1218316310884008313EB
:100E800032188317800803195C2FC2010408C100BF
:100E90004210831B42140008C8008312E12183160C
:100EA00041088400831342188317840A031D5B2FB3
:100EB0008312850A8316422F3230C90083122A21F9
:100EC000922478088316B400F230831203178D0041
:100ED00000308F000310073083160313C300831202
:100EE000F72583163408C8008312E12102308316E7
:100EF000C100C830C90083122A218316C10B792F83
:100F0000340F832FBD2FC201BF30C1003408C3008E
:100F1000410884008313421883174308800001307E
:100F20004107840083134218831780014108F800A9
:100F30004208F900C401BF30C30083129C2679081F
:100F40008316BD007808BC00B5303E07F800FA01F2
:100F50000318FA0A7808C1007A08C2003C08840025
:100F600083133D1883170008C300410884008313CE
:100F70004218831743088000BE0A342FBD01B530E4
:0E0F8000BC003C08F8003D08F9008312080090
:101000008316D701D6013030831203179000313098
:1010100091003230920033309300343094003530F8
:1010200095003630960037309700383098003930C8
:10103000990061309A0062309B0063309C006430FC
:101040009D0065309E0066309F006730A0006830CC
:10105000A1006930A2006A30A3006B30A4006C309C
:10106000A5006D30A6006E30A7006F30A80070306C
:10107000A9007130AA007330AB007430AC00753039
:10108000AD007630AE007730AF007830B000793008
:10109000B1007A30B200B301831603134C08D100BB
:1010A0004B08D0005108FA005008840083137A18C6
:1010B00083170008203C031D6128D00A0319D10AB8
:1010C00052285108FA0050088400831351188317DE
:1010D00000082D3C031977285108FA0050088400B5
:1010E00083135118831700082B3C031D83285108D4
:1010F000FA005008D00A0319D10A840083137A1821
:101100008317000884282B30D80058082D3C031979
:101110009428CF1B94284F0B8E289428CF1B9628F9
:101120004F08243C03189628162A2C29CF080319A7
:10113000F1284F08103C031DC0285108FA00500840
:10114000840083137A1883170008303C031DC028DD
:101150000130500784008313511883170008783C2E
:101160000319BC28013050078400831351188317DA
:101170000008583C031DC0280230D0070318D10ACC
:101180004F08083C031DD3285108FA00500884007A
:1011900083137A1883170008303C031DD3280130CD
:1011A000D0070318D10A4F08023C031DF02851084C
:1011B000FA005008840083137A1883170008303C23
:1011C000031DF02801305007840083135118831742
:1011D0000008623C031DF0280230D0070318D10A32
:1011E0002C295108FA005008840083137A188317B9
:1011F0000008303C0319FF280A30CF002C290130A9
:10120000500784008313511883170008783C031992
:1012100013290130500784008313511883170008E5
:10122000583C031D1A291030CF000230D007031894
:10123000D10A2C29013050078400831351188317D9
:101240000008623C031D2A290230CF00D007031892
:10125000D10A2C290830CF005108D3005008D20001
:101260005108FA005008840083137A188317000885
:10127000303C031D3F29D00A0319D10A30295108F7
:10128000FA00500884008313511883170008D9000E
:10129000403C0318522959085A3C031C522959084A
:1012A000203853295908D900013083120317B6009A
:1012B0001030B50083160313590883120317B700C3
:1012C000B901831603134F0883120317B8008A115C
:1012D000031371268A1579088316D5007808D4007F
:1012E000D408031D7629D50803190E2AFA014F08E0
:1012F000F700F71BFA03D9007A08DA0057088312BF
:101300000317B70083160313560883120317B6009A
:10131000831603135A0883120317B90083160313A5
:10132000590883120317B800370839068039BB0003
:10133000B71F9F29B609B709B60A0319B70AB91F1B
:10134000A629B809B909B80A0319B90A1030BA00B0
:10135000F701FA01B70CB60C031CB4293808F707DB
:101360000318FA0A3908FA07FA0CF70CF90CF80C0A
:10137000BA0BAA29BB1FC129F809F909F80A0319F0
:10138000F90A790883160313DA007808D9001030B7
:101390005402F7005508FA000130031C0230FA022B
:1013A00077085907D6005A08D7007A0803187A0F29
:1013B000D707D00A0319D10A5108FA00500884004F
:1013C0008313511883170008D900403C0318EF29F4
:1013D00059085A3C031CEF2959082038F0295908AC
:1013E000D900013083120317B6001030B500831600
:1013F0000313590883120317B700B90183160313A7
:101400004F0883120317B8008A11031371268A1537
:1014100079088316D5007808D40070295008520244
:10142000031D292A51085302031D292A4D084E0481
:101430000319252A4D08840083134E188317840A44
:101440004C08800084034B0880000030F800F9004D
:101450003C2A4D084E040319382A4D088400831392
:101460004E188317840A51088000840350088000B6
:101470005608F8005708F900831208008A119224D0
:101480008A157808D500C23003178D0000308F0010
:1014900003100A3083160313C3008A118312F72541
:1014A0008A1555088316C8008A118312E1218A150E
:1014B0000230D600FA308316C9008A1183122A211D
:1014C0008A15D60B5A2A5508313A0319712A333A2C
:1014D0000319BB2D013A0319BD2D073A0319BF2D7E
:1014E000C22D8316C2014208043C031CC62AE63002
:1014F000831203178D0000308F008A1103132422FA
:101500008A1532308316C9008A1183122A218A155E
:101510008A1192248A1578088316BF00ED30831251
:1015200003178D0000308F0003100730831603135C
:10153000C3008A118312F7258A1583163F08C80055
:101540008A118312E1218A1502308316C300FA3012
:10155000C9008A1183122A218A158316C30BA72A70
:101560003F0FB32AC52A4208023C031DBE2AB130F0
:1015700042078400831320308000C20AB130420742
:10158000840083133F088000C20A732AC401B1306B
:10159000C3008A1183129C268A1579088316C1001C
:1015A0007808C0004008F8004108F9007908831263
:1015B000D7007808D600560884008313571883177D
:1015C0000008D8000130560784008313571883178A
:1015D0000008D900F73003178D0000308F0003108A
:1015E000053083160313C3008A118312F7258A1569
:1015F00058088316C3001B30C4008A118312F326D7
:101600008A1559088316C3001B30C4008A1183123F
:10161000F3268A150430EF00C8308316C9008A11FA
:1016200083122A218A15EF0B0C2B4430DF0069301E
:10163000E0006730E1006930E2007430E3006530BB
:10164000E4002030E5006130E6002030E700733030
:10165000E8006530E9006E30EA006830EB00613088
:10166000EC00ED010430EE008316B2015F30B100F2
:1016700083126E088316B3008A11831232278A15EB
:101680007908D7007808D6005608840083135718C5
:1016900083170008DA0001305607840083135718B7
:1016A00083170008DB0002305607840083135718A5
:1016B00083170008DC000330560784008313571893
:1016C00083170008DD00FC3003178D0000308F0009
:1016D00003100A3083160313C3008A118312F725FF
:1016E0008A155A088316C3001B30C4008A1183125E
:1016F000F3268A155B088316C3001B30C4008A11C9
:101700008312F3268A155C088316C3001B30C400BD
:101710008A118312F3268A155D088316C3001B30D5
:10172000C4008A118312F3268A150430EF00C830F2
:101730008316C9008A1183122A218A15EF0B972B71
:1017400053308316A0007430A1006130A2007430C1
:10175000A3007530A4007330A5002030A600283007
:10176000A7003030A8002C30A9003130AA002C305E
:10177000AB003330AC002930AD003A30AE00203041
:10178000AF00B00101308312EE008316B201A03029
:10179000B10083126E088316B3008A1183123227B8
:1017A0008A157908D7007808D60056088400831374
:1017B000571883170008DE00063003178D0001302C
:1017C0008F000310093083160313C3008A1183129C
:1017D000F7258A155E088316C3001B30C4008A11E2
:1017E0008312F3268A150430EF00C8308316C9002F
:1017F0008A1183122A218A15EF0BF52B8316B20169
:101800005830B100B4015A30B30083125E08831619
:10181000B500310884008313321883170130310773
:1018200084008313321883173208BF003108BE00CA
:10183000C2014208C4008A11831240238A15780825
:10184000FF3C03197F2C83164208C4008A118312BF
:1018500040238A1578088316C00001304207C30070
:10186000C4008A11831240238A1578088316C100A8
:101870003E08840083133F18831700084002031DAD
:101880007B2C01303E07840083133F188317000828
:101890004102031D7B2C8F30831203178D00003013
:1018A0008F0003100F3083160313C3008A118312B5
:1018B000F7258A1583164008C3001B30C4008A111F
:1018C0008312F3268A1583164108C3001B30C40017
:1018D0008A118312F3268A1504308316C300FA3066
:1018E000C9008A1183122A218A158316C30B6F2C13
:1018F0004208F8008B2C0730C207192C831299304C
:1019000003178D0000308F008A11031324228A15DB
:10191000FF30F8008316BE013E08C4008A1183120E
:1019200040238A157808FF3C03199B2C0730831647
:10193000BE078C2C8312AA3003178D0000308F0055
:1019400003100A3083160313C3008A118312F7258C
:101950008A1583163E08C0001830C1002030411E91
:101960003030C2004008F700C01FBE2CF709F70A4C
:101970007708C0002D30C200C11741144008C600CE
:101980006430C7008A118312DC268A157708831613
:10199000C00030307807C3004008C6000A30C700D6
:1019A0008A118312DC268A15303077078316C5002A
:1019B00030307807C4004208F70030304302031982
:1019C000E52CC114C11B4115F92C4208C30020307D
:1019D000C200303044020319F12C4114C11BC11460
:1019E000F92C031D4114031DF92C4308C4002030B9
:1019F000C3004119002DC118072D41180E2D152DBA
:101A00004208C8008A118312E1218A15831643080F
:101A1000C8008A118312E1218A1583164408C80080
:101A20008A118312E1218A1583164508C8008A119C
:101A30008312E1218A1504308316C000FA30C900F0
:101A40008A1183122A218A158316C00B1E2D3E0887
:101A5000F8007808B6003108840083133218831721
:101A60000008B70001303107840083133218831750
:101A70000008B80033088400831334188317000863
:101A8000B90001303307840083133418831700082A
:101A9000BA00023033078400831334188317000818
:101AA000BB00033033078400831334188317000806
:101AB000BC003508BD003608BF003708C0008A11D9
:101AC000831210248A15013083163607BE00BF002A
:101AD0003808C0008A11831210248A150230831638
:101AE0003607BE00BF003908C0008A1183121024D7
:101AF0008A15033083163607BE00BF003A08C000BF
:101B00008A11831210248A15043083163607BE000A
:101B1000BF003B08C0008A11831210248A150530CB
:101B200083163607BE00BF003C08C0008A1183122E
:101B300010248A15063083163607BE00BF003D0804
:101B4000C0008A11831210248A15603003178D009B
:101B500000308F008A11031324228A150230831665
:101B6000BE00FA30C9008A1183122A218A15831611
:101B7000BE0BB12DC32D8316C32D8316C32D831623
:101B8000C32D8312831683125508043C031D3E2A7D
:101B90008A150A121C2E03081F398300AC01AD01FF
:101BA000B101B201FF30BD0083161F149F141F1531
:101BB0009F1107309C0083138312BE01BF01C40133
:101BC000C501C601C701C801C901CA01CB01CC01C9
:101BD000CD01CE01CF01D001D101D401831601087E
:101BE000C03907388100B530831290008A111D2951
:101BF0008A158B1683160C14C03083128B048A113D
:101C000098298A155230F700F70B042E072E000092
:101C1000143003178D0001308F008A110313242222
:101C20008A15C8308316C9008A1183122A218A15A1
:101C30008A11602C8A153E2A32308316C9008A1117
:0A1C400083122A218A15232E630067
:02400E00323F3F
:00000001FF
;PIC16F877A
;CRC=DC58  CREATED="20-Nov-21 20:29"
