:1000000004308A00132C0000FF00030E8301A100BE
:100010000A08A0008A010408A2007708A300780853
:10002000A4007908A5007A08A60003170D08031399
:10003000A70003170F080313A80003170C080313E6
:10004000A90003170E080313AA00831383128B1E43
:100050002B280B1952288C308400001C31280C18D6
:100060005528220884002308F7002408F8002508F2
:10007000F9002608FA00270803178D000313280843
:1000800003178F000313290803178C0003132A0892
:1000900003178E00031320088A00210E8300FF0E31
:1000A0007F0E09008A110A124C298A110A1234297A
:1000B0000A108A100A11820728340F3401340634DA
:1000C0000D05D320D622D529452900008C2AF33AE4
:1000D0006139E937A0216132E139743961326F0049
:1000E0008C2444106937E3376D38613A693B6536D3
:1000F00000010D05D4326E3A6510EE37F630ED3260
:100100006E3A65000C10C23A743A6F373A102532D5
:1001100000000D05D03BBA12E412E412E4126410A0
:10012000533ABA126410253200008C24441045372B
:10013000E3376E3AF230E437BA12F51275000C105C
:1001400049222027A022EE316F37743961326F00C7
:100150000C10D5396539A032F230F332641000004A
:100160008C206432F232F3393A10253200008C24AC
:10017000441DA53A2C10453CE939F43200018C2489
:10018000441DA53A2C104E10453CE939F4320000CC
:100190008C183A10C32044104336E9326E3A651089
:1001A00000010D05321D20224526A021EC346537C3
:1001B000F43200018C193A10C23AF3316139A021AE
:1001C000EC346537F43220000D05341DA022E434F0
:1001D000F43072104336E9326E3A65008C1A3A10E8
:1001E000D320492920326F10CD32EE3A20000D067F
:1001F0002021753AF4376E1DA01263000C22E933FA
:10020000693A65106F10492200018C37703AE9375E
:100210006E1DA01275000C10C23A743A6F373A1076
:10022000A53100010C10C23A743A6F373A10A5316B
:1002300000008C20E4366937A022EE316F37743924
:1002400061326F000C106132ED34EE395B185D1DC8
:10025000A01264000C10D020D329CF2A20008C34A7
:10026000643FBA12F51275000C108A110A12312877
:100270005B3084008313000803194B290630F80013
:10028000F701F70B4129F80B40297B30F700F70BFA
:100290004729800B3E290800DC30D800D901DA015B
:1002A00058085902031C5729D808031D6C2ADA087C
:1002B000031D6C2A831606108312061083168610FF
:1002C000831286148316061183120615831686116F
:1002D000831286151430DB0038218316081483122C
:1002E00008187929831608148312081C72293130E2
:1002F000DA008316881483128818852983168814D7
:100300008312881C7E293430DA0083160815831284
:1003100008199129831608158312081D8A29373078
:10032000DA0083168815831288199D29831688158B
:100330008312881D96292A30DA008316061083124C
:1003400006148316861083128610831606118312F4
:10035000061583168611831286151430DB003821AA
:100360008316081483120818BC29831608148312F4
:10037000081CB5293230DA008316881483128818D5
:10038000C829831688148312881CC1293530DA00E5
:100390008316081583120819D429831608158312A9
:1003A000081DCD293830DA00831688158312881984
:1003B000E029831688158312881DD9293030DA0088
:1003C0008316061083120614831686108312861471
:1003D0008316061183120611831686118312861561
:1003E0001430DB0038218316081483120818FF2903
:1003F000831608148312081CF8293330DA00831698
:100400008814831288180B2A831688148312881C78
:10041000042A3630DA008316081583120819172AC1
:10042000831608158312081D102A3930DA00831646
:10043000881583128819232A831688158312881D2C
:100440001C2A2330DA008316061083120614831642
:1004500086108312861483160611831206158316DE
:100460008611831286111430DB003821831608149C
:1004700083120818422A831608148312081C3B2A88
:100480004130DA0083168814831288184E2A8316A6
:1004900088148312881C472A4230DA008316081514
:1004A000831208195A2A831608158312081D532A25
:1004B0004330DA008316881583128819662A83165A
:1004C00088158312881D5F2A4430DA000530DB006E
:1004D00038210530D9075029DA08031D712AFF3069
:1004E000DA005A08F8007808B4000B118A110A12D1
:1004F00031280C10A034EE34E3346137E4372E1782
:100500002E1000010C106F38BA1263100000BF15D6
:100510003F088316870083123F163F088316870023
:1005200083128A110A12362C5718982A0812992A0F
:100530000816831608128312D718A02A8812A12A37
:1005400088168316881283125719A82A0813A92A15
:100550000817831608138312D719B02A8813B12AF3
:1005600088178316881389108312891483168910BB
:100570008312891008008316091183120911D40807
:10058000031DC42A0911C52A091583160911A630AD
:10059000F700F70BC92A0000891083128910550E45
:1005A000D6000F30D6055608D700942255080F39CB
:1005B000D600D7009422080083160812831208126E
:1005C0008316881283128812831608138312081365
:1005D0008316881383128813831609118312091155
:1005E0008316891083128910AB018B1BAB178B13F9
:1005F0000F30DB003821AB1B8B170130CB004B08D1
:10060000033C031C112B0330D7009422AB018B1B3E
:10061000AB178B130530DB003821AB1B8B17CB0AD4
:10062000FF2A0230D7009422CB014B08033C031C65
:10063000222B4B085820CC00D4014C08D500BB22FB
:10064000CB0A152B8A110A123C2C4F080C3A0319BD
:10065000332B063A0319412B073A0319412B053A6C
:100660000319572B5C2BD4010130D500BB22AB0101
:100670008B1BAB178B130230DB003821AB1B8B17A6
:10068000612B0130D0000230D100510B482B4B2B95
:100690004030D2004C2BD20101305002D207520818
:1006A0008038D300D4015308D500BB22612BD4017C
:1006B0001030D500BB22612B0130D4004F08D5008B
:1006C000BB2208000B08CB008B13831603178C1773
:1006D0000C140000000083120313CB1B8B170317AD
:1006E0000C087F390319B62B0313CB0003170D0831
:1006F0000313CC0003170F080313CD004B08CF00E2
:1007000025234C0803178D0003134D0803178F0092
:1007100003130B08CE008B13831603178C170C14CE
:100720000000000083120313CE1B8B1703170C0D60
:100730000E0D7F390319B62B0313CB0003170D08D9
:100740000313CC0003170F080313CD004B08CF0091
:1007500025234C0803178D0003134D0803178F0042
:100760008D0A03198F0A0313622B031703138A11CF
:100770000A12492C0B08CC008B13831603178C1715
:100780000C140000000083120313CC1B8B170318FA
:10079000F12B03170C087F390313CC0003170D0846
:1007A0000313CD0003170F080313CE004C08CF002E
:1007B00025234D0803178D0003134E0803178F00E0
:1007C00003130B08CF008B13831603178C170C141D
:1007D0000000000083120313CF1B8B17CB0BF12BF0
:1007E000102C03170C0D0E0D7F390313CC000317CB
:1007F0000D080313CD0003170F080313CE004C0898
:10080000CF0025234D0803178D0003134E0803174F
:100810008F008D0A03198F0A03100313CB0BBA2B19
:100820008A110A12762C03081F398300AD01AE012C
:10083000B201B301FF30BF0083161F149F141F15B0
:100840009F1107309C0083138312C001C101C201B4
:10085000C301C401C501C601CA0183160108C0391C
:1008600007388100B53083129000872A83160C1454
:10087000C03083128B04DC2A5230F700F70B3E2C79
:10088000412C0000793003178D0002308F000313D4
:10089000622B0230CB00AB018B1BAB178B13FA30F2
:1008A000DB003821AB1B8B17CB0B4B2CAB018B1B0D
:1008B000AB178B133230DB003821AB1B8B170430A6
:1008C000CB00AB018B1BAB178B13FA30DB0038214D
:1008D000AB1B8B17CB0B612C823003178D000230C2
:1008E0008F00031005300313CB00BA2B3408CF0060
:1008F00025232030CF0025230230CB00AB018B1BFA
:10090000AB178B13FA30DB003821AB1B8B17CB0BEB
:060910007E2C6C2C63003C
:02400E00323F3F
:00000001FF
;PIC16F877A
;CRC=0053  CREATED="19-nov-21 21:54"
