:1000000008308A0000280000FF00030E8301A100D1
:100010000A08A0008A010408A2007708A300780853
:10002000A4007908A5007A08A60003170D08031399
:10003000A70003170F080313A80003170C080313E6
:10004000A90003170E080313AA00831383128C3030
:100050008400801E2D288C1A4E2822088400230834
:10006000F7002408F8002508F9002608FA002708F8
:1000700003178D000313280803178F0003132908A3
:1000800003178C0003132A0803178E00031320089C
:100090008A00210E8300FF0E7F0E09008A110A12CA
:1000A000D5290A108A100A11820728340F34013426
:1000B00006348C2AF33A6139E937A0216132E139FB
:1000C000743961326F008C2444106937E3376D381E
:1000D000613A693B653600010D05D4326E3A651010
:1000E000EE37F630ED326E3A65008C2AF33A61391C
:1000F000E937A020F43A6136693D61326F008C2403
:1001000044106937E3376D38613A693B6536000161
:100110000D05D4326E3A6510EE37F630ED326E3A98
:1001200065000D05D03BBA12F512F512F5127510E7
:10013000533ABA1275008C24441DA53AA53A000121
:100140008C2AF33A6139E9372027A022F834733A30
:1001500065000D05533A613AF539BA1273008C26E1
:10016000E5366F3979104336E530EE3264008C188D
:10017000BA2141227C193A21D529C32052000D050C
:10018000331DC4224C3E341D4522492A4129000119
:100190008C1ABA20F43A6136693D61392021E1397F
:1001A0006510C430E43773000D05361D4537F6344D
:1001B00061392021E1396510C430E43773008A1BAE
:1001C0003A10D320492920326F10CD32EE3A200068
:1001D0000C104F38F4346F373A10A53100018C29D8
:1001E000F531E332F339A0163E10253200108C3A77
:1001F000F33A6139E93720326536653A61326F008A
:100200008C3AF33A6139E9372027A022F834733A5F
:1002100065000C22E933693A6510F536203B6136FA
:100220006F3900010D05D630EC34E43721008C2401
:1002300044104E10453CE939F43200010D05D4322A
:100240006E3A6510E43220376F3B6F000C28F237AE
:10025000E33AF232A030A039E531F232F430F23430
:1002600061000D05D0172039E5396F36F63272007E
:100270000C274122411065342026E9336132EF100A
:1002800000000C10C434E734F43200008C20E43653
:100290006937A022EE316F37743961326F000C106C
:1002A0006132ED34EE395B185D1DA01264008C34B0
:1002B000641DA53AA53A00000C22E933693A65109D
:1002C0006F1049223A1000018A06D43CF032641DB6
:1002D000A53100008A06D43CF032641DA53100002F
:1002E0008C34641DA012F51275008C244410CA30A1
:1002F0006810453CE939F43200000C28C129531438
:10030000B4143A10A53AA53AA53AA53A00018C29A9
:10031000D420D42A531DA01275008C2444104E10F2
:10032000453CE939F43200008C226D10CD37E437BA
:10033000A0227338653961000D05E4322032613244
:10034000EF3920172E1700010C23E93620326110F7
:10035000C337ED3AEE34E330E3306F000C28C921A7
:10036000A0326D10ED37E437A02273386539610093
:100370000D05C539F032F2306E326F10E430E437DB
:1003800073172E1700008C2444106937E3376D383B
:10039000613A693B653600010D05D4326E3A65104D
:1003A000EE37F630ED326E3A650032302B078400BE
:1003B00083138C1ED9291A08800032302B07840041
:1003C00083130008AD00AB0A2B08143C031CAB01DF
:1003D0002D08493C031DF129AC08031DF129AC0A85
:1003E000142A2D08463C031DF9292C0BF929AC0AC7
:1003F000142A2D084D3C031D032A2C08023C031D22
:10040000032AAC0A142A2D08543C031D132A2C0875
:10041000033C031D132AAC010130B1002D08AE00CE
:10042000AF01AB01142AAC01B10803191F2A2F0830
:10043000AF0A063C03181F2A0130B000B1018C122C
:100440008A110A122D280C10A034EE34E3346137DF
:10045000E4372E172E1000018C24C62654102D10C0
:10046000D332F234613600018C226D10CD37E4377F
:10047000A0227338653961000D05E4322032613203
:10048000EF3920172E1700010C23E93620326110B6
:10049000C337ED3AEE34E330E3306F000C28C92166
:1004A000A0326D10ED37E437A02273386539610052
:1004B0000D05C539F032F2306E326F10E430E4379A
:1004C00073172E170000DB155B0883168700831255
:1004D0005B165B088316870083128A150A122D2883
:1004E000D6308400831300080319832A0630F800ED
:1004F000F701F70B792AF80B782A7B30F700F70B16
:100500007F2A800B762A080083165D188B2A8312B7
:1005100008128D2A83168312081683160812DD1816
:10052000952A83128812972A8316831288168316B7
:1005300088125D199F2A83120813A12A8316831239
:10054000081783160813DD19A92A83128813AB2A0A
:1005500083168312881783168813891083128914CF
:1005600083168910831289100800831609118312DB
:1005700009118316DA08031DC12A83120911C32A3F
:1005800083168312091583160911A630F700F70B9D
:10059000C72A000089108312891083165B0EDC00C5
:1005A0000F30DC055C08DD008312842283165B08B3
:1005B0000F39DC00DD008312842208008316081244
:1005C0008312081283168812831288128316081366
:1005D0008312081383168813831288138316091154
:1005E0008312091183168910831289100F30831624
:1005F000D600831270220130FB007B08033C031CF1
:100600000D2B03308316DD00831284220530831600
:10061000D60083127022FB0AFD2A02308316DD0009
:1006200083128422FB017B08033C031C222B7B08E2
:100630005120FC008316DA017C08DB008312B5220E
:10064000FB0A132B8A150A123528831655080C3A13
:1006500083120319352B063A0319412B073A031964
:10066000412B053A0319592B602B8316DA0101300F
:10067000DB008312B52202308316D600831270226B
:10068000672B01308316D6000230D700570B492B59
:100690004C2B4030D8004D2BD80101305602D807E2
:1006A00058088038D900DA015908DB008312B522D6
:1006B000672B8316DA011030DB008312B522672B1B
:1006C00001308316DA005508DB008312B5220800DA
:1006D0000B08FB008B13831603178C170C140000F8
:1006E0000000FB1F782B831203138B17831603174D
:1006F00083120C087F390319BA2BFB000D08FC008C
:100700000F08FD007B0883160313D50083122523F1
:100710007C0803178D007D088F0003130B08FE0073
:100720008B13831603178C170C1400000000FE1F98
:100730009E2B831203138B178316031783120C0D42
:100740000E0D7F390319BA2BFB000D08FC000F08B2
:10075000FD007B0883160313D500831225237C0834
:1007600003178D007D088F008D0A03198F0A03136C
:10077000682B03170313080003173708BA0036085D
:10078000BC003508BB00B908031DCA2B3808003C63
:100790000318E22B3C08FA003B08840083137A1804
:1007A00083173A080002031DDA2B3B08F8003C08C7
:1007B000F900E52BBB0A0319BC0A38080319B90371
:1007C000B803C32B0030F800F900031308008316A8
:1007D000E701E601303083120317900031309100B9
:1007E000323092003330930034309400353095002D
:1007F00036309600373097003830980039309900FD
:1008000061309A0062309B0063309C0064309D0030
:1008100065309E0066309F006730A0006830A10000
:100820006930A2006A30A3006B30A4006C30A500D0
:100830006D30A6006E30A7006F30A8007030A900A0
:100840007130AA007330AB007430AC007530AD006D
:100850007630AE007730AF007830B0007930B1003C
:100860007A30B200B301831603135C08E1005B0821
:10087000E0006108FA006008840083137A18831787
:100880000008203C031D482CE00A0319E10A392C1A
:100890006108FA0060088400831361188317000858
:1008A0002D3C03195E2C6108FA0060088400831354
:1008B0006118831700082B3C031D6A2C6108FA009D
:1008C0006008E00A0319E10A840083137A18831789
:1008D00000086B2C2B30E80068082D3C03197B2C9A
:1008E000DF1B7B2C5F0B752C7B2CDF1B7D2C5F08AB
:1008F000243C03187D2CFB2D132DDF080319D82C65
:100900005F08103C031DA72C6108FA0060088400F2
:1009100083137A1883170008303C031DA72C01307D
:10092000600784008313611883170008783C03195B
:10093000A32C01306007840083136118831700081B
:10094000583C031DA72C0230E0070318E10A5F089A
:10095000083C031DBA2C6108FA0060088400831368
:100960007A1883170008303C031DBA2C0130E007C9
:100970000318E10A5F08023C031DD72C6108FA0046
:100980006008840083137A1883170008303C031D25
:10099000D72C013060078400831361188317000887
:1009A000623C031DD72C0230E0070318E10A132D27
:1009B0006108FA006008840083137A18831700081E
:1009C000303C0319E62C0A30DF00132D013060079C
:1009D00084008313611883170008783C0319FA2CEC
:1009E0000130600784008313611883170008583CA6
:1009F000031D012D1030DF000230E0070318E10A6B
:100A0000132D0130600784008313611883170008D9
:100A1000623C031D112D0230DF00E0070318E10ADC
:100A2000132D0830DF006108E3006008E200610870
:100A3000FA006008840083137A1883170008303C9A
:100A4000031D262DE00A0319E10A172D6108FA009B
:100A5000600884008313611883170008E900403C94
:100A60000318392D69085A3C031C392D69082038B0
:100A70003A2D6908E900013083120317B6001030DF
:100A8000B50083160313690883120317B700B90171
:100A9000831603135F0883120317B8000313BC23E4
:100AA00079088316E5007808E400E408031D5B2D4F
:100AB000E5080319F32DFA015F08F700F71BFA03A5
:100AC000E9007A08EA00670883120317B700831663
:100AD0000313660883120317B600831603136A080C
:100AE00083120317B90083160313690883120317CF
:100AF000B800370839068039BB00B71F842DB60906
:100B0000B709B60A0319B70AB91F8B2DB809B90975
:100B1000B80A0319B90A1030BA00F701FA01B70C84
:100B2000B60C031C992D3808F7070318FA0A390880
:100B3000FA07FA0CF70CF90CF80CBA0B8F2DBB1F47
:100B4000A62DF809F909F80A0319F90A7908831694
:100B50000313EA007808E90010306402F700650822
:100B6000FA000130031C0230FA0277086907F80026
:100B70006A0803186A0FFA077808E6007A08E7009F
:100B8000E00A0319E10A6108FA006008840083138F
:100B9000611883170008E900403C0318D62D690846
:100BA0005A3C031CD62D69082038D72D6908E90066
:100BB000013083120317B6001030B50083160313FB
:100BC000690883120317B700B901831603135F087E
:100BD00083120317B8000313BC2379088316E500BA
:100BE0007808E400552D60086202031D0E2E61088E
:100BF0006302031D0E2E5D085E0403190A2E5D08B4
:100C0000840083135E188317840A5C0880008403C1
:100C10005B0880000030F800F900212E5D085E04BA
:100C200003191D2E5D08840083135E188317840A40
:100C3000610880008403600880006608F800670887
:100C4000F900831208008316D6013230D500D40192
:100C5000A430D30055088400831356188317000866
:100C6000D700530884008313541883175708800053
:100C7000800803193E2ED30AD50A2A2ED401A430A7
:100C8000D3005408D6005308D500D9015608DC001B
:100C90005508DB00DE01D730DD000A30DF008312AB
:100CA000E72378088316DA0057085502031D5C2EE7
:100CB000580856020319762E5808D6005708D50052
:100CC00069305907840083135A088000D90A5608EE
:100CD000DC005508DB00DE01D730DD000A30DF0024
:100CE0008312E72378088316DA00542E6930F8005F
:100CF0000030F9007908A3007808A2000C30D50074
:100D000083122523A4308400831380080319A12EA5
:100D10008316D4010408D3005410831B5414000814
:100D2000D500831225238316530884008313541897
:100D30008317840A031D9F2E8312850A831683124C
:100D4000852E02308316D300FA30D600831270222B
:100D50008316D30BA42E2208840083132318831731
:100D60000008CC0001302207840083132318831766
:100D70000008CD0002302207840083132318831754
:100D80000008CE0003302207840083132318831742
:100D90000008CF0004302207840083132318831730
:100DA0000008D0000530220784008313231883171E
:100DB0000008D1000630220784008313231883170C
:100DC0000008D200CC30F800F90183128A150A120B
:100DD000A0280B088316A80083128B138316031711
:100DE0008C170C14000000000313A81FFA2E8312A6
:100DF0008B1783160318332F831203170C087F39C0
:100E000083160313A800831203170D088316031318
:100E1000A900831203170F0883160313AA002808DA
:100E2000D5008312252383162908831203178D000A
:100E3000831603132A08831203178F0003130B086A
:100E40008316AB0083128B13831603178C170C14B5
:100E5000000000000313AB1F302F83128B17831683
:100E6000A70B332F612F831203170C0D0E0D7F3943
:100E700083160313A800831203170D0883160313A8
:100E8000A900831203170F0883160313AA0028086A
:100E9000D5008312252383162908831203178D009A
:100EA000831603132A08831203178F008D0A031970
:100EB0008F0A031083160313A70B5F2F612F831272
:100EC000E92E8312080083162A08F8012902031864
:100ED0006C2F2908F700782FF7010830AB00A90D17
:100EE000F70D2A0877020318F700F80DAB0B6F2FE8
:100EF00083120800780883162708A9006430AA0026
:100F00008312632777088316A70078083030031D03
:100F1000902FA81C992FA819992F281A2030932FA9
:100F2000A81128122814F8077808D5008312252361
:100F300083162708A9000A30AA00831263277708BE
:100F40008316A70078083030031DAC2FA819B22FE4
:100F5000281CB22F281A2030F8077808D5008312F1
:100F6000252383163030A7072708D50083122523B1
:100F70000800913003178D0000308F0003100530FA
:100F800083160313A7008312E92683162208A700FD
:100F90001B30A80083127A2783162308A7001B3072
:100FA000A80083127A2783162408A7001B30A80004
:100FB00083127A2783162508A7001B30A800831206
:100FC0007A27973003178D0000308F000314043008
:100FD00083160313A7008312E92683162608A700A9
:100FE0001B30A80083127A270430FB00FA308316E6
:100FF000D60083127022FB0BF62F8A150A12D42812
:1010000003081F398300813083169900A6309800A9
:10101000903083129800AB01AC01B001B101DA014C
:10102000FF30DB0083161F149F141F159F1107301C
:101030009C0083138312DC01DD01E201E301E40182
:10104000E501E601E701E801E901EA01EB01EC0154
:10105000ED01EE01EF018A11632A8A1583168C16C1
:10106000C03083128B048A11DE2A8A155230F700B1
:10107000F70B38283B280000233003178D0002307F
:101080008F008A11031368238A150230FB00FA309F
:101090008316D6008A11831270228A15FB0B47280B
:1010A0002C3003178D0002308F008A110313682340
:1010B0008A150230FB00FA308316D6008A1183129B
:1010C00070228A15FB0B5B28343003178D00023029
:1010D0008F008A11031368238A153C3003178D0093
:1010E00002308F008A11031368238A156430831637
:1010F000D6008A11831270228A15B0080319EE28CF
:101100003208233C031D9D283408233C031D9D28E1
:10111000443003178D0002308F008A1103136823B7
:101120008A150430FB00FA308316D6008A11831228
:1011300070228A15FB0B9328EF28B0018A11232E09
:101140008A157908FA007808FB007A08FC00FE018D
:101150007030FD000730F8007B08840083137C1892
:1011600083170008F7007D08840083137E18831717
:1011700077088000FD0A0319FE0AFB0A0319FC0A1E
:10118000F80BAC2870088316A0007108A100720843
:10119000A2007308A3007408A4007508A5007608CF
:1011A000A6008A118312B92F8A154E3003178D00BD
:1011B00002308F008A11031368238A1558300317F1
:1011C0008D0002308F008A11031368238A15643062
:1011D0008316D6008A11831270228A157D2864280E
:0211E0006300AA
:02400E00323F3F
:00000001FF
;PIC16F877A
;CRC=B9C2  CREATED="23-Nov-21 21:43"
